{
  "abi": [
    {
      "inputs": [
        {
          "internalType": "address",
          "name": "newBuilderAddress",
          "type": "address"
        }
      ],
      "name": "acceptBuilderJoinRequest",
      "outputs": [],
      "stateMutability": "nonpayable",
      "type": "function"
    },
    {
      "inputs": [
        {
          "internalType": "address",
          "name": "newBuilderAddress",
          "type": "address"
        },
        {
          "internalType": "bytes32",
          "name": "publicKey",
          "type": "bytes32"
        }
      ],
      "name": "addBuilder",
      "outputs": [],
      "stateMutability": "nonpayable",
      "type": "function"
    },
    {
      "inputs": [
        {
          "internalType": "address",
          "name": "",
          "type": "address"
        }
      ],
      "name": "builderRequests",
      "outputs": [
        {
          "internalType": "address",
          "name": "builderAddress",
          "type": "address"
        },
        {
          "internalType": "bytes32",
          "name": "publicKey",
          "type": "bytes32"
        },
        {
          "internalType": "uint256",
          "name": "index",
          "type": "uint256"
        }
      ],
      "stateMutability": "view",
      "type": "function"
    },
    {
      "inputs": [
        {
          "internalType": "uint256",
          "name": "",
          "type": "uint256"
        }
      ],
      "name": "builderRequestsArray",
      "outputs": [
        {
          "internalType": "address",
          "name": "",
          "type": "address"
        }
      ],
      "stateMutability": "view",
      "type": "function"
    },
    {
      "inputs": [
        {
          "internalType": "address",
          "name": "",
          "type": "address"
        }
      ],
      "name": "builders",
      "outputs": [
        {
          "internalType": "address",
          "name": "_address",
          "type": "address"
        },
        {
          "internalType": "bytes32",
          "name": "publicKey",
          "type": "bytes32"
        }
      ],
      "stateMutability": "view",
      "type": "function"
    },
    {
      "inputs": [
        {
          "internalType": "uint256",
          "name": "",
          "type": "uint256"
        }
      ],
      "name": "buildersArray",
      "outputs": [
        {
          "internalType": "address",
          "name": "",
          "type": "address"
        }
      ],
      "stateMutability": "view",
      "type": "function"
    },
    {
      "inputs": [
        {
          "internalType": "address",
          "name": "newBuilderAddress",
          "type": "address"
        }
      ],
      "name": "declineBuilderJoinRequest",
      "outputs": [],
      "stateMutability": "nonpayable",
      "type": "function"
    },
    {
      "inputs": [],
      "name": "getBuilderRequestsLength",
      "outputs": [
        {
          "internalType": "uint256",
          "name": "",
          "type": "uint256"
        }
      ],
      "stateMutability": "view",
      "type": "function"
    },
    {
      "inputs": [],
      "name": "getBuildersLength",
      "outputs": [
        {
          "internalType": "uint256",
          "name": "",
          "type": "uint256"
        }
      ],
      "stateMutability": "view",
      "type": "function"
    },
    {
      "inputs": [
        {
          "internalType": "bytes32",
          "name": "publicKey",
          "type": "bytes32"
        }
      ],
      "name": "requestJoinBuilder",
      "outputs": [],
      "stateMutability": "nonpayable",
      "type": "function"
    },
    {
      "inputs": [
        {
          "internalType": "bytes32",
          "name": "publicKey",
          "type": "bytes32"
        }
      ],
      "name": "setBuilderPublickey",
      "outputs": [],
      "stateMutability": "nonpayable",
      "type": "function"
    }
  ],
  "bytecode": "608060405234801561001057600080fd5b506109b8806100206000396000f3fe608060405234801561001057600080fd5b50600436106100a95760003560e01c8063b155533a11610071578063b155533a1461016a578063b4fa6ba91461017d578063b7b92f47146101dc578063b9fae085146101ef578063bc946ead14610202578063ef2dc65e1461021557600080fd5b8063144ddefc146100ae578063168168a71461010557806350c62ac3146101305780637cf3110c14610142578063a2f6f78114610155575b600080fd5b6100e16100bc366004610813565b600060208190529081526040902080546001909101546001600160a01b039091169082565b604080516001600160a01b0390931683526020830191909152015b60405180910390f35b610118610113366004610835565b61021d565b6040516001600160a01b0390911681526020016100fc565b6001545b6040519081526020016100fc565b610118610150366004610835565b610247565b610168610163366004610813565b610257565b005b610168610178366004610813565b6102d8565b6101b761018b366004610813565b60026020819052600091825260409091208054600182015491909201546001600160a01b039092169183565b604080516001600160a01b0390941684526020840192909252908201526060016100fc565b6101686101ea366004610835565b61039e565b6101686101fd36600461084e565b6104fc565b610168610210366004610835565b61060f565b600354610134565b6003818154811061022d57600080fd5b6000918252602090912001546001600160a01b0316905081565b6001818154811061022d57600080fd5b336000908152602081905260409020546001600160a01b03166102955760405162461bcd60e51b815260040161028c90610878565b60405180910390fd5b6001600160a01b03818116600090815260026020526040902054166102cc5760405162461bcd60e51b815260040161028c906108c2565b6102d581610682565b50565b336000908152602081905260409020546001600160a01b031661030d5760405162461bcd60e51b815260040161028c90610878565b6001600160a01b03818116600090815260026020526040902054166103445760405162461bcd60e51b815260040161028c906108c2565b6001600160a01b03808216600090815260026020818152604092839020835160608101855281549095168552600181015491850182905290910154918301919091526103919083906104fc565b61039a82610682565b5050565b336000908152602081905260409020546001600160a01b0316156103fd5760405162461bcd60e51b81526020600482015260166024820152754275696c64657220616c72656164792065786973747360501b604482015260640161028c565b336000908152600260205260409020546001600160a01b0316156104635760405162461bcd60e51b815260206004820152601e60248201527f4275696c64657220616c726561647920726571756573746564206a6f696e0000604482015260640161028c565b60408051606081018252338082526020808301948552600380548486019081526000848152600293849052958620945185546001600160a01b03919091166001600160a01b031991821617865596516001808701919091559051949092019390935582549081018355919092527fc2575a0e9e593c00f959f8c92f12db2869c3395a3b0502d05e2516446f71f85b018054909216179055565b336000908152602081905260409020546001600160a01b03166105315760405162461bcd60e51b815260040161028c90610878565b6001600160a01b0382811660009081526020819052604090205416156105925760405162461bcd60e51b81526020600482015260166024820152754275696c64657220616c72656164792065786973747360501b604482015260640161028c565b6040805180820182526001600160a01b0393841680825260208083019485526000828152908190529283209151825495166001600160a01b031995861617825592516001918201558054808201825591527fb10e2d527612073b26eecdfd717e6a320cf44b4afac2b0732d9fcbe2b7fa0cf6018054909216179055565b336000818152602081905260409020546001600160a01b03161461066d5760405162461bcd60e51b815260206004820152601560248201527429b2b73232b91034b9903737ba10313ab4b63232b960591b604482015260640161028c565b33600090815260208190526040902060010155565b336000908152602081905260409020546001600160a01b03166106b75760405162461bcd60e51b815260040161028c90610878565b6001600160a01b0381166000908152600260208190526040909120015460038054829081106106e8576106e8610931565b6000918252602080832090910180546001600160a01b03199081169091556001600160a01b038516835260029182905260408320805490911681556001818101849055910182905560038054909161073f91610947565b8154811061074f5761074f610931565b60009182526020808320909101546001600160a01b03168083526002918290526040909220018390556003805491925082918490811061079157610791610931565b9060005260206000200160006101000a8154816001600160a01b0302191690836001600160a01b0316021790555060038054806107d0576107d061096c565b600082815260209020810160001990810180546001600160a01b0319169055019055505050565b80356001600160a01b038116811461080e57600080fd5b919050565b60006020828403121561082557600080fd5b61082e826107f7565b9392505050565b60006020828403121561084757600080fd5b5035919050565b6000806040838503121561086157600080fd5b61086a836107f7565b946020939093013593505050565b6020808252602a908201527f4f6e6c79206275696c646572732061726520616c6c6f77656420746f2065786560408201526931baba32903a3434b99760b11b606082015260800190565b60208082526049908201527f41646472657373206f66206e6577206275696c646572206861736e277420637260408201527f656174656420726571756573742e20436f6e7369646572207573696e6720616460608201526832213ab4b63232b91760b91b608082015260a00190565b634e487b7160e01b600052603260045260246000fd5b60008282101561096757634e487b7160e01b600052601160045260246000fd5b500390565b634e487b7160e01b600052603160045260246000fdfea264697066735822122050527323c6760f9ca8bd1cbfcc2c4ca3505feee29c5f0d0d0355fcf00f70eca564736f6c634300080f0033",
  "bytecodeSha1": "82fd4fa4aa5df2e201e9e54b9c1f5080179323ef",
  "compiler": {
    "evm_version": "istanbul",
    "optimizer": {
      "enabled": true,
      "runs": 200
    },
    "version": "0.8.15+commit.e14f2714"
  },
  "contractName": "Builders",
  "language": "Solidity",
  "natspec": {
    "details": "Reference builder in the project",
    "kind": "dev",
    "methods": {
      "acceptBuilderJoinRequest(address)": {
        "notice": "Already accepted builder can accept new builder.",
        "params": {
          "newBuilderAddress": "address of the new builder"
        }
      },
      "addBuilder(address,bytes32)": {
        "notice": "Already accepted builder can add new builder.",
        "params": {
          "newBuilderAddress": "address of the new builder",
          "publicKey": "compressed public key value"
        }
      },
      "declineBuilderJoinRequest(address)": {
        "notice": "Already accepted builder can accept new builder.",
        "params": {
          "newBuilderAddress": "address of the new builder"
        }
      },
      "requestJoinBuilder(bytes32)": {
        "notice": "Anyone can request to become a builder.",
        "params": {
          "publicKey": "compressed public key value"
        }
      },
      "setBuilderPublickey(bytes32)": {
        "notice": "Builder can update his public key.",
        "params": {
          "publicKey": "compressed public key value"
        }
      }
    },
    "version": 1
  },
  "opcodes": "PUSH1 0x80 PUSH1 0x40 MSTORE CALLVALUE DUP1 ISZERO PUSH2 0x10 JUMPI PUSH1 0x0 DUP1 REVERT JUMPDEST POP PUSH1 0x4 CALLDATASIZE LT PUSH2 0xA9 JUMPI PUSH1 0x0 CALLDATALOAD PUSH1 0xE0 SHR DUP1 PUSH4 0xB155533A GT PUSH2 0x71 JUMPI DUP1 PUSH4 0xB155533A EQ PUSH2 0x16A JUMPI DUP1 PUSH4 0xB4FA6BA9 EQ PUSH2 0x17D JUMPI DUP1 PUSH4 0xB7B92F47 EQ PUSH2 0x1DC JUMPI DUP1 PUSH4 0xB9FAE085 EQ PUSH2 0x1EF JUMPI DUP1 PUSH4 0xBC946EAD EQ PUSH2 0x202 JUMPI DUP1 PUSH4 0xEF2DC65E EQ PUSH2 0x215 JUMPI PUSH1 0x0 DUP1 REVERT JUMPDEST DUP1 PUSH4 0x144DDEFC EQ PUSH2 0xAE JUMPI DUP1 PUSH4 0x168168A7 EQ PUSH2 0x105 JUMPI DUP1 PUSH4 0x50C62AC3 EQ PUSH2 0x130 JUMPI DUP1 PUSH4 0x7CF3110C EQ PUSH2 0x142 JUMPI DUP1 PUSH4 0xA2F6F781 EQ PUSH2 0x155 JUMPI JUMPDEST PUSH1 0x0 DUP1 REVERT JUMPDEST PUSH2 0xE1 PUSH2 0xBC CALLDATASIZE PUSH1 0x4 PUSH2 0x813 JUMP JUMPDEST PUSH1 0x0 PUSH1 0x20 DUP2 SWAP1 MSTORE SWAP1 DUP2 MSTORE PUSH1 0x40 SWAP1 KECCAK256 DUP1 SLOAD PUSH1 0x1 SWAP1 SWAP2 ADD SLOAD PUSH1 0x1 PUSH1 0x1 PUSH1 0xA0 SHL SUB SWAP1 SWAP2 AND SWAP1 DUP3 JUMP JUMPDEST PUSH1 0x40 DUP1 MLOAD PUSH1 0x1 PUSH1 0x1 PUSH1 0xA0 SHL SUB SWAP1 SWAP4 AND DUP4 MSTORE PUSH1 0x20 DUP4 ADD SWAP2 SWAP1 SWAP2 MSTORE ADD JUMPDEST PUSH1 0x40 MLOAD DUP1 SWAP2 SUB SWAP1 RETURN JUMPDEST PUSH2 0x118 PUSH2 0x113 CALLDATASIZE PUSH1 0x4 PUSH2 0x835 JUMP JUMPDEST PUSH2 0x21D JUMP JUMPDEST PUSH1 0x40 MLOAD PUSH1 0x1 PUSH1 0x1 PUSH1 0xA0 SHL SUB SWAP1 SWAP2 AND DUP2 MSTORE PUSH1 0x20 ADD PUSH2 0xFC JUMP JUMPDEST PUSH1 0x1 SLOAD JUMPDEST PUSH1 0x40 MLOAD SWAP1 DUP2 MSTORE PUSH1 0x20 ADD PUSH2 0xFC JUMP JUMPDEST PUSH2 0x118 PUSH2 0x150 CALLDATASIZE PUSH1 0x4 PUSH2 0x835 JUMP JUMPDEST PUSH2 0x247 JUMP JUMPDEST PUSH2 0x168 PUSH2 0x163 CALLDATASIZE PUSH1 0x4 PUSH2 0x813 JUMP JUMPDEST PUSH2 0x257 JUMP JUMPDEST STOP JUMPDEST PUSH2 0x168 PUSH2 0x178 CALLDATASIZE PUSH1 0x4 PUSH2 0x813 JUMP JUMPDEST PUSH2 0x2D8 JUMP JUMPDEST PUSH2 0x1B7 PUSH2 0x18B CALLDATASIZE PUSH1 0x4 PUSH2 0x813 JUMP JUMPDEST PUSH1 0x2 PUSH1 0x20 DUP2 SWAP1 MSTORE PUSH1 0x0 SWAP2 DUP3 MSTORE PUSH1 0x40 SWAP1 SWAP2 KECCAK256 DUP1 SLOAD PUSH1 0x1 DUP3 ADD SLOAD SWAP2 SWAP1 SWAP3 ADD SLOAD PUSH1 0x1 PUSH1 0x1 PUSH1 0xA0 SHL SUB SWAP1 SWAP3 AND SWAP2 DUP4 JUMP JUMPDEST PUSH1 0x40 DUP1 MLOAD PUSH1 0x1 PUSH1 0x1 PUSH1 0xA0 SHL SUB SWAP1 SWAP5 AND DUP5 MSTORE PUSH1 0x20 DUP5 ADD SWAP3 SWAP1 SWAP3 MSTORE SWAP1 DUP3 ADD MSTORE PUSH1 0x60 ADD PUSH2 0xFC JUMP JUMPDEST PUSH2 0x168 PUSH2 0x1EA CALLDATASIZE PUSH1 0x4 PUSH2 0x835 JUMP JUMPDEST PUSH2 0x39E JUMP JUMPDEST PUSH2 0x168 PUSH2 0x1FD CALLDATASIZE PUSH1 0x4 PUSH2 0x84E JUMP JUMPDEST PUSH2 0x4FC JUMP JUMPDEST PUSH2 0x168 PUSH2 0x210 CALLDATASIZE PUSH1 0x4 PUSH2 0x835 JUMP JUMPDEST PUSH2 0x60F JUMP JUMPDEST PUSH1 0x3 SLOAD PUSH2 0x134 JUMP JUMPDEST PUSH1 0x3 DUP2 DUP2 SLOAD DUP2 LT PUSH2 0x22D JUMPI PUSH1 0x0 DUP1 REVERT JUMPDEST PUSH1 0x0 SWAP2 DUP3 MSTORE PUSH1 0x20 SWAP1 SWAP2 KECCAK256 ADD SLOAD PUSH1 0x1 PUSH1 0x1 PUSH1 0xA0 SHL SUB AND SWAP1 POP DUP2 JUMP JUMPDEST PUSH1 0x1 DUP2 DUP2 SLOAD DUP2 LT PUSH2 0x22D JUMPI PUSH1 0x0 DUP1 REVERT JUMPDEST CALLER PUSH1 0x0 SWAP1 DUP2 MSTORE PUSH1 0x20 DUP2 SWAP1 MSTORE PUSH1 0x40 SWAP1 KECCAK256 SLOAD PUSH1 0x1 PUSH1 0x1 PUSH1 0xA0 SHL SUB AND PUSH2 0x295 JUMPI PUSH1 0x40 MLOAD PUSH3 0x461BCD PUSH1 0xE5 SHL DUP2 MSTORE PUSH1 0x4 ADD PUSH2 0x28C SWAP1 PUSH2 0x878 JUMP JUMPDEST PUSH1 0x40 MLOAD DUP1 SWAP2 SUB SWAP1 REVERT JUMPDEST PUSH1 0x1 PUSH1 0x1 PUSH1 0xA0 SHL SUB DUP2 DUP2 AND PUSH1 0x0 SWAP1 DUP2 MSTORE PUSH1 0x2 PUSH1 0x20 MSTORE PUSH1 0x40 SWAP1 KECCAK256 SLOAD AND PUSH2 0x2CC JUMPI PUSH1 0x40 MLOAD PUSH3 0x461BCD PUSH1 0xE5 SHL DUP2 MSTORE PUSH1 0x4 ADD PUSH2 0x28C SWAP1 PUSH2 0x8C2 JUMP JUMPDEST PUSH2 0x2D5 DUP2 PUSH2 0x682 JUMP JUMPDEST POP JUMP JUMPDEST CALLER PUSH1 0x0 SWAP1 DUP2 MSTORE PUSH1 0x20 DUP2 SWAP1 MSTORE PUSH1 0x40 SWAP1 KECCAK256 SLOAD PUSH1 0x1 PUSH1 0x1 PUSH1 0xA0 SHL SUB AND PUSH2 0x30D JUMPI PUSH1 0x40 MLOAD PUSH3 0x461BCD PUSH1 0xE5 SHL DUP2 MSTORE PUSH1 0x4 ADD PUSH2 0x28C SWAP1 PUSH2 0x878 JUMP JUMPDEST PUSH1 0x1 PUSH1 0x1 PUSH1 0xA0 SHL SUB DUP2 DUP2 AND PUSH1 0x0 SWAP1 DUP2 MSTORE PUSH1 0x2 PUSH1 0x20 MSTORE PUSH1 0x40 SWAP1 KECCAK256 SLOAD AND PUSH2 0x344 JUMPI PUSH1 0x40 MLOAD PUSH3 0x461BCD PUSH1 0xE5 SHL DUP2 MSTORE PUSH1 0x4 ADD PUSH2 0x28C SWAP1 PUSH2 0x8C2 JUMP JUMPDEST PUSH1 0x1 PUSH1 0x1 PUSH1 0xA0 SHL SUB DUP1 DUP3 AND PUSH1 0x0 SWAP1 DUP2 MSTORE PUSH1 0x2 PUSH1 0x20 DUP2 DUP2 MSTORE PUSH1 0x40 SWAP3 DUP4 SWAP1 KECCAK256 DUP4 MLOAD PUSH1 0x60 DUP2 ADD DUP6 MSTORE DUP2 SLOAD SWAP1 SWAP6 AND DUP6 MSTORE PUSH1 0x1 DUP2 ADD SLOAD SWAP2 DUP6 ADD DUP3 SWAP1 MSTORE SWAP1 SWAP2 ADD SLOAD SWAP2 DUP4 ADD SWAP2 SWAP1 SWAP2 MSTORE PUSH2 0x391 SWAP1 DUP4 SWAP1 PUSH2 0x4FC JUMP JUMPDEST PUSH2 0x39A DUP3 PUSH2 0x682 JUMP JUMPDEST POP POP JUMP JUMPDEST CALLER PUSH1 0x0 SWAP1 DUP2 MSTORE PUSH1 0x20 DUP2 SWAP1 MSTORE PUSH1 0x40 SWAP1 KECCAK256 SLOAD PUSH1 0x1 PUSH1 0x1 PUSH1 0xA0 SHL SUB AND ISZERO PUSH2 0x3FD JUMPI PUSH1 0x40 MLOAD PUSH3 0x461BCD PUSH1 0xE5 SHL DUP2 MSTORE PUSH1 0x20 PUSH1 0x4 DUP3 ADD MSTORE PUSH1 0x16 PUSH1 0x24 DUP3 ADD MSTORE PUSH22 0x4275696C64657220616C726561647920657869737473 PUSH1 0x50 SHL PUSH1 0x44 DUP3 ADD MSTORE PUSH1 0x64 ADD PUSH2 0x28C JUMP JUMPDEST CALLER PUSH1 0x0 SWAP1 DUP2 MSTORE PUSH1 0x2 PUSH1 0x20 MSTORE PUSH1 0x40 SWAP1 KECCAK256 SLOAD PUSH1 0x1 PUSH1 0x1 PUSH1 0xA0 SHL SUB AND ISZERO PUSH2 0x463 JUMPI PUSH1 0x40 MLOAD PUSH3 0x461BCD PUSH1 0xE5 SHL DUP2 MSTORE PUSH1 0x20 PUSH1 0x4 DUP3 ADD MSTORE PUSH1 0x1E PUSH1 0x24 DUP3 ADD MSTORE PUSH32 0x4275696C64657220616C726561647920726571756573746564206A6F696E0000 PUSH1 0x44 DUP3 ADD MSTORE PUSH1 0x64 ADD PUSH2 0x28C JUMP JUMPDEST PUSH1 0x40 DUP1 MLOAD PUSH1 0x60 DUP2 ADD DUP3 MSTORE CALLER DUP1 DUP3 MSTORE PUSH1 0x20 DUP1 DUP4 ADD SWAP5 DUP6 MSTORE PUSH1 0x3 DUP1 SLOAD DUP5 DUP7 ADD SWAP1 DUP2 MSTORE PUSH1 0x0 DUP5 DUP2 MSTORE PUSH1 0x2 SWAP4 DUP5 SWAP1 MSTORE SWAP6 DUP7 KECCAK256 SWAP5 MLOAD DUP6 SLOAD PUSH1 0x1 PUSH1 0x1 PUSH1 0xA0 SHL SUB SWAP2 SWAP1 SWAP2 AND PUSH1 0x1 PUSH1 0x1 PUSH1 0xA0 SHL SUB NOT SWAP2 DUP3 AND OR DUP7 SSTORE SWAP7 MLOAD PUSH1 0x1 DUP1 DUP8 ADD SWAP2 SWAP1 SWAP2 SSTORE SWAP1 MLOAD SWAP5 SWAP1 SWAP3 ADD SWAP4 SWAP1 SWAP4 SSTORE DUP3 SLOAD SWAP1 DUP2 ADD DUP4 SSTORE SWAP2 SWAP1 SWAP3 MSTORE PUSH32 0xC2575A0E9E593C00F959F8C92F12DB2869C3395A3B0502D05E2516446F71F85B ADD DUP1 SLOAD SWAP1 SWAP3 AND OR SWAP1 SSTORE JUMP JUMPDEST CALLER PUSH1 0x0 SWAP1 DUP2 MSTORE PUSH1 0x20 DUP2 SWAP1 MSTORE PUSH1 0x40 SWAP1 KECCAK256 SLOAD PUSH1 0x1 PUSH1 0x1 PUSH1 0xA0 SHL SUB AND PUSH2 0x531 JUMPI PUSH1 0x40 MLOAD PUSH3 0x461BCD PUSH1 0xE5 SHL DUP2 MSTORE PUSH1 0x4 ADD PUSH2 0x28C SWAP1 PUSH2 0x878 JUMP JUMPDEST PUSH1 0x1 PUSH1 0x1 PUSH1 0xA0 SHL SUB DUP3 DUP2 AND PUSH1 0x0 SWAP1 DUP2 MSTORE PUSH1 0x20 DUP2 SWAP1 MSTORE PUSH1 0x40 SWAP1 KECCAK256 SLOAD AND ISZERO PUSH2 0x592 JUMPI PUSH1 0x40 MLOAD PUSH3 0x461BCD PUSH1 0xE5 SHL DUP2 MSTORE PUSH1 0x20 PUSH1 0x4 DUP3 ADD MSTORE PUSH1 0x16 PUSH1 0x24 DUP3 ADD MSTORE PUSH22 0x4275696C64657220616C726561647920657869737473 PUSH1 0x50 SHL PUSH1 0x44 DUP3 ADD MSTORE PUSH1 0x64 ADD PUSH2 0x28C JUMP JUMPDEST PUSH1 0x40 DUP1 MLOAD DUP1 DUP3 ADD DUP3 MSTORE PUSH1 0x1 PUSH1 0x1 PUSH1 0xA0 SHL SUB SWAP4 DUP5 AND DUP1 DUP3 MSTORE PUSH1 0x20 DUP1 DUP4 ADD SWAP5 DUP6 MSTORE PUSH1 0x0 DUP3 DUP2 MSTORE SWAP1 DUP2 SWAP1 MSTORE SWAP3 DUP4 KECCAK256 SWAP2 MLOAD DUP3 SLOAD SWAP6 AND PUSH1 0x1 PUSH1 0x1 PUSH1 0xA0 SHL SUB NOT SWAP6 DUP7 AND OR DUP3 SSTORE SWAP3 MLOAD PUSH1 0x1 SWAP2 DUP3 ADD SSTORE DUP1 SLOAD DUP1 DUP3 ADD DUP3 SSTORE SWAP2 MSTORE PUSH32 0xB10E2D527612073B26EECDFD717E6A320CF44B4AFAC2B0732D9FCBE2B7FA0CF6 ADD DUP1 SLOAD SWAP1 SWAP3 AND OR SWAP1 SSTORE JUMP JUMPDEST CALLER PUSH1 0x0 DUP2 DUP2 MSTORE PUSH1 0x20 DUP2 SWAP1 MSTORE PUSH1 0x40 SWAP1 KECCAK256 SLOAD PUSH1 0x1 PUSH1 0x1 PUSH1 0xA0 SHL SUB AND EQ PUSH2 0x66D JUMPI PUSH1 0x40 MLOAD PUSH3 0x461BCD PUSH1 0xE5 SHL DUP2 MSTORE PUSH1 0x20 PUSH1 0x4 DUP3 ADD MSTORE PUSH1 0x15 PUSH1 0x24 DUP3 ADD MSTORE PUSH21 0x29B2B73232B91034B9903737BA10313AB4B63232B9 PUSH1 0x59 SHL PUSH1 0x44 DUP3 ADD MSTORE PUSH1 0x64 ADD PUSH2 0x28C JUMP JUMPDEST CALLER PUSH1 0x0 SWAP1 DUP2 MSTORE PUSH1 0x20 DUP2 SWAP1 MSTORE PUSH1 0x40 SWAP1 KECCAK256 PUSH1 0x1 ADD SSTORE JUMP JUMPDEST CALLER PUSH1 0x0 SWAP1 DUP2 MSTORE PUSH1 0x20 DUP2 SWAP1 MSTORE PUSH1 0x40 SWAP1 KECCAK256 SLOAD PUSH1 0x1 PUSH1 0x1 PUSH1 0xA0 SHL SUB AND PUSH2 0x6B7 JUMPI PUSH1 0x40 MLOAD PUSH3 0x461BCD PUSH1 0xE5 SHL DUP2 MSTORE PUSH1 0x4 ADD PUSH2 0x28C SWAP1 PUSH2 0x878 JUMP JUMPDEST PUSH1 0x1 PUSH1 0x1 PUSH1 0xA0 SHL SUB DUP2 AND PUSH1 0x0 SWAP1 DUP2 MSTORE PUSH1 0x2 PUSH1 0x20 DUP2 SWAP1 MSTORE PUSH1 0x40 SWAP1 SWAP2 KECCAK256 ADD SLOAD PUSH1 0x3 DUP1 SLOAD DUP3 SWAP1 DUP2 LT PUSH2 0x6E8 JUMPI PUSH2 0x6E8 PUSH2 0x931 JUMP JUMPDEST PUSH1 0x0 SWAP2 DUP3 MSTORE PUSH1 0x20 DUP1 DUP4 KECCAK256 SWAP1 SWAP2 ADD DUP1 SLOAD PUSH1 0x1 PUSH1 0x1 PUSH1 0xA0 SHL SUB NOT SWAP1 DUP2 AND SWAP1 SWAP2 SSTORE PUSH1 0x1 PUSH1 0x1 PUSH1 0xA0 SHL SUB DUP6 AND DUP4 MSTORE PUSH1 0x2 SWAP2 DUP3 SWAP1 MSTORE PUSH1 0x40 DUP4 KECCAK256 DUP1 SLOAD SWAP1 SWAP2 AND DUP2 SSTORE PUSH1 0x1 DUP2 DUP2 ADD DUP5 SWAP1 SSTORE SWAP2 ADD DUP3 SWAP1 SSTORE PUSH1 0x3 DUP1 SLOAD SWAP1 SWAP2 PUSH2 0x73F SWAP2 PUSH2 0x947 JUMP JUMPDEST DUP2 SLOAD DUP2 LT PUSH2 0x74F JUMPI PUSH2 0x74F PUSH2 0x931 JUMP JUMPDEST PUSH1 0x0 SWAP2 DUP3 MSTORE PUSH1 0x20 DUP1 DUP4 KECCAK256 SWAP1 SWAP2 ADD SLOAD PUSH1 0x1 PUSH1 0x1 PUSH1 0xA0 SHL SUB AND DUP1 DUP4 MSTORE PUSH1 0x2 SWAP2 DUP3 SWAP1 MSTORE PUSH1 0x40 SWAP1 SWAP3 KECCAK256 ADD DUP4 SWAP1 SSTORE PUSH1 0x3 DUP1 SLOAD SWAP2 SWAP3 POP DUP3 SWAP2 DUP5 SWAP1 DUP2 LT PUSH2 0x791 JUMPI PUSH2 0x791 PUSH2 0x931 JUMP JUMPDEST SWAP1 PUSH1 0x0 MSTORE PUSH1 0x20 PUSH1 0x0 KECCAK256 ADD PUSH1 0x0 PUSH2 0x100 EXP DUP2 SLOAD DUP2 PUSH1 0x1 PUSH1 0x1 PUSH1 0xA0 SHL SUB MUL NOT AND SWAP1 DUP4 PUSH1 0x1 PUSH1 0x1 PUSH1 0xA0 SHL SUB AND MUL OR SWAP1 SSTORE POP PUSH1 0x3 DUP1 SLOAD DUP1 PUSH2 0x7D0 JUMPI PUSH2 0x7D0 PUSH2 0x96C JUMP JUMPDEST PUSH1 0x0 DUP3 DUP2 MSTORE PUSH1 0x20 SWAP1 KECCAK256 DUP2 ADD PUSH1 0x0 NOT SWAP1 DUP2 ADD DUP1 SLOAD PUSH1 0x1 PUSH1 0x1 PUSH1 0xA0 SHL SUB NOT AND SWAP1 SSTORE ADD SWAP1 SSTORE POP POP POP JUMP JUMPDEST DUP1 CALLDATALOAD PUSH1 0x1 PUSH1 0x1 PUSH1 0xA0 SHL SUB DUP2 AND DUP2 EQ PUSH2 0x80E JUMPI PUSH1 0x0 DUP1 REVERT JUMPDEST SWAP2 SWAP1 POP JUMP JUMPDEST PUSH1 0x0 PUSH1 0x20 DUP3 DUP5 SUB SLT ISZERO PUSH2 0x825 JUMPI PUSH1 0x0 DUP1 REVERT JUMPDEST PUSH2 0x82E DUP3 PUSH2 0x7F7 JUMP JUMPDEST SWAP4 SWAP3 POP POP POP JUMP JUMPDEST PUSH1 0x0 PUSH1 0x20 DUP3 DUP5 SUB SLT ISZERO PUSH2 0x847 JUMPI PUSH1 0x0 DUP1 REVERT JUMPDEST POP CALLDATALOAD SWAP2 SWAP1 POP JUMP JUMPDEST PUSH1 0x0 DUP1 PUSH1 0x40 DUP4 DUP6 SUB SLT ISZERO PUSH2 0x861 JUMPI PUSH1 0x0 DUP1 REVERT JUMPDEST PUSH2 0x86A DUP4 PUSH2 0x7F7 JUMP JUMPDEST SWAP5 PUSH1 0x20 SWAP4 SWAP1 SWAP4 ADD CALLDATALOAD SWAP4 POP POP POP JUMP JUMPDEST PUSH1 0x20 DUP1 DUP3 MSTORE PUSH1 0x2A SWAP1 DUP3 ADD MSTORE PUSH32 0x4F6E6C79206275696C646572732061726520616C6C6F77656420746F20657865 PUSH1 0x40 DUP3 ADD MSTORE PUSH10 0x31BABA32903A3434B997 PUSH1 0xB1 SHL PUSH1 0x60 DUP3 ADD MSTORE PUSH1 0x80 ADD SWAP1 JUMP JUMPDEST PUSH1 0x20 DUP1 DUP3 MSTORE PUSH1 0x49 SWAP1 DUP3 ADD MSTORE PUSH32 0x41646472657373206F66206E6577206275696C646572206861736E2774206372 PUSH1 0x40 DUP3 ADD MSTORE PUSH32 0x656174656420726571756573742E20436F6E7369646572207573696E67206164 PUSH1 0x60 DUP3 ADD MSTORE PUSH9 0x32213AB4B63232B917 PUSH1 0xB9 SHL PUSH1 0x80 DUP3 ADD MSTORE PUSH1 0xA0 ADD SWAP1 JUMP JUMPDEST PUSH4 0x4E487B71 PUSH1 0xE0 SHL PUSH1 0x0 MSTORE PUSH1 0x32 PUSH1 0x4 MSTORE PUSH1 0x24 PUSH1 0x0 REVERT JUMPDEST PUSH1 0x0 DUP3 DUP3 LT ISZERO PUSH2 0x967 JUMPI PUSH4 0x4E487B71 PUSH1 0xE0 SHL PUSH1 0x0 MSTORE PUSH1 0x11 PUSH1 0x4 MSTORE PUSH1 0x24 PUSH1 0x0 REVERT JUMPDEST POP SUB SWAP1 JUMP JUMPDEST PUSH4 0x4E487B71 PUSH1 0xE0 SHL PUSH1 0x0 MSTORE PUSH1 0x31 PUSH1 0x4 MSTORE PUSH1 0x24 PUSH1 0x0 REVERT INVALID LOG2 PUSH5 0x6970667358 0x22 SLT KECCAK256 POP MSTORE PUSH20 0x23C6760F9CA8BD1CBFCC2C4CA3505FEEE29C5F0D 0xD SUB SSTORE 0xFC CREATE 0xF PUSH17 0xECA564736F6C634300080F003300000000 ",
  "sha1": "a3c070dfaef56109fe397dec47d1fd49d7bc4b3c",
  "source": "// SPDX-License-Identifier: GPL3\npragma solidity ^0.8.0;\n\n/**\n * @dev Reference builder in the project\n */\ncontract Builders {\n    // Plan designer entity (builder)\n    struct Builder {\n        address _address;\n        bytes32 publicKey;\n    }\n\n    struct BuilderJoinRequest {\n        address builderAddress;\n        bytes32 publicKey;\n        uint256 index;\n    }\n\n    mapping(address => Builder) public builders;\n    address[] public buildersArray;\n\n    mapping(address => BuilderJoinRequest) public builderRequests;\n    address[] public builderRequestsArray;\n\n    modifier onlyBuilder() {\n        require(\n            builders[msg.sender]._address != address(0),\n            \"Only builders are allowed to execute this.\"\n        );\n        _;\n    }\n\n    function getBuildersLength() public view returns (uint256) {\n        return buildersArray.length;\n    }\n\n    function getBuilderRequestsLength() public view returns (uint256) {\n        return builderRequestsArray.length;\n    }\n\n    /**\n     * @notice Builder can update his public key.\n     * @param publicKey compressed public key value\n     */\n    function setBuilderPublickey(bytes32 publicKey) public {\n        require(\n            builders[msg.sender]._address == msg.sender,\n            \"Sender is not builder\"\n        );\n        builders[msg.sender].publicKey = publicKey;\n    }\n\n    /**\n     * @notice Already accepted builder can add new builder.\n     * @param newBuilderAddress address of the new builder\n     * @param publicKey compressed public key value\n     */\n    function addBuilder(\n        address newBuilderAddress,\n        bytes32 publicKey\n    ) public onlyBuilder {\n        require(\n            builders[newBuilderAddress]._address == address(0),\n            \"Builder already exists\"\n        );\n\n        builders[newBuilderAddress] = Builder({\n            _address: newBuilderAddress,\n            publicKey: publicKey\n        });\n\n        buildersArray.push(newBuilderAddress);\n    }\n\n    /**\n     * @notice Anyone can request to become a builder.\n     * @param publicKey compressed public key value\n     */\n    function requestJoinBuilder(bytes32 publicKey) public {\n        require(\n            builders[msg.sender]._address == address(0),\n            \"Builder already exists\"\n        );\n        require(\n            builderRequests[msg.sender].builderAddress == address(0),\n            \"Builder already requested join\"\n        );\n\n        builderRequests[msg.sender] = BuilderJoinRequest({\n            builderAddress: msg.sender,\n            publicKey: publicKey,\n            index: builderRequestsArray.length\n        });\n\n        builderRequestsArray.push(msg.sender);\n    }\n\n    /**\n     * @notice Already accepted builder can accept new builder.\n     * @param newBuilderAddress address of the new builder\n     */\n    function acceptBuilderJoinRequest(address newBuilderAddress)\n        public\n        onlyBuilder\n    {\n        require(\n            builderRequests[newBuilderAddress].builderAddress != address(0),\n            \"Address of new builder hasn't created request. Consider using addBuilder.\"\n        );\n\n        BuilderJoinRequest memory request = builderRequests[newBuilderAddress];\n\n        addBuilder(newBuilderAddress, request.publicKey);\n\n        _removeRequest(newBuilderAddress);\n    }\n\n    /**\n     * @notice Already accepted builder can accept new builder.\n     * @param newBuilderAddress address of the new builder\n     */\n    function declineBuilderJoinRequest(address newBuilderAddress)\n        public\n        onlyBuilder\n    {\n        require(\n            builderRequests[newBuilderAddress].builderAddress != address(0),\n            \"Address of new builder hasn't created request. Consider using addBuilder.\"\n        );\n\n        _removeRequest(newBuilderAddress);\n    }\n\n    function _removeRequest(address requestAddress) private onlyBuilder {\n        uint256 indexToDelete = builderRequests[requestAddress].index;\n        delete builderRequestsArray[indexToDelete];\n        delete builderRequests[requestAddress];\n\n        // move last request in place of old\n        address lastRequestAddress = builderRequestsArray[\n            builderRequestsArray.length - 1\n        ];\n        builderRequests[lastRequestAddress].index = indexToDelete;\n        builderRequestsArray[indexToDelete] = lastRequestAddress;\n        builderRequestsArray.pop();\n    }\n}\n",
  "sourcePath": "contracts/project/Builders.sol",
  "type": "contract"
}