{
  "abi": [
    {
      "inputs": [
        {
          "internalType": "bytes[112]",
          "name": "secret",
          "type": "bytes[112]"
        }
      ],
      "name": "acceptNode",
      "outputs": [],
      "stateMutability": "nonpayable",
      "type": "function"
    },
    {
      "inputs": [],
      "name": "activate",
      "outputs": [],
      "stateMutability": "nonpayable",
      "type": "function"
    },
    {
      "inputs": [],
      "name": "activeNodes",
      "outputs": [
        {
          "internalType": "uint32",
          "name": "",
          "type": "uint32"
        }
      ],
      "stateMutability": "view",
      "type": "function"
    },
    {
      "inputs": [],
      "name": "deactivate",
      "outputs": [],
      "stateMutability": "nonpayable",
      "type": "function"
    },
    {
      "inputs": [],
      "name": "declineNode",
      "outputs": [],
      "stateMutability": "nonpayable",
      "type": "function"
    },
    {
      "inputs": [],
      "name": "getNodeRequestsLength",
      "outputs": [
        {
          "internalType": "uint256",
          "name": "",
          "type": "uint256"
        }
      ],
      "stateMutability": "view",
      "type": "function"
    },
    {
      "inputs": [
        {
          "internalType": "address",
          "name": "_address",
          "type": "address"
        }
      ],
      "name": "getNodeSecret",
      "outputs": [
        {
          "internalType": "bytes[112]",
          "name": "",
          "type": "bytes[112]"
        }
      ],
      "stateMutability": "view",
      "type": "function"
    },
    {
      "inputs": [],
      "name": "getNodesLength",
      "outputs": [
        {
          "internalType": "uint256",
          "name": "",
          "type": "uint256"
        }
      ],
      "stateMutability": "view",
      "type": "function"
    },
    {
      "inputs": [
        {
          "internalType": "address",
          "name": "_address",
          "type": "address"
        }
      ],
      "name": "isNode",
      "outputs": [
        {
          "internalType": "bool",
          "name": "",
          "type": "bool"
        }
      ],
      "stateMutability": "view",
      "type": "function"
    },
    {
      "inputs": [],
      "name": "keyTurn",
      "outputs": [
        {
          "internalType": "uint32",
          "name": "",
          "type": "uint32"
        }
      ],
      "stateMutability": "view",
      "type": "function"
    },
    {
      "inputs": [
        {
          "internalType": "uint256",
          "name": "",
          "type": "uint256"
        }
      ],
      "name": "nodeRequests",
      "outputs": [
        {
          "internalType": "address",
          "name": "_address",
          "type": "address"
        },
        {
          "internalType": "bytes32",
          "name": "publicKey",
          "type": "bytes32"
        }
      ],
      "stateMutability": "view",
      "type": "function"
    },
    {
      "inputs": [
        {
          "internalType": "address",
          "name": "",
          "type": "address"
        }
      ],
      "name": "nodeState",
      "outputs": [
        {
          "internalType": "uint256",
          "name": "",
          "type": "uint256"
        }
      ],
      "stateMutability": "view",
      "type": "function"
    },
    {
      "inputs": [
        {
          "internalType": "uint256",
          "name": "",
          "type": "uint256"
        }
      ],
      "name": "nodesArray",
      "outputs": [
        {
          "internalType": "address",
          "name": "_address",
          "type": "address"
        },
        {
          "internalType": "bool",
          "name": "activated",
          "type": "bool"
        },
        {
          "internalType": "uint256",
          "name": "entryKeyTurn",
          "type": "uint256"
        }
      ],
      "stateMutability": "view",
      "type": "function"
    },
    {
      "inputs": [
        {
          "internalType": "bytes32",
          "name": "publicKey",
          "type": "bytes32"
        }
      ],
      "name": "requestJoinNode",
      "outputs": [],
      "stateMutability": "nonpayable",
      "type": "function"
    }
  ],
  "bytecode": "6080604052600280546001600160401b031916905534801561002057600080fd5b506110ad806100306000396000f3fe608060405234801561001057600080fd5b50600436106100ea5760003560e01c80636f2690a51161008c57806394613cd71161006657806394613cd7146101e2578063ba7925cb146101f5578063c4e10a141461020d578063e27c87a01461024557600080fd5b80636f2690a51461018857806372ab489f146101ba5780638518a047146101c257600080fd5b806313029e03116100c857806313029e03146101465780631821aa62146101585780634244609b1461016057806351b42b001461018057600080fd5b806301750152146100ef57806307f19651146101175780630f15f4c01461013c575b600080fd5b6101026100fd366004610c1f565b610258565b60405190151581526020015b60405180910390f35b6002546101279063ffffffff1681565b60405163ffffffff909116815260200161010e565b610144610277565b005b6003545b60405190815260200161010e565b60015461014a565b61017361016e366004610c1f565b610399565b60405161010e9190610c4f565b610144610504565b61019b610196366004610cd6565b61050f565b604080516001600160a01b03909316835260208301919091520161010e565b610144610547565b61014a6101d0366004610c1f565b60006020819052908152604090205481565b6101446101f0366004610cd6565b610643565b60025461012790640100000000900463ffffffff1681565b61022061021b366004610cd6565b610743565b604080516001600160a01b03909416845291151560208401529082015260600161010e565b610144610253366004610d60565b610786565b6001600160a01b03166000908152602081905260409020546003111590565b61028033610258565b6102a55760405162461bcd60e51b815260040161029c90610e4e565b60405180910390fd5b336000908152602081905260409020546001906102c490600390610eab565b815481106102d4576102d4610ec2565b6000918252602090912060729091020154600160a01b900460ff161561033c5760405162461bcd60e51b815260206004820152601760248201527f4e6f646520697320616c7265616479206163746976652e000000000000000000604482015260640161029c565b33600090815260208190526040902054600190819061035d90600390610eab565b8154811061036d5761036d610ec2565b600091825260209091206072909102018054911515600160a01b0260ff60a01b19909216919091179055565b6103a1610b3f565b6103aa82610258565b6103f65760405162461bcd60e51b815260206004820152601e60248201527f4164647265737320646f65736e27742062656c6f6e6720746f206e6f64650000604482015260640161029c565b6001600160a01b03821660009081526020819052604090205460019061041e90600390610eab565b8154811061042e5761042e610ec2565b9060005260206000209060720201600101607080602002604051908101604052809291906000905b828210156104f957838201805461046c90610ed8565b80601f016020809104026020016040519081016040528092919081815260200182805461049890610ed8565b80156104e55780601f106104ba576101008083540402835291602001916104e5565b820191906000526020600020905b8154815290600101906020018083116104c857829003601f168201915b505050505081526020019060010190610456565b505050509050919050565b61050d336109e4565b565b6003818154811061051f57600080fd5b6000918252602090912060029091020180546001909101546001600160a01b03909116915082565b61055033610258565b61056c5760405162461bcd60e51b815260040161029c90610e4e565b6003546105b45760405162461bcd60e51b81526020600482015260166024820152752737903932b8bab2b9ba103a3790383937b1b2b9b99760511b604482015260640161029c565b6002600080600360016003805490506105cd9190610eab565b815481106105dd576105dd610ec2565b600091825260208083206002909202909101546001600160a01b03168352820192909252604001902055600380548061061857610618610f12565b60008281526020812060026000199093019283020180546001600160a01b0319168155600101559055565b33600090815260208190526040902054156106a05760405162461bcd60e51b815260206004820152601d60248201527f4164647265737320616c7265616479206d61646520726571756573742e000000604482015260640161029c565b336000818152602081815260408083206001908190558151808301909252938152908101938452600380549384018155909152517fc2575a0e9e593c00f959f8c92f12db2869c3395a3b0502d05e2516446f71f85b600290920291820180546001600160a01b0319166001600160a01b0390921691909117905590517fc2575a0e9e593c00f959f8c92f12db2869c3395a3b0502d05e2516446f71f85c90910155565b6001818154811061075357600080fd5b6000918252602090912060729091020180546071909101546001600160a01b0382169250600160a01b90910460ff169083565b61078f33610258565b6107ab5760405162461bcd60e51b815260040161029c90610e4e565b6003546107f35760405162461bcd60e51b81526020600482015260166024820152752737903932b8bab2b9ba103a3790383937b1b2b9b99760511b604482015260640161029c565b600154610801906003610f28565b60038054600091829161081690600190610eab565b8154811061082657610826610ec2565b60009182526020808320600292830201546001600160a01b031684528301939093526040909101902091909155805460019190600490610875908490640100000000900463ffffffff16610f40565b92506101000a81548163ffffffff021916908363ffffffff16021790555060016040518060800160405280600360016003805490506108b49190610eab565b815481106108c4576108c4610ec2565b60009182526020808320600292830201546001600160a01b039081168552600185830181905260408087018a9052935463ffffffff64010000000090910416606090960195909552865480860188559684529281902085516072909702018054918601511515600160a01b026001600160a81b031990921696909316959095179490941781559282015191929161095f918301906070610b67565b5060609190910151607190910155600280546001919060009061098990849063ffffffff16610f40565b92506101000a81548163ffffffff021916908363ffffffff16021790555060038054806109b8576109b8610f12565b60008281526020812060026000199093019283020180546001600160a01b031916815560010155905550565b6109ed81610258565b610a395760405162461bcd60e51b815260206004820152601a60248201527f41646472657373206973206e6f742076616c6964206e6f64652e000000000000604482015260640161029c565b6001600160a01b038116600090815260208190526040902054600190610a6190600390610eab565b81548110610a7157610a71610ec2565b6000918252602090912060729091020154600160a01b900460ff16610ad85760405162461bcd60e51b815260206004820152601860248201527f4e6f646520697320616c726561647920696e6163746976650000000000000000604482015260640161029c565b6001600160a01b0381166000908152602081905260409020546001908190610b0290600390610eab565b81548110610b1257610b12610ec2565b600091825260209091206072909102018054911515600160a01b0260ff60a01b1990921691909117905550565b60405180610e0001604052806070905b6060815260200190600190039081610b4f5790505090565b8260708101928215610ba0579160200282015b82811115610ba05782518290610b909082610fb7565b5091602001919060010190610b7a565b50610bac929150610bb0565b5090565b80821115610bac576000610bc48282610bcd565b50600101610bb0565b508054610bd990610ed8565b6000825580601f10610be9575050565b601f016020900490600052602060002090810190610c079190610c0a565b50565b5b80821115610bac5760008155600101610c0b565b600060208284031215610c3157600080fd5b81356001600160a01b0381168114610c4857600080fd5b9392505050565b6020808252600090610e2083018382018584805b6070811015610cc957601f198089870301855283518051808852845b81811015610c9a578281018a01518982018b01528901610c7f565b81811115610caa57858a838b0101525b50601f0190911695909501860194509285019291850191600101610c63565b5092979650505050505050565b600060208284031215610ce857600080fd5b5035919050565b634e487b7160e01b600052604160045260246000fd5b604051610e00810167ffffffffffffffff81118282101715610d2957610d29610cef565b60405290565b604051601f8201601f1916810167ffffffffffffffff81118282101715610d5857610d58610cef565b604052919050565b60006020808385031215610d7357600080fd5b823567ffffffffffffffff80821115610d8b57600080fd5b8185019150601f8681840112610da057600080fd5b610da8610d05565b80610e00850189811115610dbb57600080fd5b855b81811015610e3f57803586811115610dd55760008081fd5b87018581018c13610de65760008081fd5b803587811115610df857610df8610cef565b610e09818801601f19168b01610d2f565b8181528d8b838501011115610e1e5760008081fd5b818b84018c83013760009181018b0191909152855250928701928701610dbd565b50909998505050505050505050565b60208082526027908201527f4f6e6c79206e6f6465732061726520616c6c6f77656420746f2065786563757460408201526632903a3434b99760c91b606082015260800190565b634e487b7160e01b600052601160045260246000fd5b600082821015610ebd57610ebd610e95565b500390565b634e487b7160e01b600052603260045260246000fd5b600181811c90821680610eec57607f821691505b602082108103610f0c57634e487b7160e01b600052602260045260246000fd5b50919050565b634e487b7160e01b600052603160045260246000fd5b60008219821115610f3b57610f3b610e95565b500190565b600063ffffffff808316818516808303821115610f5f57610f5f610e95565b01949350505050565b601f821115610fb257600081815260208120601f850160051c81016020861015610f8f5750805b601f850160051c820191505b81811015610fae57828155600101610f9b565b5050505b505050565b815167ffffffffffffffff811115610fd157610fd1610cef565b610fe581610fdf8454610ed8565b84610f68565b602080601f83116001811461101a57600084156110025750858301515b600019600386901b1c1916600185901b178555610fae565b600085815260208120601f198616915b828110156110495788860151825594840194600190910190840161102a565b50858210156110675787850151600019600388901b60f8161c191681555b5050505050600190811b0190555056fea264697066735822122082ac8b0b0be29d40f501288f6749cd969916c19a8eea502afd604015f5a9a65264736f6c634300080f0033",
  "bytecodeSha1": "8ac4a766216004c2702cf7f90722fcc34824e8f8",
  "compiler": {
    "evm_version": "istanbul",
    "optimizer": {
      "enabled": true,
      "runs": 200
    },
    "version": "0.8.15+commit.e14f2714"
  },
  "contractName": "DataProviders",
  "language": "Solidity",
  "natspec": {
    "details": "Reference data providers in the project and their requests to join the project",
    "kind": "dev",
    "methods": {
      "acceptNode(bytes[112])": {
        "notice": "Accepting first request in the stack",
        "params": {
          "secret": "sharing encrypted common secret for nodes TODO: Secret should be updated as hash of previous secret So that the node doesn't have access to previous models TODO: Should not accept node when plan is running"
        }
      },
      "activate()": {
        "notice": "Node activates itself"
      },
      "deactivate()": {
        "details": "onlyNode modifier is not required. It is checked inside _deactivateNode(...)",
        "notice": "Node deactivates itself"
      },
      "declineNode()": {
        "notice": "Declining first request in the stack"
      },
      "isNode(address)": {
        "notice": "Check if given address belongs to node",
        "params": {
          "_address": "address to check"
        }
      },
      "requestJoinNode(bytes32)": {
        "notice": "Node can request to join providing their public key.",
        "params": {
          "publicKey": "compressed public key value"
        }
      }
    },
    "version": 1
  },
  "opcodes": "PUSH1 0x80 PUSH1 0x40 MSTORE CALLVALUE DUP1 ISZERO PUSH2 0x10 JUMPI PUSH1 0x0 DUP1 REVERT JUMPDEST POP PUSH1 0x4 CALLDATASIZE LT PUSH2 0xEA JUMPI PUSH1 0x0 CALLDATALOAD PUSH1 0xE0 SHR DUP1 PUSH4 0x6F2690A5 GT PUSH2 0x8C JUMPI DUP1 PUSH4 0x94613CD7 GT PUSH2 0x66 JUMPI DUP1 PUSH4 0x94613CD7 EQ PUSH2 0x1E2 JUMPI DUP1 PUSH4 0xBA7925CB EQ PUSH2 0x1F5 JUMPI DUP1 PUSH4 0xC4E10A14 EQ PUSH2 0x20D JUMPI DUP1 PUSH4 0xE27C87A0 EQ PUSH2 0x245 JUMPI PUSH1 0x0 DUP1 REVERT JUMPDEST DUP1 PUSH4 0x6F2690A5 EQ PUSH2 0x188 JUMPI DUP1 PUSH4 0x72AB489F EQ PUSH2 0x1BA JUMPI DUP1 PUSH4 0x8518A047 EQ PUSH2 0x1C2 JUMPI PUSH1 0x0 DUP1 REVERT JUMPDEST DUP1 PUSH4 0x13029E03 GT PUSH2 0xC8 JUMPI DUP1 PUSH4 0x13029E03 EQ PUSH2 0x146 JUMPI DUP1 PUSH4 0x1821AA62 EQ PUSH2 0x158 JUMPI DUP1 PUSH4 0x4244609B EQ PUSH2 0x160 JUMPI DUP1 PUSH4 0x51B42B00 EQ PUSH2 0x180 JUMPI PUSH1 0x0 DUP1 REVERT JUMPDEST DUP1 PUSH4 0x1750152 EQ PUSH2 0xEF JUMPI DUP1 PUSH4 0x7F19651 EQ PUSH2 0x117 JUMPI DUP1 PUSH4 0xF15F4C0 EQ PUSH2 0x13C JUMPI JUMPDEST PUSH1 0x0 DUP1 REVERT JUMPDEST PUSH2 0x102 PUSH2 0xFD CALLDATASIZE PUSH1 0x4 PUSH2 0xC1F JUMP JUMPDEST PUSH2 0x258 JUMP JUMPDEST PUSH1 0x40 MLOAD SWAP1 ISZERO ISZERO DUP2 MSTORE PUSH1 0x20 ADD JUMPDEST PUSH1 0x40 MLOAD DUP1 SWAP2 SUB SWAP1 RETURN JUMPDEST PUSH1 0x2 SLOAD PUSH2 0x127 SWAP1 PUSH4 0xFFFFFFFF AND DUP2 JUMP JUMPDEST PUSH1 0x40 MLOAD PUSH4 0xFFFFFFFF SWAP1 SWAP2 AND DUP2 MSTORE PUSH1 0x20 ADD PUSH2 0x10E JUMP JUMPDEST PUSH2 0x144 PUSH2 0x277 JUMP JUMPDEST STOP JUMPDEST PUSH1 0x3 SLOAD JUMPDEST PUSH1 0x40 MLOAD SWAP1 DUP2 MSTORE PUSH1 0x20 ADD PUSH2 0x10E JUMP JUMPDEST PUSH1 0x1 SLOAD PUSH2 0x14A JUMP JUMPDEST PUSH2 0x173 PUSH2 0x16E CALLDATASIZE PUSH1 0x4 PUSH2 0xC1F JUMP JUMPDEST PUSH2 0x399 JUMP JUMPDEST PUSH1 0x40 MLOAD PUSH2 0x10E SWAP2 SWAP1 PUSH2 0xC4F JUMP JUMPDEST PUSH2 0x144 PUSH2 0x504 JUMP JUMPDEST PUSH2 0x19B PUSH2 0x196 CALLDATASIZE PUSH1 0x4 PUSH2 0xCD6 JUMP JUMPDEST PUSH2 0x50F JUMP JUMPDEST PUSH1 0x40 DUP1 MLOAD PUSH1 0x1 PUSH1 0x1 PUSH1 0xA0 SHL SUB SWAP1 SWAP4 AND DUP4 MSTORE PUSH1 0x20 DUP4 ADD SWAP2 SWAP1 SWAP2 MSTORE ADD PUSH2 0x10E JUMP JUMPDEST PUSH2 0x144 PUSH2 0x547 JUMP JUMPDEST PUSH2 0x14A PUSH2 0x1D0 CALLDATASIZE PUSH1 0x4 PUSH2 0xC1F JUMP JUMPDEST PUSH1 0x0 PUSH1 0x20 DUP2 SWAP1 MSTORE SWAP1 DUP2 MSTORE PUSH1 0x40 SWAP1 KECCAK256 SLOAD DUP2 JUMP JUMPDEST PUSH2 0x144 PUSH2 0x1F0 CALLDATASIZE PUSH1 0x4 PUSH2 0xCD6 JUMP JUMPDEST PUSH2 0x643 JUMP JUMPDEST PUSH1 0x2 SLOAD PUSH2 0x127 SWAP1 PUSH5 0x100000000 SWAP1 DIV PUSH4 0xFFFFFFFF AND DUP2 JUMP JUMPDEST PUSH2 0x220 PUSH2 0x21B CALLDATASIZE PUSH1 0x4 PUSH2 0xCD6 JUMP JUMPDEST PUSH2 0x743 JUMP JUMPDEST PUSH1 0x40 DUP1 MLOAD PUSH1 0x1 PUSH1 0x1 PUSH1 0xA0 SHL SUB SWAP1 SWAP5 AND DUP5 MSTORE SWAP2 ISZERO ISZERO PUSH1 0x20 DUP5 ADD MSTORE SWAP1 DUP3 ADD MSTORE PUSH1 0x60 ADD PUSH2 0x10E JUMP JUMPDEST PUSH2 0x144 PUSH2 0x253 CALLDATASIZE PUSH1 0x4 PUSH2 0xD60 JUMP JUMPDEST PUSH2 0x786 JUMP JUMPDEST PUSH1 0x1 PUSH1 0x1 PUSH1 0xA0 SHL SUB AND PUSH1 0x0 SWAP1 DUP2 MSTORE PUSH1 0x20 DUP2 SWAP1 MSTORE PUSH1 0x40 SWAP1 KECCAK256 SLOAD PUSH1 0x3 GT ISZERO SWAP1 JUMP JUMPDEST PUSH2 0x280 CALLER PUSH2 0x258 JUMP JUMPDEST PUSH2 0x2A5 JUMPI PUSH1 0x40 MLOAD PUSH3 0x461BCD PUSH1 0xE5 SHL DUP2 MSTORE PUSH1 0x4 ADD PUSH2 0x29C SWAP1 PUSH2 0xE4E JUMP JUMPDEST PUSH1 0x40 MLOAD DUP1 SWAP2 SUB SWAP1 REVERT JUMPDEST CALLER PUSH1 0x0 SWAP1 DUP2 MSTORE PUSH1 0x20 DUP2 SWAP1 MSTORE PUSH1 0x40 SWAP1 KECCAK256 SLOAD PUSH1 0x1 SWAP1 PUSH2 0x2C4 SWAP1 PUSH1 0x3 SWAP1 PUSH2 0xEAB JUMP JUMPDEST DUP2 SLOAD DUP2 LT PUSH2 0x2D4 JUMPI PUSH2 0x2D4 PUSH2 0xEC2 JUMP JUMPDEST PUSH1 0x0 SWAP2 DUP3 MSTORE PUSH1 0x20 SWAP1 SWAP2 KECCAK256 PUSH1 0x72 SWAP1 SWAP2 MUL ADD SLOAD PUSH1 0x1 PUSH1 0xA0 SHL SWAP1 DIV PUSH1 0xFF AND ISZERO PUSH2 0x33C JUMPI PUSH1 0x40 MLOAD PUSH3 0x461BCD PUSH1 0xE5 SHL DUP2 MSTORE PUSH1 0x20 PUSH1 0x4 DUP3 ADD MSTORE PUSH1 0x17 PUSH1 0x24 DUP3 ADD MSTORE PUSH32 0x4E6F646520697320616C7265616479206163746976652E000000000000000000 PUSH1 0x44 DUP3 ADD MSTORE PUSH1 0x64 ADD PUSH2 0x29C JUMP JUMPDEST CALLER PUSH1 0x0 SWAP1 DUP2 MSTORE PUSH1 0x20 DUP2 SWAP1 MSTORE PUSH1 0x40 SWAP1 KECCAK256 SLOAD PUSH1 0x1 SWAP1 DUP2 SWAP1 PUSH2 0x35D SWAP1 PUSH1 0x3 SWAP1 PUSH2 0xEAB JUMP JUMPDEST DUP2 SLOAD DUP2 LT PUSH2 0x36D JUMPI PUSH2 0x36D PUSH2 0xEC2 JUMP JUMPDEST PUSH1 0x0 SWAP2 DUP3 MSTORE PUSH1 0x20 SWAP1 SWAP2 KECCAK256 PUSH1 0x72 SWAP1 SWAP2 MUL ADD DUP1 SLOAD SWAP2 ISZERO ISZERO PUSH1 0x1 PUSH1 0xA0 SHL MUL PUSH1 0xFF PUSH1 0xA0 SHL NOT SWAP1 SWAP3 AND SWAP2 SWAP1 SWAP2 OR SWAP1 SSTORE JUMP JUMPDEST PUSH2 0x3A1 PUSH2 0xB3F JUMP JUMPDEST PUSH2 0x3AA DUP3 PUSH2 0x258 JUMP JUMPDEST PUSH2 0x3F6 JUMPI PUSH1 0x40 MLOAD PUSH3 0x461BCD PUSH1 0xE5 SHL DUP2 MSTORE PUSH1 0x20 PUSH1 0x4 DUP3 ADD MSTORE PUSH1 0x1E PUSH1 0x24 DUP3 ADD MSTORE PUSH32 0x4164647265737320646F65736E27742062656C6F6E6720746F206E6F64650000 PUSH1 0x44 DUP3 ADD MSTORE PUSH1 0x64 ADD PUSH2 0x29C JUMP JUMPDEST PUSH1 0x1 PUSH1 0x1 PUSH1 0xA0 SHL SUB DUP3 AND PUSH1 0x0 SWAP1 DUP2 MSTORE PUSH1 0x20 DUP2 SWAP1 MSTORE PUSH1 0x40 SWAP1 KECCAK256 SLOAD PUSH1 0x1 SWAP1 PUSH2 0x41E SWAP1 PUSH1 0x3 SWAP1 PUSH2 0xEAB JUMP JUMPDEST DUP2 SLOAD DUP2 LT PUSH2 0x42E JUMPI PUSH2 0x42E PUSH2 0xEC2 JUMP JUMPDEST SWAP1 PUSH1 0x0 MSTORE PUSH1 0x20 PUSH1 0x0 KECCAK256 SWAP1 PUSH1 0x72 MUL ADD PUSH1 0x1 ADD PUSH1 0x70 DUP1 PUSH1 0x20 MUL PUSH1 0x40 MLOAD SWAP1 DUP2 ADD PUSH1 0x40 MSTORE DUP1 SWAP3 SWAP2 SWAP1 PUSH1 0x0 SWAP1 JUMPDEST DUP3 DUP3 LT ISZERO PUSH2 0x4F9 JUMPI DUP4 DUP3 ADD DUP1 SLOAD PUSH2 0x46C SWAP1 PUSH2 0xED8 JUMP JUMPDEST DUP1 PUSH1 0x1F ADD PUSH1 0x20 DUP1 SWAP2 DIV MUL PUSH1 0x20 ADD PUSH1 0x40 MLOAD SWAP1 DUP2 ADD PUSH1 0x40 MSTORE DUP1 SWAP3 SWAP2 SWAP1 DUP2 DUP2 MSTORE PUSH1 0x20 ADD DUP3 DUP1 SLOAD PUSH2 0x498 SWAP1 PUSH2 0xED8 JUMP JUMPDEST DUP1 ISZERO PUSH2 0x4E5 JUMPI DUP1 PUSH1 0x1F LT PUSH2 0x4BA JUMPI PUSH2 0x100 DUP1 DUP4 SLOAD DIV MUL DUP4 MSTORE SWAP2 PUSH1 0x20 ADD SWAP2 PUSH2 0x4E5 JUMP JUMPDEST DUP3 ADD SWAP2 SWAP1 PUSH1 0x0 MSTORE PUSH1 0x20 PUSH1 0x0 KECCAK256 SWAP1 JUMPDEST DUP2 SLOAD DUP2 MSTORE SWAP1 PUSH1 0x1 ADD SWAP1 PUSH1 0x20 ADD DUP1 DUP4 GT PUSH2 0x4C8 JUMPI DUP3 SWAP1 SUB PUSH1 0x1F AND DUP3 ADD SWAP2 JUMPDEST POP POP POP POP POP DUP2 MSTORE PUSH1 0x20 ADD SWAP1 PUSH1 0x1 ADD SWAP1 PUSH2 0x456 JUMP JUMPDEST POP POP POP POP SWAP1 POP SWAP2 SWAP1 POP JUMP JUMPDEST PUSH2 0x50D CALLER PUSH2 0x9E4 JUMP JUMPDEST JUMP JUMPDEST PUSH1 0x3 DUP2 DUP2 SLOAD DUP2 LT PUSH2 0x51F JUMPI PUSH1 0x0 DUP1 REVERT JUMPDEST PUSH1 0x0 SWAP2 DUP3 MSTORE PUSH1 0x20 SWAP1 SWAP2 KECCAK256 PUSH1 0x2 SWAP1 SWAP2 MUL ADD DUP1 SLOAD PUSH1 0x1 SWAP1 SWAP2 ADD SLOAD PUSH1 0x1 PUSH1 0x1 PUSH1 0xA0 SHL SUB SWAP1 SWAP2 AND SWAP2 POP DUP3 JUMP JUMPDEST PUSH2 0x550 CALLER PUSH2 0x258 JUMP JUMPDEST PUSH2 0x56C JUMPI PUSH1 0x40 MLOAD PUSH3 0x461BCD PUSH1 0xE5 SHL DUP2 MSTORE PUSH1 0x4 ADD PUSH2 0x29C SWAP1 PUSH2 0xE4E JUMP JUMPDEST PUSH1 0x3 SLOAD PUSH2 0x5B4 JUMPI PUSH1 0x40 MLOAD PUSH3 0x461BCD PUSH1 0xE5 SHL DUP2 MSTORE PUSH1 0x20 PUSH1 0x4 DUP3 ADD MSTORE PUSH1 0x16 PUSH1 0x24 DUP3 ADD MSTORE PUSH22 0x2737903932B8BAB2B9BA103A3790383937B1B2B9B997 PUSH1 0x51 SHL PUSH1 0x44 DUP3 ADD MSTORE PUSH1 0x64 ADD PUSH2 0x29C JUMP JUMPDEST PUSH1 0x2 PUSH1 0x0 DUP1 PUSH1 0x3 PUSH1 0x1 PUSH1 0x3 DUP1 SLOAD SWAP1 POP PUSH2 0x5CD SWAP2 SWAP1 PUSH2 0xEAB JUMP JUMPDEST DUP2 SLOAD DUP2 LT PUSH2 0x5DD JUMPI PUSH2 0x5DD PUSH2 0xEC2 JUMP JUMPDEST PUSH1 0x0 SWAP2 DUP3 MSTORE PUSH1 0x20 DUP1 DUP4 KECCAK256 PUSH1 0x2 SWAP1 SWAP3 MUL SWAP1 SWAP2 ADD SLOAD PUSH1 0x1 PUSH1 0x1 PUSH1 0xA0 SHL SUB AND DUP4 MSTORE DUP3 ADD SWAP3 SWAP1 SWAP3 MSTORE PUSH1 0x40 ADD SWAP1 KECCAK256 SSTORE PUSH1 0x3 DUP1 SLOAD DUP1 PUSH2 0x618 JUMPI PUSH2 0x618 PUSH2 0xF12 JUMP JUMPDEST PUSH1 0x0 DUP3 DUP2 MSTORE PUSH1 0x20 DUP2 KECCAK256 PUSH1 0x2 PUSH1 0x0 NOT SWAP1 SWAP4 ADD SWAP3 DUP4 MUL ADD DUP1 SLOAD PUSH1 0x1 PUSH1 0x1 PUSH1 0xA0 SHL SUB NOT AND DUP2 SSTORE PUSH1 0x1 ADD SSTORE SWAP1 SSTORE JUMP JUMPDEST CALLER PUSH1 0x0 SWAP1 DUP2 MSTORE PUSH1 0x20 DUP2 SWAP1 MSTORE PUSH1 0x40 SWAP1 KECCAK256 SLOAD ISZERO PUSH2 0x6A0 JUMPI PUSH1 0x40 MLOAD PUSH3 0x461BCD PUSH1 0xE5 SHL DUP2 MSTORE PUSH1 0x20 PUSH1 0x4 DUP3 ADD MSTORE PUSH1 0x1D PUSH1 0x24 DUP3 ADD MSTORE PUSH32 0x4164647265737320616C7265616479206D61646520726571756573742E000000 PUSH1 0x44 DUP3 ADD MSTORE PUSH1 0x64 ADD PUSH2 0x29C JUMP JUMPDEST CALLER PUSH1 0x0 DUP2 DUP2 MSTORE PUSH1 0x20 DUP2 DUP2 MSTORE PUSH1 0x40 DUP1 DUP4 KECCAK256 PUSH1 0x1 SWAP1 DUP2 SWAP1 SSTORE DUP2 MLOAD DUP1 DUP4 ADD SWAP1 SWAP3 MSTORE SWAP4 DUP2 MSTORE SWAP1 DUP2 ADD SWAP4 DUP5 MSTORE PUSH1 0x3 DUP1 SLOAD SWAP4 DUP5 ADD DUP2 SSTORE SWAP1 SWAP2 MSTORE MLOAD PUSH32 0xC2575A0E9E593C00F959F8C92F12DB2869C3395A3B0502D05E2516446F71F85B PUSH1 0x2 SWAP1 SWAP3 MUL SWAP2 DUP3 ADD DUP1 SLOAD PUSH1 0x1 PUSH1 0x1 PUSH1 0xA0 SHL SUB NOT AND PUSH1 0x1 PUSH1 0x1 PUSH1 0xA0 SHL SUB SWAP1 SWAP3 AND SWAP2 SWAP1 SWAP2 OR SWAP1 SSTORE SWAP1 MLOAD PUSH32 0xC2575A0E9E593C00F959F8C92F12DB2869C3395A3B0502D05E2516446F71F85C SWAP1 SWAP2 ADD SSTORE JUMP JUMPDEST PUSH1 0x1 DUP2 DUP2 SLOAD DUP2 LT PUSH2 0x753 JUMPI PUSH1 0x0 DUP1 REVERT JUMPDEST PUSH1 0x0 SWAP2 DUP3 MSTORE PUSH1 0x20 SWAP1 SWAP2 KECCAK256 PUSH1 0x72 SWAP1 SWAP2 MUL ADD DUP1 SLOAD PUSH1 0x71 SWAP1 SWAP2 ADD SLOAD PUSH1 0x1 PUSH1 0x1 PUSH1 0xA0 SHL SUB DUP3 AND SWAP3 POP PUSH1 0x1 PUSH1 0xA0 SHL SWAP1 SWAP2 DIV PUSH1 0xFF AND SWAP1 DUP4 JUMP JUMPDEST PUSH2 0x78F CALLER PUSH2 0x258 JUMP JUMPDEST PUSH2 0x7AB JUMPI PUSH1 0x40 MLOAD PUSH3 0x461BCD PUSH1 0xE5 SHL DUP2 MSTORE PUSH1 0x4 ADD PUSH2 0x29C SWAP1 PUSH2 0xE4E JUMP JUMPDEST PUSH1 0x3 SLOAD PUSH2 0x7F3 JUMPI PUSH1 0x40 MLOAD PUSH3 0x461BCD PUSH1 0xE5 SHL DUP2 MSTORE PUSH1 0x20 PUSH1 0x4 DUP3 ADD MSTORE PUSH1 0x16 PUSH1 0x24 DUP3 ADD MSTORE PUSH22 0x2737903932B8BAB2B9BA103A3790383937B1B2B9B997 PUSH1 0x51 SHL PUSH1 0x44 DUP3 ADD MSTORE PUSH1 0x64 ADD PUSH2 0x29C JUMP JUMPDEST PUSH1 0x1 SLOAD PUSH2 0x801 SWAP1 PUSH1 0x3 PUSH2 0xF28 JUMP JUMPDEST PUSH1 0x3 DUP1 SLOAD PUSH1 0x0 SWAP2 DUP3 SWAP2 PUSH2 0x816 SWAP1 PUSH1 0x1 SWAP1 PUSH2 0xEAB JUMP JUMPDEST DUP2 SLOAD DUP2 LT PUSH2 0x826 JUMPI PUSH2 0x826 PUSH2 0xEC2 JUMP JUMPDEST PUSH1 0x0 SWAP2 DUP3 MSTORE PUSH1 0x20 DUP1 DUP4 KECCAK256 PUSH1 0x2 SWAP3 DUP4 MUL ADD SLOAD PUSH1 0x1 PUSH1 0x1 PUSH1 0xA0 SHL SUB AND DUP5 MSTORE DUP4 ADD SWAP4 SWAP1 SWAP4 MSTORE PUSH1 0x40 SWAP1 SWAP2 ADD SWAP1 KECCAK256 SWAP2 SWAP1 SWAP2 SSTORE DUP1 SLOAD PUSH1 0x1 SWAP2 SWAP1 PUSH1 0x4 SWAP1 PUSH2 0x875 SWAP1 DUP5 SWAP1 PUSH5 0x100000000 SWAP1 DIV PUSH4 0xFFFFFFFF AND PUSH2 0xF40 JUMP JUMPDEST SWAP3 POP PUSH2 0x100 EXP DUP2 SLOAD DUP2 PUSH4 0xFFFFFFFF MUL NOT AND SWAP1 DUP4 PUSH4 0xFFFFFFFF AND MUL OR SWAP1 SSTORE POP PUSH1 0x1 PUSH1 0x40 MLOAD DUP1 PUSH1 0x80 ADD PUSH1 0x40 MSTORE DUP1 PUSH1 0x3 PUSH1 0x1 PUSH1 0x3 DUP1 SLOAD SWAP1 POP PUSH2 0x8B4 SWAP2 SWAP1 PUSH2 0xEAB JUMP JUMPDEST DUP2 SLOAD DUP2 LT PUSH2 0x8C4 JUMPI PUSH2 0x8C4 PUSH2 0xEC2 JUMP JUMPDEST PUSH1 0x0 SWAP2 DUP3 MSTORE PUSH1 0x20 DUP1 DUP4 KECCAK256 PUSH1 0x2 SWAP3 DUP4 MUL ADD SLOAD PUSH1 0x1 PUSH1 0x1 PUSH1 0xA0 SHL SUB SWAP1 DUP2 AND DUP6 MSTORE PUSH1 0x1 DUP6 DUP4 ADD DUP2 SWAP1 MSTORE PUSH1 0x40 DUP1 DUP8 ADD DUP11 SWAP1 MSTORE SWAP4 SLOAD PUSH4 0xFFFFFFFF PUSH5 0x100000000 SWAP1 SWAP2 DIV AND PUSH1 0x60 SWAP1 SWAP7 ADD SWAP6 SWAP1 SWAP6 MSTORE DUP7 SLOAD DUP1 DUP7 ADD DUP9 SSTORE SWAP7 DUP5 MSTORE SWAP3 DUP2 SWAP1 KECCAK256 DUP6 MLOAD PUSH1 0x72 SWAP1 SWAP8 MUL ADD DUP1 SLOAD SWAP2 DUP7 ADD MLOAD ISZERO ISZERO PUSH1 0x1 PUSH1 0xA0 SHL MUL PUSH1 0x1 PUSH1 0x1 PUSH1 0xA8 SHL SUB NOT SWAP1 SWAP3 AND SWAP7 SWAP1 SWAP4 AND SWAP6 SWAP1 SWAP6 OR SWAP5 SWAP1 SWAP5 OR DUP2 SSTORE SWAP3 DUP3 ADD MLOAD SWAP2 SWAP3 SWAP2 PUSH2 0x95F SWAP2 DUP4 ADD SWAP1 PUSH1 0x70 PUSH2 0xB67 JUMP JUMPDEST POP PUSH1 0x60 SWAP2 SWAP1 SWAP2 ADD MLOAD PUSH1 0x71 SWAP1 SWAP2 ADD SSTORE PUSH1 0x2 DUP1 SLOAD PUSH1 0x1 SWAP2 SWAP1 PUSH1 0x0 SWAP1 PUSH2 0x989 SWAP1 DUP5 SWAP1 PUSH4 0xFFFFFFFF AND PUSH2 0xF40 JUMP JUMPDEST SWAP3 POP PUSH2 0x100 EXP DUP2 SLOAD DUP2 PUSH4 0xFFFFFFFF MUL NOT AND SWAP1 DUP4 PUSH4 0xFFFFFFFF AND MUL OR SWAP1 SSTORE POP PUSH1 0x3 DUP1 SLOAD DUP1 PUSH2 0x9B8 JUMPI PUSH2 0x9B8 PUSH2 0xF12 JUMP JUMPDEST PUSH1 0x0 DUP3 DUP2 MSTORE PUSH1 0x20 DUP2 KECCAK256 PUSH1 0x2 PUSH1 0x0 NOT SWAP1 SWAP4 ADD SWAP3 DUP4 MUL ADD DUP1 SLOAD PUSH1 0x1 PUSH1 0x1 PUSH1 0xA0 SHL SUB NOT AND DUP2 SSTORE PUSH1 0x1 ADD SSTORE SWAP1 SSTORE POP JUMP JUMPDEST PUSH2 0x9ED DUP2 PUSH2 0x258 JUMP JUMPDEST PUSH2 0xA39 JUMPI PUSH1 0x40 MLOAD PUSH3 0x461BCD PUSH1 0xE5 SHL DUP2 MSTORE PUSH1 0x20 PUSH1 0x4 DUP3 ADD MSTORE PUSH1 0x1A PUSH1 0x24 DUP3 ADD MSTORE PUSH32 0x41646472657373206973206E6F742076616C6964206E6F64652E000000000000 PUSH1 0x44 DUP3 ADD MSTORE PUSH1 0x64 ADD PUSH2 0x29C JUMP JUMPDEST PUSH1 0x1 PUSH1 0x1 PUSH1 0xA0 SHL SUB DUP2 AND PUSH1 0x0 SWAP1 DUP2 MSTORE PUSH1 0x20 DUP2 SWAP1 MSTORE PUSH1 0x40 SWAP1 KECCAK256 SLOAD PUSH1 0x1 SWAP1 PUSH2 0xA61 SWAP1 PUSH1 0x3 SWAP1 PUSH2 0xEAB JUMP JUMPDEST DUP2 SLOAD DUP2 LT PUSH2 0xA71 JUMPI PUSH2 0xA71 PUSH2 0xEC2 JUMP JUMPDEST PUSH1 0x0 SWAP2 DUP3 MSTORE PUSH1 0x20 SWAP1 SWAP2 KECCAK256 PUSH1 0x72 SWAP1 SWAP2 MUL ADD SLOAD PUSH1 0x1 PUSH1 0xA0 SHL SWAP1 DIV PUSH1 0xFF AND PUSH2 0xAD8 JUMPI PUSH1 0x40 MLOAD PUSH3 0x461BCD PUSH1 0xE5 SHL DUP2 MSTORE PUSH1 0x20 PUSH1 0x4 DUP3 ADD MSTORE PUSH1 0x18 PUSH1 0x24 DUP3 ADD MSTORE PUSH32 0x4E6F646520697320616C726561647920696E6163746976650000000000000000 PUSH1 0x44 DUP3 ADD MSTORE PUSH1 0x64 ADD PUSH2 0x29C JUMP JUMPDEST PUSH1 0x1 PUSH1 0x1 PUSH1 0xA0 SHL SUB DUP2 AND PUSH1 0x0 SWAP1 DUP2 MSTORE PUSH1 0x20 DUP2 SWAP1 MSTORE PUSH1 0x40 SWAP1 KECCAK256 SLOAD PUSH1 0x1 SWAP1 DUP2 SWAP1 PUSH2 0xB02 SWAP1 PUSH1 0x3 SWAP1 PUSH2 0xEAB JUMP JUMPDEST DUP2 SLOAD DUP2 LT PUSH2 0xB12 JUMPI PUSH2 0xB12 PUSH2 0xEC2 JUMP JUMPDEST PUSH1 0x0 SWAP2 DUP3 MSTORE PUSH1 0x20 SWAP1 SWAP2 KECCAK256 PUSH1 0x72 SWAP1 SWAP2 MUL ADD DUP1 SLOAD SWAP2 ISZERO ISZERO PUSH1 0x1 PUSH1 0xA0 SHL MUL PUSH1 0xFF PUSH1 0xA0 SHL NOT SWAP1 SWAP3 AND SWAP2 SWAP1 SWAP2 OR SWAP1 SSTORE POP JUMP JUMPDEST PUSH1 0x40 MLOAD DUP1 PUSH2 0xE00 ADD PUSH1 0x40 MSTORE DUP1 PUSH1 0x70 SWAP1 JUMPDEST PUSH1 0x60 DUP2 MSTORE PUSH1 0x20 ADD SWAP1 PUSH1 0x1 SWAP1 SUB SWAP1 DUP2 PUSH2 0xB4F JUMPI SWAP1 POP POP SWAP1 JUMP JUMPDEST DUP3 PUSH1 0x70 DUP2 ADD SWAP3 DUP3 ISZERO PUSH2 0xBA0 JUMPI SWAP2 PUSH1 0x20 MUL DUP3 ADD JUMPDEST DUP3 DUP2 GT ISZERO PUSH2 0xBA0 JUMPI DUP3 MLOAD DUP3 SWAP1 PUSH2 0xB90 SWAP1 DUP3 PUSH2 0xFB7 JUMP JUMPDEST POP SWAP2 PUSH1 0x20 ADD SWAP2 SWAP1 PUSH1 0x1 ADD SWAP1 PUSH2 0xB7A JUMP JUMPDEST POP PUSH2 0xBAC SWAP3 SWAP2 POP PUSH2 0xBB0 JUMP JUMPDEST POP SWAP1 JUMP JUMPDEST DUP1 DUP3 GT ISZERO PUSH2 0xBAC JUMPI PUSH1 0x0 PUSH2 0xBC4 DUP3 DUP3 PUSH2 0xBCD JUMP JUMPDEST POP PUSH1 0x1 ADD PUSH2 0xBB0 JUMP JUMPDEST POP DUP1 SLOAD PUSH2 0xBD9 SWAP1 PUSH2 0xED8 JUMP JUMPDEST PUSH1 0x0 DUP3 SSTORE DUP1 PUSH1 0x1F LT PUSH2 0xBE9 JUMPI POP POP JUMP JUMPDEST PUSH1 0x1F ADD PUSH1 0x20 SWAP1 DIV SWAP1 PUSH1 0x0 MSTORE PUSH1 0x20 PUSH1 0x0 KECCAK256 SWAP1 DUP2 ADD SWAP1 PUSH2 0xC07 SWAP2 SWAP1 PUSH2 0xC0A JUMP JUMPDEST POP JUMP JUMPDEST JUMPDEST DUP1 DUP3 GT ISZERO PUSH2 0xBAC JUMPI PUSH1 0x0 DUP2 SSTORE PUSH1 0x1 ADD PUSH2 0xC0B JUMP JUMPDEST PUSH1 0x0 PUSH1 0x20 DUP3 DUP5 SUB SLT ISZERO PUSH2 0xC31 JUMPI PUSH1 0x0 DUP1 REVERT JUMPDEST DUP2 CALLDATALOAD PUSH1 0x1 PUSH1 0x1 PUSH1 0xA0 SHL SUB DUP2 AND DUP2 EQ PUSH2 0xC48 JUMPI PUSH1 0x0 DUP1 REVERT JUMPDEST SWAP4 SWAP3 POP POP POP JUMP JUMPDEST PUSH1 0x20 DUP1 DUP3 MSTORE PUSH1 0x0 SWAP1 PUSH2 0xE20 DUP4 ADD DUP4 DUP3 ADD DUP6 DUP5 DUP1 JUMPDEST PUSH1 0x70 DUP2 LT ISZERO PUSH2 0xCC9 JUMPI PUSH1 0x1F NOT DUP1 DUP10 DUP8 SUB ADD DUP6 MSTORE DUP4 MLOAD DUP1 MLOAD DUP1 DUP9 MSTORE DUP5 JUMPDEST DUP2 DUP2 LT ISZERO PUSH2 0xC9A JUMPI DUP3 DUP2 ADD DUP11 ADD MLOAD DUP10 DUP3 ADD DUP12 ADD MSTORE DUP10 ADD PUSH2 0xC7F JUMP JUMPDEST DUP2 DUP2 GT ISZERO PUSH2 0xCAA JUMPI DUP6 DUP11 DUP4 DUP12 ADD ADD MSTORE JUMPDEST POP PUSH1 0x1F ADD SWAP1 SWAP2 AND SWAP6 SWAP1 SWAP6 ADD DUP7 ADD SWAP5 POP SWAP3 DUP6 ADD SWAP3 SWAP2 DUP6 ADD SWAP2 PUSH1 0x1 ADD PUSH2 0xC63 JUMP JUMPDEST POP SWAP3 SWAP8 SWAP7 POP POP POP POP POP POP POP JUMP JUMPDEST PUSH1 0x0 PUSH1 0x20 DUP3 DUP5 SUB SLT ISZERO PUSH2 0xCE8 JUMPI PUSH1 0x0 DUP1 REVERT JUMPDEST POP CALLDATALOAD SWAP2 SWAP1 POP JUMP JUMPDEST PUSH4 0x4E487B71 PUSH1 0xE0 SHL PUSH1 0x0 MSTORE PUSH1 0x41 PUSH1 0x4 MSTORE PUSH1 0x24 PUSH1 0x0 REVERT JUMPDEST PUSH1 0x40 MLOAD PUSH2 0xE00 DUP2 ADD PUSH8 0xFFFFFFFFFFFFFFFF DUP2 GT DUP3 DUP3 LT OR ISZERO PUSH2 0xD29 JUMPI PUSH2 0xD29 PUSH2 0xCEF JUMP JUMPDEST PUSH1 0x40 MSTORE SWAP1 JUMP JUMPDEST PUSH1 0x40 MLOAD PUSH1 0x1F DUP3 ADD PUSH1 0x1F NOT AND DUP2 ADD PUSH8 0xFFFFFFFFFFFFFFFF DUP2 GT DUP3 DUP3 LT OR ISZERO PUSH2 0xD58 JUMPI PUSH2 0xD58 PUSH2 0xCEF JUMP JUMPDEST PUSH1 0x40 MSTORE SWAP2 SWAP1 POP JUMP JUMPDEST PUSH1 0x0 PUSH1 0x20 DUP1 DUP4 DUP6 SUB SLT ISZERO PUSH2 0xD73 JUMPI PUSH1 0x0 DUP1 REVERT JUMPDEST DUP3 CALLDATALOAD PUSH8 0xFFFFFFFFFFFFFFFF DUP1 DUP3 GT ISZERO PUSH2 0xD8B JUMPI PUSH1 0x0 DUP1 REVERT JUMPDEST DUP2 DUP6 ADD SWAP2 POP PUSH1 0x1F DUP7 DUP2 DUP5 ADD SLT PUSH2 0xDA0 JUMPI PUSH1 0x0 DUP1 REVERT JUMPDEST PUSH2 0xDA8 PUSH2 0xD05 JUMP JUMPDEST DUP1 PUSH2 0xE00 DUP6 ADD DUP10 DUP2 GT ISZERO PUSH2 0xDBB JUMPI PUSH1 0x0 DUP1 REVERT JUMPDEST DUP6 JUMPDEST DUP2 DUP2 LT ISZERO PUSH2 0xE3F JUMPI DUP1 CALLDATALOAD DUP7 DUP2 GT ISZERO PUSH2 0xDD5 JUMPI PUSH1 0x0 DUP1 DUP2 REVERT JUMPDEST DUP8 ADD DUP6 DUP2 ADD DUP13 SGT PUSH2 0xDE6 JUMPI PUSH1 0x0 DUP1 DUP2 REVERT JUMPDEST DUP1 CALLDATALOAD DUP8 DUP2 GT ISZERO PUSH2 0xDF8 JUMPI PUSH2 0xDF8 PUSH2 0xCEF JUMP JUMPDEST PUSH2 0xE09 DUP2 DUP9 ADD PUSH1 0x1F NOT AND DUP12 ADD PUSH2 0xD2F JUMP JUMPDEST DUP2 DUP2 MSTORE DUP14 DUP12 DUP4 DUP6 ADD ADD GT ISZERO PUSH2 0xE1E JUMPI PUSH1 0x0 DUP1 DUP2 REVERT JUMPDEST DUP2 DUP12 DUP5 ADD DUP13 DUP4 ADD CALLDATACOPY PUSH1 0x0 SWAP2 DUP2 ADD DUP12 ADD SWAP2 SWAP1 SWAP2 MSTORE DUP6 MSTORE POP SWAP3 DUP8 ADD SWAP3 DUP8 ADD PUSH2 0xDBD JUMP JUMPDEST POP SWAP1 SWAP10 SWAP9 POP POP POP POP POP POP POP POP POP JUMP JUMPDEST PUSH1 0x20 DUP1 DUP3 MSTORE PUSH1 0x27 SWAP1 DUP3 ADD MSTORE PUSH32 0x4F6E6C79206E6F6465732061726520616C6C6F77656420746F20657865637574 PUSH1 0x40 DUP3 ADD MSTORE PUSH7 0x32903A3434B997 PUSH1 0xC9 SHL PUSH1 0x60 DUP3 ADD MSTORE PUSH1 0x80 ADD SWAP1 JUMP JUMPDEST PUSH4 0x4E487B71 PUSH1 0xE0 SHL PUSH1 0x0 MSTORE PUSH1 0x11 PUSH1 0x4 MSTORE PUSH1 0x24 PUSH1 0x0 REVERT JUMPDEST PUSH1 0x0 DUP3 DUP3 LT ISZERO PUSH2 0xEBD JUMPI PUSH2 0xEBD PUSH2 0xE95 JUMP JUMPDEST POP SUB SWAP1 JUMP JUMPDEST PUSH4 0x4E487B71 PUSH1 0xE0 SHL PUSH1 0x0 MSTORE PUSH1 0x32 PUSH1 0x4 MSTORE PUSH1 0x24 PUSH1 0x0 REVERT JUMPDEST PUSH1 0x1 DUP2 DUP2 SHR SWAP1 DUP3 AND DUP1 PUSH2 0xEEC JUMPI PUSH1 0x7F DUP3 AND SWAP2 POP JUMPDEST PUSH1 0x20 DUP3 LT DUP2 SUB PUSH2 0xF0C JUMPI PUSH4 0x4E487B71 PUSH1 0xE0 SHL PUSH1 0x0 MSTORE PUSH1 0x22 PUSH1 0x4 MSTORE PUSH1 0x24 PUSH1 0x0 REVERT JUMPDEST POP SWAP2 SWAP1 POP JUMP JUMPDEST PUSH4 0x4E487B71 PUSH1 0xE0 SHL PUSH1 0x0 MSTORE PUSH1 0x31 PUSH1 0x4 MSTORE PUSH1 0x24 PUSH1 0x0 REVERT JUMPDEST PUSH1 0x0 DUP3 NOT DUP3 GT ISZERO PUSH2 0xF3B JUMPI PUSH2 0xF3B PUSH2 0xE95 JUMP JUMPDEST POP ADD SWAP1 JUMP JUMPDEST PUSH1 0x0 PUSH4 0xFFFFFFFF DUP1 DUP4 AND DUP2 DUP6 AND DUP1 DUP4 SUB DUP3 GT ISZERO PUSH2 0xF5F JUMPI PUSH2 0xF5F PUSH2 0xE95 JUMP JUMPDEST ADD SWAP5 SWAP4 POP POP POP POP JUMP JUMPDEST PUSH1 0x1F DUP3 GT ISZERO PUSH2 0xFB2 JUMPI PUSH1 0x0 DUP2 DUP2 MSTORE PUSH1 0x20 DUP2 KECCAK256 PUSH1 0x1F DUP6 ADD PUSH1 0x5 SHR DUP2 ADD PUSH1 0x20 DUP7 LT ISZERO PUSH2 0xF8F JUMPI POP DUP1 JUMPDEST PUSH1 0x1F DUP6 ADD PUSH1 0x5 SHR DUP3 ADD SWAP2 POP JUMPDEST DUP2 DUP2 LT ISZERO PUSH2 0xFAE JUMPI DUP3 DUP2 SSTORE PUSH1 0x1 ADD PUSH2 0xF9B JUMP JUMPDEST POP POP POP JUMPDEST POP POP POP JUMP JUMPDEST DUP2 MLOAD PUSH8 0xFFFFFFFFFFFFFFFF DUP2 GT ISZERO PUSH2 0xFD1 JUMPI PUSH2 0xFD1 PUSH2 0xCEF JUMP JUMPDEST PUSH2 0xFE5 DUP2 PUSH2 0xFDF DUP5 SLOAD PUSH2 0xED8 JUMP JUMPDEST DUP5 PUSH2 0xF68 JUMP JUMPDEST PUSH1 0x20 DUP1 PUSH1 0x1F DUP4 GT PUSH1 0x1 DUP2 EQ PUSH2 0x101A JUMPI PUSH1 0x0 DUP5 ISZERO PUSH2 0x1002 JUMPI POP DUP6 DUP4 ADD MLOAD JUMPDEST PUSH1 0x0 NOT PUSH1 0x3 DUP7 SWAP1 SHL SHR NOT AND PUSH1 0x1 DUP6 SWAP1 SHL OR DUP6 SSTORE PUSH2 0xFAE JUMP JUMPDEST PUSH1 0x0 DUP6 DUP2 MSTORE PUSH1 0x20 DUP2 KECCAK256 PUSH1 0x1F NOT DUP7 AND SWAP2 JUMPDEST DUP3 DUP2 LT ISZERO PUSH2 0x1049 JUMPI DUP9 DUP7 ADD MLOAD DUP3 SSTORE SWAP5 DUP5 ADD SWAP5 PUSH1 0x1 SWAP1 SWAP2 ADD SWAP1 DUP5 ADD PUSH2 0x102A JUMP JUMPDEST POP DUP6 DUP3 LT ISZERO PUSH2 0x1067 JUMPI DUP8 DUP6 ADD MLOAD PUSH1 0x0 NOT PUSH1 0x3 DUP9 SWAP1 SHL PUSH1 0xF8 AND SHR NOT AND DUP2 SSTORE JUMPDEST POP POP POP POP POP PUSH1 0x1 SWAP1 DUP2 SHL ADD SWAP1 SSTORE POP JUMP INVALID LOG2 PUSH5 0x6970667358 0x22 SLT KECCAK256 DUP3 0xAC DUP12 SIGNEXTEND SIGNEXTEND 0xE2 SWAP14 BLOCKHASH CREATE2 ADD 0x28 DUP16 PUSH8 0x49CD969916C19A8E 0xEA POP 0x2A REVERT PUSH1 0x40 ISZERO CREATE2 0xA9 0xA6 MSTORE PUSH5 0x736F6C6343 STOP ADDMOD 0xF STOP CALLER ",
  "sha1": "754eac56f0c6bcbafb2396117b7e734cd7928aa6",
  "source": "// SPDX-License-Identifier: GPL3\npragma solidity ^0.8.0;\n\n/**\n * @dev Reference data providers in the project and their requests to join the project\n */\ncontract DataProviders {\n    // Data provider entity (node)\n    struct Node {\n        address _address;\n        bool activated;\n        // Shared secret between nodes\n        // TODO: test if splitting into bytes32 is cheaper\n        bytes[112] secret;\n        // Entry state represents at which iteration node joined\n        uint entryKeyTurn;\n    }\n\n    struct NodeJoinRequest {\n        address _address;\n        bytes32 publicKey;\n    }\n\n    // Mapping node address to index + 4 extra states:\n    // 0 - no request\n    // 1 - pending\n    // 2 - declined\n    // 3 <= i  - represents index i in node array as (i - 3)\n    mapping(address => uint) public nodeState;\n    Node[] public nodesArray;\n    uint32 public activeNodes = 0;\n    uint32 public keyTurn = 0; // Increment on every node join\n\n    // Request are treated as a stack (for simplicity)\n    NodeJoinRequest[] public nodeRequests;\n\n\n    modifier onlyNode {\n        require(\n            isNode(msg.sender),\n            \"Only nodes are allowed to execute this.\"\n        );\n        _;\n    }\n\n    modifier onlyActiveNode {\n        require(\n            isNode(msg.sender) && nodesArray[nodeState[msg.sender] - 3].activated,\n            \"Only nodes that are active are allowed to execute this.\"\n        );\n        _;\n    }\n\n    /**\n     * @notice Check if given address belongs to node\n     * @param _address address to check\n     */\n    function isNode(address _address) public view returns(bool) {\n        return nodeState[_address] >= 3;\n    }\n\n    function getNodesLength() public view returns(uint) {\n        return nodesArray.length;\n    }\n\n    function getNodeRequestsLength() public view returns(uint) {\n        return nodeRequests.length;\n    }\n\n    function getNodeSecret(address _address) public view returns(bytes[112] memory) {\n        require(isNode(_address), \"Address doesn't belong to node\");\n        return nodesArray[nodeState[_address] - 3].secret;\n    }\n\n    /**\n     * @notice Node can request to join providing their public key.\n     * @param publicKey compressed public key value\n     */\n    function requestJoinNode(bytes32 publicKey) public {\n        require(nodeState[msg.sender] == 0, \"Address already made request.\");\n        nodeState[msg.sender] = 1;\n        nodeRequests.push(NodeJoinRequest({\n            _address: msg.sender,\n            publicKey: publicKey\n        }));\n    }\n\n    /**\n     * @notice Accepting first request in the stack\n     * @param secret sharing encrypted common secret for nodes\n\n        TODO: Secret should be updated as hash of previous secret\n              So that the node doesn't have access to previous models\n        TODO: Should not accept node when plan is running\n    */\n    function acceptNode(bytes[112] memory secret) public onlyNode {\n        require(nodeRequests.length > 0, \"No request to process.\");\n        nodeState[nodeRequests[nodeRequests.length - 1]._address] = nodesArray.length + 3;\n\n        keyTurn += 1;\n        nodesArray.push(Node({\n            _address: nodeRequests[nodeRequests.length - 1]._address,\n            activated: true,\n            secret: secret,\n            entryKeyTurn: keyTurn\n        }));\n        activeNodes += 1;\n        nodeRequests.pop();\n    }\n\n    /**\n     * @notice Declining first request in the stack\n     */\n    function declineNode() public onlyNode {\n        require(nodeRequests.length > 0, \"No request to process.\");\n        nodeState[nodeRequests[nodeRequests.length - 1]._address] = 2;\n        nodeRequests.pop();\n    }\n\n    /**\n     * @notice Node activates itself\n     */\n    function activate() public onlyNode {\n        require(\n            !nodesArray[nodeState[msg.sender] - 3].activated,\n            \"Node is already active.\"\n        );\n        nodesArray[nodeState[msg.sender] - 3].activated = true;\n    }\n\n    /**\n     * @notice Node deactivates itself\n     * @dev onlyNode modifier is not required. It is checked inside _deactivateNode(...)\n     */\n    function deactivate() public {\n        _deactivateNode(msg.sender);\n    }\n\n    /**\n     * @notice Deactivate node by address\n     * @dev We will use this later in the training plan - kick inactive nodes\n     * @param _address address of node which should be deactivated\n     */\n    function _deactivateNode(address _address) internal {\n        require(\n            isNode(_address),\n            \"Address is not valid node.\"\n        );\n        require(\n            nodesArray[nodeState[_address] - 3].activated,\n            \"Node is already inactive\"\n        );\n        nodesArray[nodeState[_address] - 3].activated = true;\n    }\n}\n",
  "sourcePath": "contracts/project/DataProviders.sol",
  "type": "contract"
}