{
  "abi": [
    {
      "inputs": [
        {
          "internalType": "contract FELToken",
          "name": "_token",
          "type": "address"
        },
        {
          "internalType": "bytes32",
          "name": "publicKey",
          "type": "bytes32"
        },
        {
          "internalType": "bytes[112]",
          "name": "secret",
          "type": "bytes[112]"
        }
      ],
      "stateMutability": "nonpayable",
      "type": "constructor"
    },
    {
      "inputs": [],
      "name": "abortPlan",
      "outputs": [],
      "stateMutability": "nonpayable",
      "type": "function"
    },
    {
      "inputs": [
        {
          "internalType": "address",
          "name": "newBuilderAddress",
          "type": "address"
        }
      ],
      "name": "acceptBuilderJoinRequest",
      "outputs": [],
      "stateMutability": "nonpayable",
      "type": "function"
    },
    {
      "inputs": [
        {
          "internalType": "bytes[112]",
          "name": "secret",
          "type": "bytes[112]"
        }
      ],
      "name": "acceptNode",
      "outputs": [],
      "stateMutability": "nonpayable",
      "type": "function"
    },
    {
      "inputs": [],
      "name": "activate",
      "outputs": [],
      "stateMutability": "nonpayable",
      "type": "function"
    },
    {
      "inputs": [],
      "name": "activeNodes",
      "outputs": [
        {
          "internalType": "uint32",
          "name": "",
          "type": "uint32"
        }
      ],
      "stateMutability": "view",
      "type": "function"
    },
    {
      "inputs": [
        {
          "internalType": "address",
          "name": "newBuilderAddress",
          "type": "address"
        },
        {
          "internalType": "bytes32",
          "name": "publicKey",
          "type": "bytes32"
        }
      ],
      "name": "addBuilder",
      "outputs": [],
      "stateMutability": "nonpayable",
      "type": "function"
    },
    {
      "inputs": [
        {
          "internalType": "address",
          "name": "",
          "type": "address"
        }
      ],
      "name": "builderRequests",
      "outputs": [
        {
          "internalType": "address",
          "name": "builderAddress",
          "type": "address"
        },
        {
          "internalType": "bytes32",
          "name": "publicKey",
          "type": "bytes32"
        },
        {
          "internalType": "uint256",
          "name": "index",
          "type": "uint256"
        }
      ],
      "stateMutability": "view",
      "type": "function"
    },
    {
      "inputs": [
        {
          "internalType": "uint256",
          "name": "",
          "type": "uint256"
        }
      ],
      "name": "builderRequestsArray",
      "outputs": [
        {
          "internalType": "address",
          "name": "",
          "type": "address"
        }
      ],
      "stateMutability": "view",
      "type": "function"
    },
    {
      "inputs": [
        {
          "internalType": "address",
          "name": "",
          "type": "address"
        }
      ],
      "name": "builders",
      "outputs": [
        {
          "internalType": "address",
          "name": "_address",
          "type": "address"
        },
        {
          "internalType": "bytes32",
          "name": "publicKey",
          "type": "bytes32"
        }
      ],
      "stateMutability": "view",
      "type": "function"
    },
    {
      "inputs": [
        {
          "internalType": "uint256",
          "name": "",
          "type": "uint256"
        }
      ],
      "name": "buildersArray",
      "outputs": [
        {
          "internalType": "address",
          "name": "",
          "type": "address"
        }
      ],
      "stateMutability": "view",
      "type": "function"
    },
    {
      "inputs": [
        {
          "internalType": "bool",
          "name": "status",
          "type": "bool"
        }
      ],
      "name": "changeNodeStatus",
      "outputs": [],
      "stateMutability": "nonpayable",
      "type": "function"
    },
    {
      "inputs": [
        {
          "internalType": "string",
          "name": "modelCID",
          "type": "string"
        },
        {
          "internalType": "uint32",
          "name": "rounds",
          "type": "uint32"
        },
        {
          "internalType": "uint256",
          "name": "reward",
          "type": "uint256"
        }
      ],
      "name": "createPlan",
      "outputs": [],
      "stateMutability": "nonpayable",
      "type": "function"
    },
    {
      "inputs": [],
      "name": "currentRound",
      "outputs": [
        {
          "internalType": "uint32",
          "name": "",
          "type": "uint32"
        }
      ],
      "stateMutability": "view",
      "type": "function"
    },
    {
      "inputs": [],
      "name": "deactivate",
      "outputs": [],
      "stateMutability": "nonpayable",
      "type": "function"
    },
    {
      "inputs": [
        {
          "internalType": "address",
          "name": "newBuilderAddress",
          "type": "address"
        }
      ],
      "name": "declineBuilderJoinRequest",
      "outputs": [],
      "stateMutability": "nonpayable",
      "type": "function"
    },
    {
      "inputs": [],
      "name": "declineNode",
      "outputs": [],
      "stateMutability": "nonpayable",
      "type": "function"
    },
    {
      "inputs": [
        {
          "internalType": "string",
          "name": "modelCID",
          "type": "string"
        }
      ],
      "name": "finishPlan",
      "outputs": [],
      "stateMutability": "nonpayable",
      "type": "function"
    },
    {
      "inputs": [],
      "name": "getBuilderRequestsLength",
      "outputs": [
        {
          "internalType": "uint256",
          "name": "",
          "type": "uint256"
        }
      ],
      "stateMutability": "view",
      "type": "function"
    },
    {
      "inputs": [],
      "name": "getBuildersLength",
      "outputs": [
        {
          "internalType": "uint256",
          "name": "",
          "type": "uint256"
        }
      ],
      "stateMutability": "view",
      "type": "function"
    },
    {
      "inputs": [],
      "name": "getNodeRequestsLength",
      "outputs": [
        {
          "internalType": "uint256",
          "name": "",
          "type": "uint256"
        }
      ],
      "stateMutability": "view",
      "type": "function"
    },
    {
      "inputs": [
        {
          "internalType": "address",
          "name": "_address",
          "type": "address"
        }
      ],
      "name": "getNodeSecret",
      "outputs": [
        {
          "internalType": "bytes[112]",
          "name": "",
          "type": "bytes[112]"
        }
      ],
      "stateMutability": "view",
      "type": "function"
    },
    {
      "inputs": [],
      "name": "getNodesLength",
      "outputs": [
        {
          "internalType": "uint256",
          "name": "",
          "type": "uint256"
        }
      ],
      "stateMutability": "view",
      "type": "function"
    },
    {
      "inputs": [
        {
          "internalType": "uint256",
          "name": "roundIdx",
          "type": "uint256"
        },
        {
          "internalType": "address",
          "name": "nodeAddress",
          "type": "address"
        }
      ],
      "name": "getRoundModel",
      "outputs": [
        {
          "internalType": "string",
          "name": "",
          "type": "string"
        }
      ],
      "stateMutability": "view",
      "type": "function"
    },
    {
      "inputs": [
        {
          "internalType": "address",
          "name": "_address",
          "type": "address"
        }
      ],
      "name": "isNode",
      "outputs": [
        {
          "internalType": "bool",
          "name": "",
          "type": "bool"
        }
      ],
      "stateMutability": "view",
      "type": "function"
    },
    {
      "inputs": [],
      "name": "isPlanRunning",
      "outputs": [
        {
          "internalType": "bool",
          "name": "",
          "type": "bool"
        }
      ],
      "stateMutability": "view",
      "type": "function"
    },
    {
      "inputs": [],
      "name": "keyTurn",
      "outputs": [
        {
          "internalType": "uint32",
          "name": "",
          "type": "uint32"
        }
      ],
      "stateMutability": "view",
      "type": "function"
    },
    {
      "inputs": [
        {
          "internalType": "uint256",
          "name": "",
          "type": "uint256"
        }
      ],
      "name": "nodeRequests",
      "outputs": [
        {
          "internalType": "address",
          "name": "_address",
          "type": "address"
        },
        {
          "internalType": "bytes32",
          "name": "publicKey",
          "type": "bytes32"
        }
      ],
      "stateMutability": "view",
      "type": "function"
    },
    {
      "inputs": [
        {
          "internalType": "address",
          "name": "",
          "type": "address"
        }
      ],
      "name": "nodeState",
      "outputs": [
        {
          "internalType": "uint256",
          "name": "",
          "type": "uint256"
        }
      ],
      "stateMutability": "view",
      "type": "function"
    },
    {
      "inputs": [
        {
          "internalType": "uint256",
          "name": "",
          "type": "uint256"
        }
      ],
      "name": "nodesArray",
      "outputs": [
        {
          "internalType": "address",
          "name": "_address",
          "type": "address"
        },
        {
          "internalType": "bool",
          "name": "activated",
          "type": "bool"
        },
        {
          "internalType": "uint256",
          "name": "entryKeyTurn",
          "type": "uint256"
        }
      ],
      "stateMutability": "view",
      "type": "function"
    },
    {
      "inputs": [],
      "name": "numPlans",
      "outputs": [
        {
          "internalType": "uint32",
          "name": "",
          "type": "uint32"
        }
      ],
      "stateMutability": "view",
      "type": "function"
    },
    {
      "inputs": [
        {
          "internalType": "uint256",
          "name": "",
          "type": "uint256"
        }
      ],
      "name": "plans",
      "outputs": [
        {
          "internalType": "address",
          "name": "creator",
          "type": "address"
        },
        {
          "internalType": "address",
          "name": "finalNode",
          "type": "address"
        },
        {
          "internalType": "uint32",
          "name": "randomSeed",
          "type": "uint32"
        },
        {
          "internalType": "string",
          "name": "baseModelCID",
          "type": "string"
        },
        {
          "internalType": "string",
          "name": "finalModelCID",
          "type": "string"
        },
        {
          "internalType": "uint32",
          "name": "numRounds",
          "type": "uint32"
        },
        {
          "internalType": "uint256",
          "name": "numNodes",
          "type": "uint256"
        },
        {
          "internalType": "uint256",
          "name": "totalReward",
          "type": "uint256"
        },
        {
          "internalType": "uint256",
          "name": "nodeReward",
          "type": "uint256"
        },
        {
          "internalType": "uint256",
          "name": "keyTurn",
          "type": "uint256"
        }
      ],
      "stateMutability": "view",
      "type": "function"
    },
    {
      "inputs": [
        {
          "internalType": "bytes32",
          "name": "publicKey",
          "type": "bytes32"
        }
      ],
      "name": "requestJoinBuilder",
      "outputs": [],
      "stateMutability": "nonpayable",
      "type": "function"
    },
    {
      "inputs": [
        {
          "internalType": "bytes32",
          "name": "publicKey",
          "type": "bytes32"
        }
      ],
      "name": "requestJoinNode",
      "outputs": [],
      "stateMutability": "nonpayable",
      "type": "function"
    },
    {
      "inputs": [
        {
          "internalType": "bytes32",
          "name": "publicKey",
          "type": "bytes32"
        }
      ],
      "name": "setBuilderPublickey",
      "outputs": [],
      "stateMutability": "nonpayable",
      "type": "function"
    },
    {
      "inputs": [
        {
          "internalType": "string",
          "name": "modelCID",
          "type": "string"
        }
      ],
      "name": "submitModel",
      "outputs": [],
      "stateMutability": "nonpayable",
      "type": "function"
    }
  ],
  "bytecode": "6080604052600680546001600160401b0319169055600980546001600160481b03191690556007600a553480156200003657600080fd5b506040516200302b3803806200302b8339810160408190526200005991620002f3565b600b80546001600160a01b038086166001600160a01b0319928316179092556040805180820182523380825260208083018881526000838152808352858120945185549089169088161785559051600194850155835480850185557fb10e2d527612073b26eecdfd717e6a320cf44b4afac2b0732d9fcbe2b7fa0cf6018054909616831790955581855260048152838520600390558351608081018552918252810184815292810186815260608201859052600580549384018155909452805160729092027f036b6384b5eca791c62761152d0c79bb0604c104a5fb6f4eb0703f3154bb3db08101805494511515600160a01b026001600160a81b0319909516939096169290921792909217845591519092916200019e917f036b6384b5eca791c62761152d0c79bb0604c104a5fb6f4eb0703f3154bb3db1909101906070620001b4565b5060608201518160710155505050505062000598565b8260708101928215620001f2579160200282015b82811115620001f25782518290620001e19082620004cc565b5091602001919060010190620001c8565b506200020092915062000204565b5090565b80821115620002005760006200021b828262000225565b5060010162000204565b50805462000233906200043d565b6000825580601f1062000244575050565b601f01602090049060005260206000209081019062000264919062000267565b50565b5b8082111562000200576000815560010162000268565b634e487b7160e01b600052604160045260246000fd5b604051610e0081016001600160401b0381118282101715620002ba57620002ba6200027e565b60405290565b604051601f8201601f191681016001600160401b0381118282101715620002eb57620002eb6200027e565b604052919050565b6000806000606084860312156200030957600080fd5b83516001600160a01b03811681146200032157600080fd5b60208581015160408701519295509350906001600160401b03808211156200034857600080fd5b8187019150601f88818401126200035e57600080fd5b6200036862000294565b80610e0085018b8111156200037c57600080fd5b855b818110156200042b57805186811115620003985760008081fd5b87018581018e13620003aa5760008081fd5b805187811115620003bf57620003bf6200027e565b620003d2818801601f19168b01620002c0565b8181528f8b838501011115620003e85760008081fd5b60005b8281101562000408578381018c01518282018d01528b01620003eb565b828111156200041a5760008c84840101525b50865250509287019287016200037e565b50508096505050505050509250925092565b600181811c908216806200045257607f821691505b6020821081036200047357634e487b7160e01b600052602260045260246000fd5b50919050565b601f821115620004c757600081815260208120601f850160051c81016020861015620004a25750805b601f850160051c820191505b81811015620004c357828155600101620004ae565b5050505b505050565b81516001600160401b03811115620004e857620004e86200027e565b6200050081620004f984546200043d565b8462000479565b602080601f8311600181146200053857600084156200051f5750858301515b600019600386901b1c1916600185901b178555620004c3565b600085815260208120601f198616915b82811015620005695788860151825594840194600190910190840162000548565b5085821015620005885787850151600019600388901b60f8161c191681555b5050505050600190811b01905550565b612a8380620005a86000396000f3fe608060405234801561001057600080fd5b50600436106102115760003560e01c80638a19c8bc11610125578063b777a893116100ad578063bc946ead1161007c578063bc946ead1461051b578063c4e10a141461052e578063da0986aa14610566578063e27c87a01461057a578063ef2dc65e1461058d57600080fd5b8063b777a893146104d6578063b7b92f47146104de578063b9fae085146104f1578063ba7925cb1461050457600080fd5b8063ab705ded116100f4578063ab705ded14610418578063b155533a1461042b578063b16206161461043e578063b4fa6ba914610467578063b5967269146104c657600080fd5b80638a19c8bc146103c857806394613cd7146103df578063a0572b2a146103f2578063a2f6f7811461040557600080fd5b80634244609b116101a85780636f2690a5116101775780636f2690a51461036757806372ab489f1461037a578063730f919d146103825780637cf3110c146103955780638518a047146103a857600080fd5b80634244609b146103245780634c781da51461034457806350c62ac31461035757806351b42b001461035f57600080fd5b8063144ddefc116101e4578063144ddefc1461027f578063168168a7146102d15780631821aa62146102fc57806331888d881461030457600080fd5b8063017501521461021657806307f196511461023e5780630f15f4c01461026357806313029e031461026d575b600080fd5b6102296102243660046122a5565b610595565b60405190151581526020015b60405180910390f35b60065461024e9063ffffffff1681565b60405163ffffffff9091168152602001610235565b61026b6105b4565b005b6007545b604051908152602001610235565b6102b261028d3660046122a5565b600060208190529081526040902080546001909101546001600160a01b039091169082565b604080516001600160a01b039093168352602083019190915201610235565b6102e46102df3660046122c0565b6106d7565b6040516001600160a01b039091168152602001610235565b600554610271565b6103176103123660046122d9565b610701565b6040516102359190612352565b6103376103323660046122a5565b61083f565b6040516102359190612365565b61026b610352366004612489565b6109aa565b600154610271565b61026b610afa565b6102b26103753660046122c0565b610b05565b61026b610b3d565b61026b610390366004612489565b610c3a565b6102e46103a33660046122c0565b610d86565b6102716103b63660046122a5565b60046020526000908152604090205481565b60095461024e90600160281b900463ffffffff1681565b61026b6103ed3660046122c0565b610d96565b61026b6104003660046124d4565b610e98565b61026b6104133660046122a5565b61102d565b61026b6104263660046124f1565b6110a5565b61026b6104393660046122a5565b61113f565b61045161044c3660046122c0565b611205565b6040516102359a99989796959493929190612554565b6104a16104753660046122a5565b60026020819052600091825260409091208054600182015491909201546001600160a01b039092169183565b604080516001600160a01b039094168452602084019290925290820152606001610235565b60095461024e9063ffffffff1681565b61026b611381565b61026b6104ec3660046122c0565b61142e565b61026b6104ff3660046125d1565b61158c565b60065461024e90600160201b900463ffffffff1681565b61026b6105293660046122c0565b61169f565b61054161053c3660046122c0565b611712565b604080516001600160a01b039094168452911515602084015290820152606001610235565b60095461022990600160201b900460ff1681565b61026b6105883660046125fb565b611755565b600354610271565b6001600160a01b03166000908152600460205260409020546003111590565b6105bd33610595565b6105e25760405162461bcd60e51b81526004016105d9906126ac565b60405180910390fd5b3360009081526004602052604090205460059061060190600390612709565b8154811061061157610611612720565b6000918252602090912060729091020154600160a01b900460ff16156106795760405162461bcd60e51b815260206004820152601760248201527f4e6f646520697320616c7265616479206163746976652e00000000000000000060448201526064016105d9565b3360009081526004602052604090205460019060059061069b90600390612709565b815481106106ab576106ab612720565b600091825260209091206072909102018054911515600160a01b0260ff60a01b19909216919091179055565b600381815481106106e757600080fd5b6000918252602090912001546001600160a01b0316905081565b60095460609063ffffffff166107595760405162461bcd60e51b815260206004820152601960248201527f4e6f20747261696e696e6720706c616e7320637265617465640000000000000060448201526064016105d9565b6009546008906000906107749060019063ffffffff16612736565b63ffffffff1681526020808201929092526040908101600090812086825260090183528181206001600160a01b0386168252600201909252902080546107b99061275b565b80601f01602080910402602001604051908101604052809291908181526020018280546107e59061275b565b80156108325780601f1061080757610100808354040283529160200191610832565b820191906000526020600020905b81548152906001019060200180831161081557829003601f168201915b5050505050905092915050565b6108476121b1565b61085082610595565b61089c5760405162461bcd60e51b815260206004820152601e60248201527f4164647265737320646f65736e27742062656c6f6e6720746f206e6f6465000060448201526064016105d9565b6001600160a01b0382166000908152600460205260409020546005906108c490600390612709565b815481106108d4576108d4612720565b9060005260206000209060720201600101607080602002604051908101604052809291906000905b8282101561099f5783820180546109129061275b565b80601f016020809104026020016040519081016040528092919081815260200182805461093e9061275b565b801561098b5780601f106109605761010080835404028352916020019161098b565b820191906000526020600020905b81548152906001019060200180831161096e57829003601f168201915b5050505050815260200190600101906108fc565b505050509050919050565b6109b333610595565b6109cf5760405162461bcd60e51b81526004016105d9906126ac565b60095460009060089082906109ec9060019063ffffffff16612736565b63ffffffff168152602081019190915260400160002060018101549091506001600160a01b03163314610a705760405162461bcd60e51b815260206004820152602660248201527f4f6e6c79207072652d73656c6563746564206e6f64652063616e2066696e69736044820152653410383630b760d11b60648201526084016105d9565b600481015460095463ffffffff918216600160281b9091049091161015610ad95760405162461bcd60e51b815260206004820152601c60248201527f416c6c20726f756e6473206d75737420626520636f6d706c657465640000000060448201526064016105d9565b60038101610ae783826127e4565b50506009805464ff000000001916905550565b610b03336119b2565b565b60078181548110610b1557600080fd5b6000918252602090912060029091020180546001909101546001600160a01b03909116915082565b610b4633610595565b610b625760405162461bcd60e51b81526004016105d9906126ac565b600754610baa5760405162461bcd60e51b81526020600482015260166024820152752737903932b8bab2b9ba103a3790383937b1b2b9b99760511b60448201526064016105d9565b60026004600060076001600780549050610bc49190612709565b81548110610bd457610bd4612720565b600091825260208083206002909202909101546001600160a01b031683528201929092526040019020556007805480610c0f57610c0f6128a4565b60008281526020812060026000199093019283020180546001600160a01b0319168155600101559055565b610c4381611ad1565b600b546009546001600160a01b039091169063a9059cbb903390600890600090610c759060019063ffffffff16612736565b63ffffffff168152602001908152602001600020600701546040518363ffffffff1660e01b8152600401610cbe9291906001600160a01b03929092168252602082015260400190565b6020604051808303816000875af1158015610cdd573d6000803e3d6000fd5b505050506040513d601f19601f82011682018060405250810190610d0191906128ba565b50600954600890600090610d1d9060019063ffffffff16612736565b63ffffffff16815260200190815260200160002060070154600860006001600960009054906101000a900463ffffffff16610d589190612736565b63ffffffff1681526020019081526020016000206006016000828254610d7e9190612709565b909155505050565b600181815481106106e757600080fd5b3360009081526004602052604090205415610df35760405162461bcd60e51b815260206004820152601d60248201527f4164647265737320616c7265616479206d61646520726571756573742e00000060448201526064016105d9565b3360008181526004602090815260408083206001908190558151808301909252938152908101938452600780549384018155909152517fa66cc928b5edb82af9bd49922954155ab7b0942694bea4ce44661d9a8736c688600290920291820180546001600160a01b0319166001600160a01b0390921691909117905590517fa66cc928b5edb82af9bd49922954155ab7b0942694bea4ce44661d9a8736c68990910155565b610ea133610595565b610ebd5760405162461bcd60e51b81526004016105d9906126ac565b600954600160201b900460ff1615610f2c5760405162461bcd60e51b815260206004820152602c60248201527f4e6f64652063616e2774206368616e676520737461747573207768696c65207060448201526b3630b710393ab73734b7339760a11b60648201526084016105d9565b3360009081526004602052604090205481151590600590610f4f90600390612709565b81548110610f5f57610f5f612720565b6000918252602090912060729091020154600160a01b900460ff16151514610fcf5780610fa057600654610f9b9060019063ffffffff16612736565b610fb4565b600654610fb49063ffffffff1660016128d7565b6006805463ffffffff191663ffffffff929092169190911790555b336000908152600460205260409020548190600590610ff090600390612709565b8154811061100057611000612720565b600091825260209091206072909102018054911515600160a01b0260ff60a01b1990921691909117905550565b336000908152602081905260409020546001600160a01b03166110625760405162461bcd60e51b81526004016105d9906128ff565b6001600160a01b03818116600090815260026020526040902054166110995760405162461bcd60e51b81526004016105d990612949565b6110a281611ceb565b50565b6110b0838383611e60565b60006110bc8383612113565b600b546040516323b872dd60e01b8152336004820152306024820152604481018390529192506001600160a01b0316906323b872dd906064016020604051808303816000875af1158015611114573d6000803e3d6000fd5b505050506040513d601f19601f8201168201806040525081019061113891906128ba565b5050505050565b336000908152602081905260409020546001600160a01b03166111745760405162461bcd60e51b81526004016105d9906128ff565b6001600160a01b03818116600090815260026020526040902054166111ab5760405162461bcd60e51b81526004016105d990612949565b6001600160a01b03808216600090815260026020818152604092839020835160608101855281549095168552600181015491850182905290910154918301919091526111f890839061158c565b61120182611ceb565b5050565b6008602052600090815260409020805460018201546002830180546001600160a01b039384169493831693600160a01b90930463ffffffff1692919061124a9061275b565b80601f01602080910402602001604051908101604052809291908181526020018280546112769061275b565b80156112c35780601f10611298576101008083540402835291602001916112c3565b820191906000526020600020905b8154815290600101906020018083116112a657829003601f168201915b5050505050908060030180546112d89061275b565b80601f01602080910402602001604051908101604052809291908181526020018280546113049061275b565b80156113515780601f1061132657610100808354040283529160200191611351565b820191906000526020600020905b81548152906001019060200180831161133457829003601f168201915b5050506004840154600585015460068601546007870154600890970154959663ffffffff9093169591945092508a565b60095463ffffffff16158015906113d2575060095433906008906000906113b09060019063ffffffff16612736565b63ffffffff1681526020810191909152604001600020546001600160a01b0316145b61141e5760405162461bcd60e51b815260206004820152601f60248201527f4f6e6c792063726561746f722063616e2061626f72742074686520706c616e0060448201526064016105d9565b6009805464ff0000000019169055565b336000908152602081905260409020546001600160a01b03161561148d5760405162461bcd60e51b81526020600482015260166024820152754275696c64657220616c72656164792065786973747360501b60448201526064016105d9565b336000908152600260205260409020546001600160a01b0316156114f35760405162461bcd60e51b815260206004820152601e60248201527f4275696c64657220616c726561647920726571756573746564206a6f696e000060448201526064016105d9565b60408051606081018252338082526020808301948552600380548486019081526000848152600293849052958620945185546001600160a01b03919091166001600160a01b031991821617865596516001808701919091559051949092019390935582549081018355919092527fc2575a0e9e593c00f959f8c92f12db2869c3395a3b0502d05e2516446f71f85b018054909216179055565b336000908152602081905260409020546001600160a01b03166115c15760405162461bcd60e51b81526004016105d9906128ff565b6001600160a01b0382811660009081526020819052604090205416156116225760405162461bcd60e51b81526020600482015260166024820152754275696c64657220616c72656164792065786973747360501b60448201526064016105d9565b6040805180820182526001600160a01b0393841680825260208083019485526000828152908190529283209151825495166001600160a01b031995861617825592516001918201558054808201825591527fb10e2d527612073b26eecdfd717e6a320cf44b4afac2b0732d9fcbe2b7fa0cf6018054909216179055565b336000818152602081905260409020546001600160a01b0316146116fd5760405162461bcd60e51b815260206004820152601560248201527429b2b73232b91034b9903737ba10313ab4b63232b960591b60448201526064016105d9565b33600090815260208190526040902060010155565b6005818154811061172257600080fd5b6000918252602090912060729091020180546071909101546001600160a01b0382169250600160a01b90910460ff169083565b61175e33610595565b61177a5760405162461bcd60e51b81526004016105d9906126ac565b6007546117c25760405162461bcd60e51b81526020600482015260166024820152752737903932b8bab2b9ba103a3790383937b1b2b9b99760511b60448201526064016105d9565b6005546117d09060036129b8565b600780546004916000916117e690600190612709565b815481106117f6576117f6612720565b600091825260208083206002909202909101546001600160a01b03168352820192909252604001902055600680546001919060049061184490849063ffffffff600160201b909104166128d7565b92506101000a81548163ffffffff021916908363ffffffff16021790555060056040518060800160405280600760016007805490506118839190612709565b8154811061189357611893612720565b600091825260208083206002909202909101546001600160a01b0390811684526001848301819052604080860189905260065463ffffffff600160201b90910416606090960195909552865480820188559684529282902085516072909702018054928601511515600160a01b026001600160a81b031990931696909116959095171784559082015191929161192d9183019060706121d9565b5060609190910151607190910155600680546001919060009061195790849063ffffffff166128d7565b92506101000a81548163ffffffff021916908363ffffffff1602179055506007805480611986576119866128a4565b60008281526020812060026000199093019283020180546001600160a01b031916815560010155905550565b6119bb81610595565b611a075760405162461bcd60e51b815260206004820152601a60248201527f41646472657373206973206e6f742076616c6964206e6f64652e00000000000060448201526064016105d9565b6001600160a01b038116600090815260046020526040902054600590611a2f90600390612709565b81548110611a3f57611a3f612720565b6000918252602090912060729091020154600160a01b900460ff16611aa65760405162461bcd60e51b815260206004820152601860248201527f4e6f646520697320616c726561647920696e616374697665000000000000000060448201526064016105d9565b6001600160a01b038116600090815260046020526040902054600190600590610ff090600390612709565b611ada33610595565b611af65760405162461bcd60e51b81526004016105d9906126ac565b600954600890600090611b119060019063ffffffff16612736565b63ffffffff9081168252602082019290925260400160002060040154600954908216600160281b90910490911610611b8b5760405162461bcd60e51b815260206004820152601c60248201527f4e6f206d6f726520726f756e647320746f20706572666f726d2e2e2e0000000060448201526064016105d9565b6009546000906008908290611ba89060019063ffffffff16612736565b63ffffffff90811682526020808301939093526040918201600090812060098054600160281b900490931682529190910183528181203382526002810190935220805491925090611bf89061275b565b159050611c515760405162461bcd60e51b815260206004820152602160248201527f4d6f64656c20616c72656164792073656e7420666f72207468697320726f756e6044820152601960fa1b60648201526084016105d9565b3360009081526002820160205260409020611c6c83826127e4565b506001816001016000828254611c8291906129b8565b9091555050600654600182015463ffffffff9091161161120157805460ff19166001908117825560098054600590611cc990849063ffffffff600160281b909104166128d7565b92506101000a81548163ffffffff021916908363ffffffff1602179055505050565b336000908152602081905260409020546001600160a01b0316611d205760405162461bcd60e51b81526004016105d9906128ff565b6001600160a01b038116600090815260026020819052604090912001546003805482908110611d5157611d51612720565b6000918252602080832090910180546001600160a01b03199081169091556001600160a01b0385168352600291829052604083208054909116815560018181018490559101829055600380549091611da891612709565b81548110611db857611db8612720565b60009182526020808320909101546001600160a01b031680835260029182905260409092200183905560038054919250829184908110611dfa57611dfa612720565b9060005260206000200160006101000a8154816001600160a01b0302191690836001600160a01b031602179055506003805480611e3957611e396128a4565b600082815260209020810160001990810180546001600160a01b0319169055019055505050565b336000908152602081905260409020546001600160a01b0316611e955760405162461bcd60e51b81526004016105d9906128ff565b600954600160201b900460ff1615611efe5760405162461bcd60e51b815260206004820152602660248201527f416e6f7468657220706c616e20697320616c7265616479206265696e672065786044820152651958dd5d195960d21b60648201526084016105d9565b60065463ffffffff16611f5f5760405162461bcd60e51b815260206004820152602360248201527f4e6f20616374697665206e6f64657320746f20657865637574652074686520706044820152623630b760e91b60648201526084016105d9565b60098054600091600891839163ffffffff9091169082611f7e836129d0565b82546101009290920a63ffffffff81810219909316918316021790915516815260208101919091526040016000208054336001600160a01b0319909116178155905060028101611fce85826127e4565b5060048101805463ffffffff191663ffffffff85811691909117909155600654166005820155600781018290556120058383612113565b60068281019190915554600160201b900463ffffffff166008820155600061202b612140565b60055490915060009061203e90836129f3565b90505b6005805461204f90836129f3565b8154811061205f5761205f612720565b6000918252602090912060729091020154600160a01b900460ff1661208e5761208781612a15565b9050612041565b6005805461209c90836129f3565b815481106120ac576120ac612720565b6000918252602090912060729091020154600193909301805463ffffffff909316600160a01b026001600160c01b03199093166001600160a01b03909416939093179190911790915550506009805468ffffffffff000000001916600160201b1790555050565b60065460009063ffffffff9081169061212f9084908616612a2e565b6121399190612a2e565b9392505050565b600a54600090612151600143612709565b40414460405160200161218f9493929190938452602084019290925260601b6bffffffffffffffffffffffff19166040830152605482015260740190565b60408051601f198184030181529190528051602090910120600a819055919050565b60405180610e0001604052806070905b60608152602001906001900390816121c15790505090565b8260708101928215612212579160200282015b82811115612212578251829061220290826127e4565b50916020019190600101906121ec565b5061221e929150612222565b5090565b8082111561221e576000612236828261223f565b50600101612222565b50805461224b9061275b565b6000825580601f1061225b575050565b601f0160209004906000526020600020908101906110a291905b8082111561221e5760008155600101612275565b80356001600160a01b03811681146122a057600080fd5b919050565b6000602082840312156122b757600080fd5b61213982612289565b6000602082840312156122d257600080fd5b5035919050565b600080604083850312156122ec57600080fd5b823591506122fc60208401612289565b90509250929050565b6000815180845260005b8181101561232b5760208185018101518683018201520161230f565b8181111561233d576000602083870101525b50601f01601f19169290920160200192915050565b6020815260006121396020830184612305565b6020808252600090610e20830183820185845b60708110156123a757601f19878503018352612395848351612305565b93509184019190840190600101612378565b50919695505050505050565b634e487b7160e01b600052604160045260246000fd5b604051610e00810167ffffffffffffffff811182821017156123ed576123ed6123b3565b60405290565b600067ffffffffffffffff8084111561240e5761240e6123b3565b604051601f8501601f19908116603f01168101908282118183101715612436576124366123b3565b8160405280935085815286868601111561244f57600080fd5b858560208301376000602087830101525050509392505050565b600082601f83011261247a57600080fd5b612139838335602085016123f3565b60006020828403121561249b57600080fd5b813567ffffffffffffffff8111156124b257600080fd5b6124be84828501612469565b949350505050565b80151581146110a257600080fd5b6000602082840312156124e657600080fd5b8135612139816124c6565b60008060006060848603121561250657600080fd5b833567ffffffffffffffff81111561251d57600080fd5b61252986828701612469565b935050602084013563ffffffff8116811461254357600080fd5b929592945050506040919091013590565b6001600160a01b038b811682528a16602082015263ffffffff89811660408301526101406060830181905260009161258e8483018c612305565b915083820360808501526125a2828b612305565b981660a0840152505060c081019490945260e08401929092526101008301526101209091015295945050505050565b600080604083850312156125e457600080fd5b6125ed83612289565b946020939093013593505050565b6000602080838503121561260e57600080fd5b823567ffffffffffffffff8082111561262657600080fd5b8185019150601f868184011261263b57600080fd5b6126436123c9565b80610e0085018981111561265657600080fd5b855b8181101561269d578035868111156126705760008081fd5b87018581018c136126815760008081fd5b61268f8c82358b84016123f3565b855250928701928701612658565b50909998505050505050505050565b60208082526027908201527f4f6e6c79206e6f6465732061726520616c6c6f77656420746f2065786563757460408201526632903a3434b99760c91b606082015260800190565b634e487b7160e01b600052601160045260246000fd5b60008282101561271b5761271b6126f3565b500390565b634e487b7160e01b600052603260045260246000fd5b600063ffffffff83811690831681811015612753576127536126f3565b039392505050565b600181811c9082168061276f57607f821691505b60208210810361278f57634e487b7160e01b600052602260045260246000fd5b50919050565b601f8211156127df57600081815260208120601f850160051c810160208610156127bc5750805b601f850160051c820191505b818110156127db578281556001016127c8565b5050505b505050565b815167ffffffffffffffff8111156127fe576127fe6123b3565b6128128161280c845461275b565b84612795565b602080601f831160018114612847576000841561282f5750858301515b600019600386901b1c1916600185901b1785556127db565b600085815260208120601f198616915b8281101561287657888601518255948401946001909101908401612857565b50858210156128945787850151600019600388901b60f8161c191681555b5050505050600190811b01905550565b634e487b7160e01b600052603160045260246000fd5b6000602082840312156128cc57600080fd5b8151612139816124c6565b600063ffffffff8083168185168083038211156128f6576128f66126f3565b01949350505050565b6020808252602a908201527f4f6e6c79206275696c646572732061726520616c6c6f77656420746f2065786560408201526931baba32903a3434b99760b11b606082015260800190565b60208082526049908201527f41646472657373206f66206e6577206275696c646572206861736e277420637260408201527f656174656420726571756573742e20436f6e7369646572207573696e6720616460608201526832213ab4b63232b91760b91b608082015260a00190565b600082198211156129cb576129cb6126f3565b500190565b600063ffffffff8083168181036129e9576129e96126f3565b6001019392505050565b600082612a1057634e487b7160e01b600052601260045260246000fd5b500690565b600060018201612a2757612a276126f3565b5060010190565b6000816000190483118215151615612a4857612a486126f3565b50029056fea2646970667358221220e7d81cfd750eafb789016ed27002e9304a08aa3d829594a09fd7ecfe1a10c07664736f6c634300080f0033",
  "bytecodeSha1": "9ab76fd64176082fa3e26821aa4df3cd876d56a4",
  "compiler": {
    "evm_version": "istanbul",
    "optimizer": {
      "enabled": true,
      "runs": 200
    },
    "version": "0.8.15+commit.e14f2714"
  },
  "contractName": "ProjectContract",
  "language": "Solidity",
  "natspec": {
    "details": "This contract is instantiated for each project and can be edited for individual needs.",
    "kind": "dev",
    "methods": {
      "acceptBuilderJoinRequest(address)": {
        "notice": "Already accepted builder can accept new builder.",
        "params": {
          "newBuilderAddress": "address of the new builder"
        }
      },
      "acceptNode(bytes[112])": {
        "notice": "Accepting first request in the stack",
        "params": {
          "secret": "sharing encrypted common secret for nodes TODO: Secret should be updated as hash of previous secret So that the node doesn't have access to previous models TODO: Should not accept node when plan is running"
        }
      },
      "activate()": {
        "notice": "Node activates itself"
      },
      "addBuilder(address,bytes32)": {
        "notice": "Already accepted builder can add new builder.",
        "params": {
          "newBuilderAddress": "address of the new builder",
          "publicKey": "compressed public key value"
        }
      },
      "changeNodeStatus(bool)": {
        "notice": "Function node can become active/inactive "
      },
      "constructor": {
        "details": "Initializes the project. Creator becomes both builder and data provider, might be changed in future",
        "params": {
          "_token": "address of the FELToken",
          "publicKey": "- Builder setup",
          "secret": "- Encrypted secret for the owner (owner encrypts for himself)"
        }
      },
      "createPlan(string,uint32,uint256)": {
        "notice": "Builder creates training plan",
        "params": {
          "modelCID": "- ipfs CID",
          "reward": "- reward for data providers for each model submitted",
          "rounds": "- number of training rounds"
        }
      },
      "deactivate()": {
        "details": "onlyNode modifier is not required. It is checked inside _deactivateNode(...)",
        "notice": "Node deactivates itself"
      },
      "declineBuilderJoinRequest(address)": {
        "notice": "Already accepted builder can accept new builder.",
        "params": {
          "newBuilderAddress": "address of the new builder"
        }
      },
      "declineNode()": {
        "notice": "Declining first request in the stack"
      },
      "isNode(address)": {
        "notice": "Check if given address belongs to node",
        "params": {
          "_address": "address to check"
        }
      },
      "requestJoinBuilder(bytes32)": {
        "notice": "Anyone can request to become a builder.",
        "params": {
          "publicKey": "compressed public key value"
        }
      },
      "requestJoinNode(bytes32)": {
        "notice": "Node can request to join providing their public key.",
        "params": {
          "publicKey": "compressed public key value"
        }
      },
      "setBuilderPublickey(bytes32)": {
        "notice": "Builder can update his public key.",
        "params": {
          "publicKey": "compressed public key value"
        }
      },
      "submitModel(string)": {
        "notice": "Data provider submits model",
        "params": {
          "modelCID": "- ipfs CID"
        }
      }
    },
    "notice": "Project Contract manages references to Data Providers (nodes) and Builders (scientists). Data providers must watch this contract and execute new plans. Builders creat training plans.",
    "title": "Project Contract",
    "version": 1
  },
  "opcodes": "PUSH1 0x80 PUSH1 0x40 MSTORE CALLVALUE DUP1 ISZERO PUSH2 0x10 JUMPI PUSH1 0x0 DUP1 REVERT JUMPDEST POP PUSH1 0x4 CALLDATASIZE LT PUSH2 0x211 JUMPI PUSH1 0x0 CALLDATALOAD PUSH1 0xE0 SHR DUP1 PUSH4 0x8A19C8BC GT PUSH2 0x125 JUMPI DUP1 PUSH4 0xB777A893 GT PUSH2 0xAD JUMPI DUP1 PUSH4 0xBC946EAD GT PUSH2 0x7C JUMPI DUP1 PUSH4 0xBC946EAD EQ PUSH2 0x51B JUMPI DUP1 PUSH4 0xC4E10A14 EQ PUSH2 0x52E JUMPI DUP1 PUSH4 0xDA0986AA EQ PUSH2 0x566 JUMPI DUP1 PUSH4 0xE27C87A0 EQ PUSH2 0x57A JUMPI DUP1 PUSH4 0xEF2DC65E EQ PUSH2 0x58D JUMPI PUSH1 0x0 DUP1 REVERT JUMPDEST DUP1 PUSH4 0xB777A893 EQ PUSH2 0x4D6 JUMPI DUP1 PUSH4 0xB7B92F47 EQ PUSH2 0x4DE JUMPI DUP1 PUSH4 0xB9FAE085 EQ PUSH2 0x4F1 JUMPI DUP1 PUSH4 0xBA7925CB EQ PUSH2 0x504 JUMPI PUSH1 0x0 DUP1 REVERT JUMPDEST DUP1 PUSH4 0xAB705DED GT PUSH2 0xF4 JUMPI DUP1 PUSH4 0xAB705DED EQ PUSH2 0x418 JUMPI DUP1 PUSH4 0xB155533A EQ PUSH2 0x42B JUMPI DUP1 PUSH4 0xB1620616 EQ PUSH2 0x43E JUMPI DUP1 PUSH4 0xB4FA6BA9 EQ PUSH2 0x467 JUMPI DUP1 PUSH4 0xB5967269 EQ PUSH2 0x4C6 JUMPI PUSH1 0x0 DUP1 REVERT JUMPDEST DUP1 PUSH4 0x8A19C8BC EQ PUSH2 0x3C8 JUMPI DUP1 PUSH4 0x94613CD7 EQ PUSH2 0x3DF JUMPI DUP1 PUSH4 0xA0572B2A EQ PUSH2 0x3F2 JUMPI DUP1 PUSH4 0xA2F6F781 EQ PUSH2 0x405 JUMPI PUSH1 0x0 DUP1 REVERT JUMPDEST DUP1 PUSH4 0x4244609B GT PUSH2 0x1A8 JUMPI DUP1 PUSH4 0x6F2690A5 GT PUSH2 0x177 JUMPI DUP1 PUSH4 0x6F2690A5 EQ PUSH2 0x367 JUMPI DUP1 PUSH4 0x72AB489F EQ PUSH2 0x37A JUMPI DUP1 PUSH4 0x730F919D EQ PUSH2 0x382 JUMPI DUP1 PUSH4 0x7CF3110C EQ PUSH2 0x395 JUMPI DUP1 PUSH4 0x8518A047 EQ PUSH2 0x3A8 JUMPI PUSH1 0x0 DUP1 REVERT JUMPDEST DUP1 PUSH4 0x4244609B EQ PUSH2 0x324 JUMPI DUP1 PUSH4 0x4C781DA5 EQ PUSH2 0x344 JUMPI DUP1 PUSH4 0x50C62AC3 EQ PUSH2 0x357 JUMPI DUP1 PUSH4 0x51B42B00 EQ PUSH2 0x35F JUMPI PUSH1 0x0 DUP1 REVERT JUMPDEST DUP1 PUSH4 0x144DDEFC GT PUSH2 0x1E4 JUMPI DUP1 PUSH4 0x144DDEFC EQ PUSH2 0x27F JUMPI DUP1 PUSH4 0x168168A7 EQ PUSH2 0x2D1 JUMPI DUP1 PUSH4 0x1821AA62 EQ PUSH2 0x2FC JUMPI DUP1 PUSH4 0x31888D88 EQ PUSH2 0x304 JUMPI PUSH1 0x0 DUP1 REVERT JUMPDEST DUP1 PUSH4 0x1750152 EQ PUSH2 0x216 JUMPI DUP1 PUSH4 0x7F19651 EQ PUSH2 0x23E JUMPI DUP1 PUSH4 0xF15F4C0 EQ PUSH2 0x263 JUMPI DUP1 PUSH4 0x13029E03 EQ PUSH2 0x26D JUMPI JUMPDEST PUSH1 0x0 DUP1 REVERT JUMPDEST PUSH2 0x229 PUSH2 0x224 CALLDATASIZE PUSH1 0x4 PUSH2 0x22A5 JUMP JUMPDEST PUSH2 0x595 JUMP JUMPDEST PUSH1 0x40 MLOAD SWAP1 ISZERO ISZERO DUP2 MSTORE PUSH1 0x20 ADD JUMPDEST PUSH1 0x40 MLOAD DUP1 SWAP2 SUB SWAP1 RETURN JUMPDEST PUSH1 0x6 SLOAD PUSH2 0x24E SWAP1 PUSH4 0xFFFFFFFF AND DUP2 JUMP JUMPDEST PUSH1 0x40 MLOAD PUSH4 0xFFFFFFFF SWAP1 SWAP2 AND DUP2 MSTORE PUSH1 0x20 ADD PUSH2 0x235 JUMP JUMPDEST PUSH2 0x26B PUSH2 0x5B4 JUMP JUMPDEST STOP JUMPDEST PUSH1 0x7 SLOAD JUMPDEST PUSH1 0x40 MLOAD SWAP1 DUP2 MSTORE PUSH1 0x20 ADD PUSH2 0x235 JUMP JUMPDEST PUSH2 0x2B2 PUSH2 0x28D CALLDATASIZE PUSH1 0x4 PUSH2 0x22A5 JUMP JUMPDEST PUSH1 0x0 PUSH1 0x20 DUP2 SWAP1 MSTORE SWAP1 DUP2 MSTORE PUSH1 0x40 SWAP1 KECCAK256 DUP1 SLOAD PUSH1 0x1 SWAP1 SWAP2 ADD SLOAD PUSH1 0x1 PUSH1 0x1 PUSH1 0xA0 SHL SUB SWAP1 SWAP2 AND SWAP1 DUP3 JUMP JUMPDEST PUSH1 0x40 DUP1 MLOAD PUSH1 0x1 PUSH1 0x1 PUSH1 0xA0 SHL SUB SWAP1 SWAP4 AND DUP4 MSTORE PUSH1 0x20 DUP4 ADD SWAP2 SWAP1 SWAP2 MSTORE ADD PUSH2 0x235 JUMP JUMPDEST PUSH2 0x2E4 PUSH2 0x2DF CALLDATASIZE PUSH1 0x4 PUSH2 0x22C0 JUMP JUMPDEST PUSH2 0x6D7 JUMP JUMPDEST PUSH1 0x40 MLOAD PUSH1 0x1 PUSH1 0x1 PUSH1 0xA0 SHL SUB SWAP1 SWAP2 AND DUP2 MSTORE PUSH1 0x20 ADD PUSH2 0x235 JUMP JUMPDEST PUSH1 0x5 SLOAD PUSH2 0x271 JUMP JUMPDEST PUSH2 0x317 PUSH2 0x312 CALLDATASIZE PUSH1 0x4 PUSH2 0x22D9 JUMP JUMPDEST PUSH2 0x701 JUMP JUMPDEST PUSH1 0x40 MLOAD PUSH2 0x235 SWAP2 SWAP1 PUSH2 0x2352 JUMP JUMPDEST PUSH2 0x337 PUSH2 0x332 CALLDATASIZE PUSH1 0x4 PUSH2 0x22A5 JUMP JUMPDEST PUSH2 0x83F JUMP JUMPDEST PUSH1 0x40 MLOAD PUSH2 0x235 SWAP2 SWAP1 PUSH2 0x2365 JUMP JUMPDEST PUSH2 0x26B PUSH2 0x352 CALLDATASIZE PUSH1 0x4 PUSH2 0x2489 JUMP JUMPDEST PUSH2 0x9AA JUMP JUMPDEST PUSH1 0x1 SLOAD PUSH2 0x271 JUMP JUMPDEST PUSH2 0x26B PUSH2 0xAFA JUMP JUMPDEST PUSH2 0x2B2 PUSH2 0x375 CALLDATASIZE PUSH1 0x4 PUSH2 0x22C0 JUMP JUMPDEST PUSH2 0xB05 JUMP JUMPDEST PUSH2 0x26B PUSH2 0xB3D JUMP JUMPDEST PUSH2 0x26B PUSH2 0x390 CALLDATASIZE PUSH1 0x4 PUSH2 0x2489 JUMP JUMPDEST PUSH2 0xC3A JUMP JUMPDEST PUSH2 0x2E4 PUSH2 0x3A3 CALLDATASIZE PUSH1 0x4 PUSH2 0x22C0 JUMP JUMPDEST PUSH2 0xD86 JUMP JUMPDEST PUSH2 0x271 PUSH2 0x3B6 CALLDATASIZE PUSH1 0x4 PUSH2 0x22A5 JUMP JUMPDEST PUSH1 0x4 PUSH1 0x20 MSTORE PUSH1 0x0 SWAP1 DUP2 MSTORE PUSH1 0x40 SWAP1 KECCAK256 SLOAD DUP2 JUMP JUMPDEST PUSH1 0x9 SLOAD PUSH2 0x24E SWAP1 PUSH1 0x1 PUSH1 0x28 SHL SWAP1 DIV PUSH4 0xFFFFFFFF AND DUP2 JUMP JUMPDEST PUSH2 0x26B PUSH2 0x3ED CALLDATASIZE PUSH1 0x4 PUSH2 0x22C0 JUMP JUMPDEST PUSH2 0xD96 JUMP JUMPDEST PUSH2 0x26B PUSH2 0x400 CALLDATASIZE PUSH1 0x4 PUSH2 0x24D4 JUMP JUMPDEST PUSH2 0xE98 JUMP JUMPDEST PUSH2 0x26B PUSH2 0x413 CALLDATASIZE PUSH1 0x4 PUSH2 0x22A5 JUMP JUMPDEST PUSH2 0x102D JUMP JUMPDEST PUSH2 0x26B PUSH2 0x426 CALLDATASIZE PUSH1 0x4 PUSH2 0x24F1 JUMP JUMPDEST PUSH2 0x10A5 JUMP JUMPDEST PUSH2 0x26B PUSH2 0x439 CALLDATASIZE PUSH1 0x4 PUSH2 0x22A5 JUMP JUMPDEST PUSH2 0x113F JUMP JUMPDEST PUSH2 0x451 PUSH2 0x44C CALLDATASIZE PUSH1 0x4 PUSH2 0x22C0 JUMP JUMPDEST PUSH2 0x1205 JUMP JUMPDEST PUSH1 0x40 MLOAD PUSH2 0x235 SWAP11 SWAP10 SWAP9 SWAP8 SWAP7 SWAP6 SWAP5 SWAP4 SWAP3 SWAP2 SWAP1 PUSH2 0x2554 JUMP JUMPDEST PUSH2 0x4A1 PUSH2 0x475 CALLDATASIZE PUSH1 0x4 PUSH2 0x22A5 JUMP JUMPDEST PUSH1 0x2 PUSH1 0x20 DUP2 SWAP1 MSTORE PUSH1 0x0 SWAP2 DUP3 MSTORE PUSH1 0x40 SWAP1 SWAP2 KECCAK256 DUP1 SLOAD PUSH1 0x1 DUP3 ADD SLOAD SWAP2 SWAP1 SWAP3 ADD SLOAD PUSH1 0x1 PUSH1 0x1 PUSH1 0xA0 SHL SUB SWAP1 SWAP3 AND SWAP2 DUP4 JUMP JUMPDEST PUSH1 0x40 DUP1 MLOAD PUSH1 0x1 PUSH1 0x1 PUSH1 0xA0 SHL SUB SWAP1 SWAP5 AND DUP5 MSTORE PUSH1 0x20 DUP5 ADD SWAP3 SWAP1 SWAP3 MSTORE SWAP1 DUP3 ADD MSTORE PUSH1 0x60 ADD PUSH2 0x235 JUMP JUMPDEST PUSH1 0x9 SLOAD PUSH2 0x24E SWAP1 PUSH4 0xFFFFFFFF AND DUP2 JUMP JUMPDEST PUSH2 0x26B PUSH2 0x1381 JUMP JUMPDEST PUSH2 0x26B PUSH2 0x4EC CALLDATASIZE PUSH1 0x4 PUSH2 0x22C0 JUMP JUMPDEST PUSH2 0x142E JUMP JUMPDEST PUSH2 0x26B PUSH2 0x4FF CALLDATASIZE PUSH1 0x4 PUSH2 0x25D1 JUMP JUMPDEST PUSH2 0x158C JUMP JUMPDEST PUSH1 0x6 SLOAD PUSH2 0x24E SWAP1 PUSH1 0x1 PUSH1 0x20 SHL SWAP1 DIV PUSH4 0xFFFFFFFF AND DUP2 JUMP JUMPDEST PUSH2 0x26B PUSH2 0x529 CALLDATASIZE PUSH1 0x4 PUSH2 0x22C0 JUMP JUMPDEST PUSH2 0x169F JUMP JUMPDEST PUSH2 0x541 PUSH2 0x53C CALLDATASIZE PUSH1 0x4 PUSH2 0x22C0 JUMP JUMPDEST PUSH2 0x1712 JUMP JUMPDEST PUSH1 0x40 DUP1 MLOAD PUSH1 0x1 PUSH1 0x1 PUSH1 0xA0 SHL SUB SWAP1 SWAP5 AND DUP5 MSTORE SWAP2 ISZERO ISZERO PUSH1 0x20 DUP5 ADD MSTORE SWAP1 DUP3 ADD MSTORE PUSH1 0x60 ADD PUSH2 0x235 JUMP JUMPDEST PUSH1 0x9 SLOAD PUSH2 0x229 SWAP1 PUSH1 0x1 PUSH1 0x20 SHL SWAP1 DIV PUSH1 0xFF AND DUP2 JUMP JUMPDEST PUSH2 0x26B PUSH2 0x588 CALLDATASIZE PUSH1 0x4 PUSH2 0x25FB JUMP JUMPDEST PUSH2 0x1755 JUMP JUMPDEST PUSH1 0x3 SLOAD PUSH2 0x271 JUMP JUMPDEST PUSH1 0x1 PUSH1 0x1 PUSH1 0xA0 SHL SUB AND PUSH1 0x0 SWAP1 DUP2 MSTORE PUSH1 0x4 PUSH1 0x20 MSTORE PUSH1 0x40 SWAP1 KECCAK256 SLOAD PUSH1 0x3 GT ISZERO SWAP1 JUMP JUMPDEST PUSH2 0x5BD CALLER PUSH2 0x595 JUMP JUMPDEST PUSH2 0x5E2 JUMPI PUSH1 0x40 MLOAD PUSH3 0x461BCD PUSH1 0xE5 SHL DUP2 MSTORE PUSH1 0x4 ADD PUSH2 0x5D9 SWAP1 PUSH2 0x26AC JUMP JUMPDEST PUSH1 0x40 MLOAD DUP1 SWAP2 SUB SWAP1 REVERT JUMPDEST CALLER PUSH1 0x0 SWAP1 DUP2 MSTORE PUSH1 0x4 PUSH1 0x20 MSTORE PUSH1 0x40 SWAP1 KECCAK256 SLOAD PUSH1 0x5 SWAP1 PUSH2 0x601 SWAP1 PUSH1 0x3 SWAP1 PUSH2 0x2709 JUMP JUMPDEST DUP2 SLOAD DUP2 LT PUSH2 0x611 JUMPI PUSH2 0x611 PUSH2 0x2720 JUMP JUMPDEST PUSH1 0x0 SWAP2 DUP3 MSTORE PUSH1 0x20 SWAP1 SWAP2 KECCAK256 PUSH1 0x72 SWAP1 SWAP2 MUL ADD SLOAD PUSH1 0x1 PUSH1 0xA0 SHL SWAP1 DIV PUSH1 0xFF AND ISZERO PUSH2 0x679 JUMPI PUSH1 0x40 MLOAD PUSH3 0x461BCD PUSH1 0xE5 SHL DUP2 MSTORE PUSH1 0x20 PUSH1 0x4 DUP3 ADD MSTORE PUSH1 0x17 PUSH1 0x24 DUP3 ADD MSTORE PUSH32 0x4E6F646520697320616C7265616479206163746976652E000000000000000000 PUSH1 0x44 DUP3 ADD MSTORE PUSH1 0x64 ADD PUSH2 0x5D9 JUMP JUMPDEST CALLER PUSH1 0x0 SWAP1 DUP2 MSTORE PUSH1 0x4 PUSH1 0x20 MSTORE PUSH1 0x40 SWAP1 KECCAK256 SLOAD PUSH1 0x1 SWAP1 PUSH1 0x5 SWAP1 PUSH2 0x69B SWAP1 PUSH1 0x3 SWAP1 PUSH2 0x2709 JUMP JUMPDEST DUP2 SLOAD DUP2 LT PUSH2 0x6AB JUMPI PUSH2 0x6AB PUSH2 0x2720 JUMP JUMPDEST PUSH1 0x0 SWAP2 DUP3 MSTORE PUSH1 0x20 SWAP1 SWAP2 KECCAK256 PUSH1 0x72 SWAP1 SWAP2 MUL ADD DUP1 SLOAD SWAP2 ISZERO ISZERO PUSH1 0x1 PUSH1 0xA0 SHL MUL PUSH1 0xFF PUSH1 0xA0 SHL NOT SWAP1 SWAP3 AND SWAP2 SWAP1 SWAP2 OR SWAP1 SSTORE JUMP JUMPDEST PUSH1 0x3 DUP2 DUP2 SLOAD DUP2 LT PUSH2 0x6E7 JUMPI PUSH1 0x0 DUP1 REVERT JUMPDEST PUSH1 0x0 SWAP2 DUP3 MSTORE PUSH1 0x20 SWAP1 SWAP2 KECCAK256 ADD SLOAD PUSH1 0x1 PUSH1 0x1 PUSH1 0xA0 SHL SUB AND SWAP1 POP DUP2 JUMP JUMPDEST PUSH1 0x9 SLOAD PUSH1 0x60 SWAP1 PUSH4 0xFFFFFFFF AND PUSH2 0x759 JUMPI PUSH1 0x40 MLOAD PUSH3 0x461BCD PUSH1 0xE5 SHL DUP2 MSTORE PUSH1 0x20 PUSH1 0x4 DUP3 ADD MSTORE PUSH1 0x19 PUSH1 0x24 DUP3 ADD MSTORE PUSH32 0x4E6F20747261696E696E6720706C616E73206372656174656400000000000000 PUSH1 0x44 DUP3 ADD MSTORE PUSH1 0x64 ADD PUSH2 0x5D9 JUMP JUMPDEST PUSH1 0x9 SLOAD PUSH1 0x8 SWAP1 PUSH1 0x0 SWAP1 PUSH2 0x774 SWAP1 PUSH1 0x1 SWAP1 PUSH4 0xFFFFFFFF AND PUSH2 0x2736 JUMP JUMPDEST PUSH4 0xFFFFFFFF AND DUP2 MSTORE PUSH1 0x20 DUP1 DUP3 ADD SWAP3 SWAP1 SWAP3 MSTORE PUSH1 0x40 SWAP1 DUP2 ADD PUSH1 0x0 SWAP1 DUP2 KECCAK256 DUP7 DUP3 MSTORE PUSH1 0x9 ADD DUP4 MSTORE DUP2 DUP2 KECCAK256 PUSH1 0x1 PUSH1 0x1 PUSH1 0xA0 SHL SUB DUP7 AND DUP3 MSTORE PUSH1 0x2 ADD SWAP1 SWAP3 MSTORE SWAP1 KECCAK256 DUP1 SLOAD PUSH2 0x7B9 SWAP1 PUSH2 0x275B JUMP JUMPDEST DUP1 PUSH1 0x1F ADD PUSH1 0x20 DUP1 SWAP2 DIV MUL PUSH1 0x20 ADD PUSH1 0x40 MLOAD SWAP1 DUP2 ADD PUSH1 0x40 MSTORE DUP1 SWAP3 SWAP2 SWAP1 DUP2 DUP2 MSTORE PUSH1 0x20 ADD DUP3 DUP1 SLOAD PUSH2 0x7E5 SWAP1 PUSH2 0x275B JUMP JUMPDEST DUP1 ISZERO PUSH2 0x832 JUMPI DUP1 PUSH1 0x1F LT PUSH2 0x807 JUMPI PUSH2 0x100 DUP1 DUP4 SLOAD DIV MUL DUP4 MSTORE SWAP2 PUSH1 0x20 ADD SWAP2 PUSH2 0x832 JUMP JUMPDEST DUP3 ADD SWAP2 SWAP1 PUSH1 0x0 MSTORE PUSH1 0x20 PUSH1 0x0 KECCAK256 SWAP1 JUMPDEST DUP2 SLOAD DUP2 MSTORE SWAP1 PUSH1 0x1 ADD SWAP1 PUSH1 0x20 ADD DUP1 DUP4 GT PUSH2 0x815 JUMPI DUP3 SWAP1 SUB PUSH1 0x1F AND DUP3 ADD SWAP2 JUMPDEST POP POP POP POP POP SWAP1 POP SWAP3 SWAP2 POP POP JUMP JUMPDEST PUSH2 0x847 PUSH2 0x21B1 JUMP JUMPDEST PUSH2 0x850 DUP3 PUSH2 0x595 JUMP JUMPDEST PUSH2 0x89C JUMPI PUSH1 0x40 MLOAD PUSH3 0x461BCD PUSH1 0xE5 SHL DUP2 MSTORE PUSH1 0x20 PUSH1 0x4 DUP3 ADD MSTORE PUSH1 0x1E PUSH1 0x24 DUP3 ADD MSTORE PUSH32 0x4164647265737320646F65736E27742062656C6F6E6720746F206E6F64650000 PUSH1 0x44 DUP3 ADD MSTORE PUSH1 0x64 ADD PUSH2 0x5D9 JUMP JUMPDEST PUSH1 0x1 PUSH1 0x1 PUSH1 0xA0 SHL SUB DUP3 AND PUSH1 0x0 SWAP1 DUP2 MSTORE PUSH1 0x4 PUSH1 0x20 MSTORE PUSH1 0x40 SWAP1 KECCAK256 SLOAD PUSH1 0x5 SWAP1 PUSH2 0x8C4 SWAP1 PUSH1 0x3 SWAP1 PUSH2 0x2709 JUMP JUMPDEST DUP2 SLOAD DUP2 LT PUSH2 0x8D4 JUMPI PUSH2 0x8D4 PUSH2 0x2720 JUMP JUMPDEST SWAP1 PUSH1 0x0 MSTORE PUSH1 0x20 PUSH1 0x0 KECCAK256 SWAP1 PUSH1 0x72 MUL ADD PUSH1 0x1 ADD PUSH1 0x70 DUP1 PUSH1 0x20 MUL PUSH1 0x40 MLOAD SWAP1 DUP2 ADD PUSH1 0x40 MSTORE DUP1 SWAP3 SWAP2 SWAP1 PUSH1 0x0 SWAP1 JUMPDEST DUP3 DUP3 LT ISZERO PUSH2 0x99F JUMPI DUP4 DUP3 ADD DUP1 SLOAD PUSH2 0x912 SWAP1 PUSH2 0x275B JUMP JUMPDEST DUP1 PUSH1 0x1F ADD PUSH1 0x20 DUP1 SWAP2 DIV MUL PUSH1 0x20 ADD PUSH1 0x40 MLOAD SWAP1 DUP2 ADD PUSH1 0x40 MSTORE DUP1 SWAP3 SWAP2 SWAP1 DUP2 DUP2 MSTORE PUSH1 0x20 ADD DUP3 DUP1 SLOAD PUSH2 0x93E SWAP1 PUSH2 0x275B JUMP JUMPDEST DUP1 ISZERO PUSH2 0x98B JUMPI DUP1 PUSH1 0x1F LT PUSH2 0x960 JUMPI PUSH2 0x100 DUP1 DUP4 SLOAD DIV MUL DUP4 MSTORE SWAP2 PUSH1 0x20 ADD SWAP2 PUSH2 0x98B JUMP JUMPDEST DUP3 ADD SWAP2 SWAP1 PUSH1 0x0 MSTORE PUSH1 0x20 PUSH1 0x0 KECCAK256 SWAP1 JUMPDEST DUP2 SLOAD DUP2 MSTORE SWAP1 PUSH1 0x1 ADD SWAP1 PUSH1 0x20 ADD DUP1 DUP4 GT PUSH2 0x96E JUMPI DUP3 SWAP1 SUB PUSH1 0x1F AND DUP3 ADD SWAP2 JUMPDEST POP POP POP POP POP DUP2 MSTORE PUSH1 0x20 ADD SWAP1 PUSH1 0x1 ADD SWAP1 PUSH2 0x8FC JUMP JUMPDEST POP POP POP POP SWAP1 POP SWAP2 SWAP1 POP JUMP JUMPDEST PUSH2 0x9B3 CALLER PUSH2 0x595 JUMP JUMPDEST PUSH2 0x9CF JUMPI PUSH1 0x40 MLOAD PUSH3 0x461BCD PUSH1 0xE5 SHL DUP2 MSTORE PUSH1 0x4 ADD PUSH2 0x5D9 SWAP1 PUSH2 0x26AC JUMP JUMPDEST PUSH1 0x9 SLOAD PUSH1 0x0 SWAP1 PUSH1 0x8 SWAP1 DUP3 SWAP1 PUSH2 0x9EC SWAP1 PUSH1 0x1 SWAP1 PUSH4 0xFFFFFFFF AND PUSH2 0x2736 JUMP JUMPDEST PUSH4 0xFFFFFFFF AND DUP2 MSTORE PUSH1 0x20 DUP2 ADD SWAP2 SWAP1 SWAP2 MSTORE PUSH1 0x40 ADD PUSH1 0x0 KECCAK256 PUSH1 0x1 DUP2 ADD SLOAD SWAP1 SWAP2 POP PUSH1 0x1 PUSH1 0x1 PUSH1 0xA0 SHL SUB AND CALLER EQ PUSH2 0xA70 JUMPI PUSH1 0x40 MLOAD PUSH3 0x461BCD PUSH1 0xE5 SHL DUP2 MSTORE PUSH1 0x20 PUSH1 0x4 DUP3 ADD MSTORE PUSH1 0x26 PUSH1 0x24 DUP3 ADD MSTORE PUSH32 0x4F6E6C79207072652D73656C6563746564206E6F64652063616E2066696E6973 PUSH1 0x44 DUP3 ADD MSTORE PUSH6 0x3410383630B7 PUSH1 0xD1 SHL PUSH1 0x64 DUP3 ADD MSTORE PUSH1 0x84 ADD PUSH2 0x5D9 JUMP JUMPDEST PUSH1 0x4 DUP2 ADD SLOAD PUSH1 0x9 SLOAD PUSH4 0xFFFFFFFF SWAP2 DUP3 AND PUSH1 0x1 PUSH1 0x28 SHL SWAP1 SWAP2 DIV SWAP1 SWAP2 AND LT ISZERO PUSH2 0xAD9 JUMPI PUSH1 0x40 MLOAD PUSH3 0x461BCD PUSH1 0xE5 SHL DUP2 MSTORE PUSH1 0x20 PUSH1 0x4 DUP3 ADD MSTORE PUSH1 0x1C PUSH1 0x24 DUP3 ADD MSTORE PUSH32 0x416C6C20726F756E6473206D75737420626520636F6D706C6574656400000000 PUSH1 0x44 DUP3 ADD MSTORE PUSH1 0x64 ADD PUSH2 0x5D9 JUMP JUMPDEST PUSH1 0x3 DUP2 ADD PUSH2 0xAE7 DUP4 DUP3 PUSH2 0x27E4 JUMP JUMPDEST POP POP PUSH1 0x9 DUP1 SLOAD PUSH5 0xFF00000000 NOT AND SWAP1 SSTORE POP JUMP JUMPDEST PUSH2 0xB03 CALLER PUSH2 0x19B2 JUMP JUMPDEST JUMP JUMPDEST PUSH1 0x7 DUP2 DUP2 SLOAD DUP2 LT PUSH2 0xB15 JUMPI PUSH1 0x0 DUP1 REVERT JUMPDEST PUSH1 0x0 SWAP2 DUP3 MSTORE PUSH1 0x20 SWAP1 SWAP2 KECCAK256 PUSH1 0x2 SWAP1 SWAP2 MUL ADD DUP1 SLOAD PUSH1 0x1 SWAP1 SWAP2 ADD SLOAD PUSH1 0x1 PUSH1 0x1 PUSH1 0xA0 SHL SUB SWAP1 SWAP2 AND SWAP2 POP DUP3 JUMP JUMPDEST PUSH2 0xB46 CALLER PUSH2 0x595 JUMP JUMPDEST PUSH2 0xB62 JUMPI PUSH1 0x40 MLOAD PUSH3 0x461BCD PUSH1 0xE5 SHL DUP2 MSTORE PUSH1 0x4 ADD PUSH2 0x5D9 SWAP1 PUSH2 0x26AC JUMP JUMPDEST PUSH1 0x7 SLOAD PUSH2 0xBAA JUMPI PUSH1 0x40 MLOAD PUSH3 0x461BCD PUSH1 0xE5 SHL DUP2 MSTORE PUSH1 0x20 PUSH1 0x4 DUP3 ADD MSTORE PUSH1 0x16 PUSH1 0x24 DUP3 ADD MSTORE PUSH22 0x2737903932B8BAB2B9BA103A3790383937B1B2B9B997 PUSH1 0x51 SHL PUSH1 0x44 DUP3 ADD MSTORE PUSH1 0x64 ADD PUSH2 0x5D9 JUMP JUMPDEST PUSH1 0x2 PUSH1 0x4 PUSH1 0x0 PUSH1 0x7 PUSH1 0x1 PUSH1 0x7 DUP1 SLOAD SWAP1 POP PUSH2 0xBC4 SWAP2 SWAP1 PUSH2 0x2709 JUMP JUMPDEST DUP2 SLOAD DUP2 LT PUSH2 0xBD4 JUMPI PUSH2 0xBD4 PUSH2 0x2720 JUMP JUMPDEST PUSH1 0x0 SWAP2 DUP3 MSTORE PUSH1 0x20 DUP1 DUP4 KECCAK256 PUSH1 0x2 SWAP1 SWAP3 MUL SWAP1 SWAP2 ADD SLOAD PUSH1 0x1 PUSH1 0x1 PUSH1 0xA0 SHL SUB AND DUP4 MSTORE DUP3 ADD SWAP3 SWAP1 SWAP3 MSTORE PUSH1 0x40 ADD SWAP1 KECCAK256 SSTORE PUSH1 0x7 DUP1 SLOAD DUP1 PUSH2 0xC0F JUMPI PUSH2 0xC0F PUSH2 0x28A4 JUMP JUMPDEST PUSH1 0x0 DUP3 DUP2 MSTORE PUSH1 0x20 DUP2 KECCAK256 PUSH1 0x2 PUSH1 0x0 NOT SWAP1 SWAP4 ADD SWAP3 DUP4 MUL ADD DUP1 SLOAD PUSH1 0x1 PUSH1 0x1 PUSH1 0xA0 SHL SUB NOT AND DUP2 SSTORE PUSH1 0x1 ADD SSTORE SWAP1 SSTORE JUMP JUMPDEST PUSH2 0xC43 DUP2 PUSH2 0x1AD1 JUMP JUMPDEST PUSH1 0xB SLOAD PUSH1 0x9 SLOAD PUSH1 0x1 PUSH1 0x1 PUSH1 0xA0 SHL SUB SWAP1 SWAP2 AND SWAP1 PUSH4 0xA9059CBB SWAP1 CALLER SWAP1 PUSH1 0x8 SWAP1 PUSH1 0x0 SWAP1 PUSH2 0xC75 SWAP1 PUSH1 0x1 SWAP1 PUSH4 0xFFFFFFFF AND PUSH2 0x2736 JUMP JUMPDEST PUSH4 0xFFFFFFFF AND DUP2 MSTORE PUSH1 0x20 ADD SWAP1 DUP2 MSTORE PUSH1 0x20 ADD PUSH1 0x0 KECCAK256 PUSH1 0x7 ADD SLOAD PUSH1 0x40 MLOAD DUP4 PUSH4 0xFFFFFFFF AND PUSH1 0xE0 SHL DUP2 MSTORE PUSH1 0x4 ADD PUSH2 0xCBE SWAP3 SWAP2 SWAP1 PUSH1 0x1 PUSH1 0x1 PUSH1 0xA0 SHL SUB SWAP3 SWAP1 SWAP3 AND DUP3 MSTORE PUSH1 0x20 DUP3 ADD MSTORE PUSH1 0x40 ADD SWAP1 JUMP JUMPDEST PUSH1 0x20 PUSH1 0x40 MLOAD DUP1 DUP4 SUB DUP2 PUSH1 0x0 DUP8 GAS CALL ISZERO DUP1 ISZERO PUSH2 0xCDD JUMPI RETURNDATASIZE PUSH1 0x0 DUP1 RETURNDATACOPY RETURNDATASIZE PUSH1 0x0 REVERT JUMPDEST POP POP POP POP PUSH1 0x40 MLOAD RETURNDATASIZE PUSH1 0x1F NOT PUSH1 0x1F DUP3 ADD AND DUP3 ADD DUP1 PUSH1 0x40 MSTORE POP DUP2 ADD SWAP1 PUSH2 0xD01 SWAP2 SWAP1 PUSH2 0x28BA JUMP JUMPDEST POP PUSH1 0x9 SLOAD PUSH1 0x8 SWAP1 PUSH1 0x0 SWAP1 PUSH2 0xD1D SWAP1 PUSH1 0x1 SWAP1 PUSH4 0xFFFFFFFF AND PUSH2 0x2736 JUMP JUMPDEST PUSH4 0xFFFFFFFF AND DUP2 MSTORE PUSH1 0x20 ADD SWAP1 DUP2 MSTORE PUSH1 0x20 ADD PUSH1 0x0 KECCAK256 PUSH1 0x7 ADD SLOAD PUSH1 0x8 PUSH1 0x0 PUSH1 0x1 PUSH1 0x9 PUSH1 0x0 SWAP1 SLOAD SWAP1 PUSH2 0x100 EXP SWAP1 DIV PUSH4 0xFFFFFFFF AND PUSH2 0xD58 SWAP2 SWAP1 PUSH2 0x2736 JUMP JUMPDEST PUSH4 0xFFFFFFFF AND DUP2 MSTORE PUSH1 0x20 ADD SWAP1 DUP2 MSTORE PUSH1 0x20 ADD PUSH1 0x0 KECCAK256 PUSH1 0x6 ADD PUSH1 0x0 DUP3 DUP3 SLOAD PUSH2 0xD7E SWAP2 SWAP1 PUSH2 0x2709 JUMP JUMPDEST SWAP1 SWAP2 SSTORE POP POP POP JUMP JUMPDEST PUSH1 0x1 DUP2 DUP2 SLOAD DUP2 LT PUSH2 0x6E7 JUMPI PUSH1 0x0 DUP1 REVERT JUMPDEST CALLER PUSH1 0x0 SWAP1 DUP2 MSTORE PUSH1 0x4 PUSH1 0x20 MSTORE PUSH1 0x40 SWAP1 KECCAK256 SLOAD ISZERO PUSH2 0xDF3 JUMPI PUSH1 0x40 MLOAD PUSH3 0x461BCD PUSH1 0xE5 SHL DUP2 MSTORE PUSH1 0x20 PUSH1 0x4 DUP3 ADD MSTORE PUSH1 0x1D PUSH1 0x24 DUP3 ADD MSTORE PUSH32 0x4164647265737320616C7265616479206D61646520726571756573742E000000 PUSH1 0x44 DUP3 ADD MSTORE PUSH1 0x64 ADD PUSH2 0x5D9 JUMP JUMPDEST CALLER PUSH1 0x0 DUP2 DUP2 MSTORE PUSH1 0x4 PUSH1 0x20 SWAP1 DUP2 MSTORE PUSH1 0x40 DUP1 DUP4 KECCAK256 PUSH1 0x1 SWAP1 DUP2 SWAP1 SSTORE DUP2 MLOAD DUP1 DUP4 ADD SWAP1 SWAP3 MSTORE SWAP4 DUP2 MSTORE SWAP1 DUP2 ADD SWAP4 DUP5 MSTORE PUSH1 0x7 DUP1 SLOAD SWAP4 DUP5 ADD DUP2 SSTORE SWAP1 SWAP2 MSTORE MLOAD PUSH32 0xA66CC928B5EDB82AF9BD49922954155AB7B0942694BEA4CE44661D9A8736C688 PUSH1 0x2 SWAP1 SWAP3 MUL SWAP2 DUP3 ADD DUP1 SLOAD PUSH1 0x1 PUSH1 0x1 PUSH1 0xA0 SHL SUB NOT AND PUSH1 0x1 PUSH1 0x1 PUSH1 0xA0 SHL SUB SWAP1 SWAP3 AND SWAP2 SWAP1 SWAP2 OR SWAP1 SSTORE SWAP1 MLOAD PUSH32 0xA66CC928B5EDB82AF9BD49922954155AB7B0942694BEA4CE44661D9A8736C689 SWAP1 SWAP2 ADD SSTORE JUMP JUMPDEST PUSH2 0xEA1 CALLER PUSH2 0x595 JUMP JUMPDEST PUSH2 0xEBD JUMPI PUSH1 0x40 MLOAD PUSH3 0x461BCD PUSH1 0xE5 SHL DUP2 MSTORE PUSH1 0x4 ADD PUSH2 0x5D9 SWAP1 PUSH2 0x26AC JUMP JUMPDEST PUSH1 0x9 SLOAD PUSH1 0x1 PUSH1 0x20 SHL SWAP1 DIV PUSH1 0xFF AND ISZERO PUSH2 0xF2C JUMPI PUSH1 0x40 MLOAD PUSH3 0x461BCD PUSH1 0xE5 SHL DUP2 MSTORE PUSH1 0x20 PUSH1 0x4 DUP3 ADD MSTORE PUSH1 0x2C PUSH1 0x24 DUP3 ADD MSTORE PUSH32 0x4E6F64652063616E2774206368616E676520737461747573207768696C652070 PUSH1 0x44 DUP3 ADD MSTORE PUSH12 0x3630B710393AB73734B73397 PUSH1 0xA1 SHL PUSH1 0x64 DUP3 ADD MSTORE PUSH1 0x84 ADD PUSH2 0x5D9 JUMP JUMPDEST CALLER PUSH1 0x0 SWAP1 DUP2 MSTORE PUSH1 0x4 PUSH1 0x20 MSTORE PUSH1 0x40 SWAP1 KECCAK256 SLOAD DUP2 ISZERO ISZERO SWAP1 PUSH1 0x5 SWAP1 PUSH2 0xF4F SWAP1 PUSH1 0x3 SWAP1 PUSH2 0x2709 JUMP JUMPDEST DUP2 SLOAD DUP2 LT PUSH2 0xF5F JUMPI PUSH2 0xF5F PUSH2 0x2720 JUMP JUMPDEST PUSH1 0x0 SWAP2 DUP3 MSTORE PUSH1 0x20 SWAP1 SWAP2 KECCAK256 PUSH1 0x72 SWAP1 SWAP2 MUL ADD SLOAD PUSH1 0x1 PUSH1 0xA0 SHL SWAP1 DIV PUSH1 0xFF AND ISZERO ISZERO EQ PUSH2 0xFCF JUMPI DUP1 PUSH2 0xFA0 JUMPI PUSH1 0x6 SLOAD PUSH2 0xF9B SWAP1 PUSH1 0x1 SWAP1 PUSH4 0xFFFFFFFF AND PUSH2 0x2736 JUMP JUMPDEST PUSH2 0xFB4 JUMP JUMPDEST PUSH1 0x6 SLOAD PUSH2 0xFB4 SWAP1 PUSH4 0xFFFFFFFF AND PUSH1 0x1 PUSH2 0x28D7 JUMP JUMPDEST PUSH1 0x6 DUP1 SLOAD PUSH4 0xFFFFFFFF NOT AND PUSH4 0xFFFFFFFF SWAP3 SWAP1 SWAP3 AND SWAP2 SWAP1 SWAP2 OR SWAP1 SSTORE JUMPDEST CALLER PUSH1 0x0 SWAP1 DUP2 MSTORE PUSH1 0x4 PUSH1 0x20 MSTORE PUSH1 0x40 SWAP1 KECCAK256 SLOAD DUP2 SWAP1 PUSH1 0x5 SWAP1 PUSH2 0xFF0 SWAP1 PUSH1 0x3 SWAP1 PUSH2 0x2709 JUMP JUMPDEST DUP2 SLOAD DUP2 LT PUSH2 0x1000 JUMPI PUSH2 0x1000 PUSH2 0x2720 JUMP JUMPDEST PUSH1 0x0 SWAP2 DUP3 MSTORE PUSH1 0x20 SWAP1 SWAP2 KECCAK256 PUSH1 0x72 SWAP1 SWAP2 MUL ADD DUP1 SLOAD SWAP2 ISZERO ISZERO PUSH1 0x1 PUSH1 0xA0 SHL MUL PUSH1 0xFF PUSH1 0xA0 SHL NOT SWAP1 SWAP3 AND SWAP2 SWAP1 SWAP2 OR SWAP1 SSTORE POP JUMP JUMPDEST CALLER PUSH1 0x0 SWAP1 DUP2 MSTORE PUSH1 0x20 DUP2 SWAP1 MSTORE PUSH1 0x40 SWAP1 KECCAK256 SLOAD PUSH1 0x1 PUSH1 0x1 PUSH1 0xA0 SHL SUB AND PUSH2 0x1062 JUMPI PUSH1 0x40 MLOAD PUSH3 0x461BCD PUSH1 0xE5 SHL DUP2 MSTORE PUSH1 0x4 ADD PUSH2 0x5D9 SWAP1 PUSH2 0x28FF JUMP JUMPDEST PUSH1 0x1 PUSH1 0x1 PUSH1 0xA0 SHL SUB DUP2 DUP2 AND PUSH1 0x0 SWAP1 DUP2 MSTORE PUSH1 0x2 PUSH1 0x20 MSTORE PUSH1 0x40 SWAP1 KECCAK256 SLOAD AND PUSH2 0x1099 JUMPI PUSH1 0x40 MLOAD PUSH3 0x461BCD PUSH1 0xE5 SHL DUP2 MSTORE PUSH1 0x4 ADD PUSH2 0x5D9 SWAP1 PUSH2 0x2949 JUMP JUMPDEST PUSH2 0x10A2 DUP2 PUSH2 0x1CEB JUMP JUMPDEST POP JUMP JUMPDEST PUSH2 0x10B0 DUP4 DUP4 DUP4 PUSH2 0x1E60 JUMP JUMPDEST PUSH1 0x0 PUSH2 0x10BC DUP4 DUP4 PUSH2 0x2113 JUMP JUMPDEST PUSH1 0xB SLOAD PUSH1 0x40 MLOAD PUSH4 0x23B872DD PUSH1 0xE0 SHL DUP2 MSTORE CALLER PUSH1 0x4 DUP3 ADD MSTORE ADDRESS PUSH1 0x24 DUP3 ADD MSTORE PUSH1 0x44 DUP2 ADD DUP4 SWAP1 MSTORE SWAP2 SWAP3 POP PUSH1 0x1 PUSH1 0x1 PUSH1 0xA0 SHL SUB AND SWAP1 PUSH4 0x23B872DD SWAP1 PUSH1 0x64 ADD PUSH1 0x20 PUSH1 0x40 MLOAD DUP1 DUP4 SUB DUP2 PUSH1 0x0 DUP8 GAS CALL ISZERO DUP1 ISZERO PUSH2 0x1114 JUMPI RETURNDATASIZE PUSH1 0x0 DUP1 RETURNDATACOPY RETURNDATASIZE PUSH1 0x0 REVERT JUMPDEST POP POP POP POP PUSH1 0x40 MLOAD RETURNDATASIZE PUSH1 0x1F NOT PUSH1 0x1F DUP3 ADD AND DUP3 ADD DUP1 PUSH1 0x40 MSTORE POP DUP2 ADD SWAP1 PUSH2 0x1138 SWAP2 SWAP1 PUSH2 0x28BA JUMP JUMPDEST POP POP POP POP POP JUMP JUMPDEST CALLER PUSH1 0x0 SWAP1 DUP2 MSTORE PUSH1 0x20 DUP2 SWAP1 MSTORE PUSH1 0x40 SWAP1 KECCAK256 SLOAD PUSH1 0x1 PUSH1 0x1 PUSH1 0xA0 SHL SUB AND PUSH2 0x1174 JUMPI PUSH1 0x40 MLOAD PUSH3 0x461BCD PUSH1 0xE5 SHL DUP2 MSTORE PUSH1 0x4 ADD PUSH2 0x5D9 SWAP1 PUSH2 0x28FF JUMP JUMPDEST PUSH1 0x1 PUSH1 0x1 PUSH1 0xA0 SHL SUB DUP2 DUP2 AND PUSH1 0x0 SWAP1 DUP2 MSTORE PUSH1 0x2 PUSH1 0x20 MSTORE PUSH1 0x40 SWAP1 KECCAK256 SLOAD AND PUSH2 0x11AB JUMPI PUSH1 0x40 MLOAD PUSH3 0x461BCD PUSH1 0xE5 SHL DUP2 MSTORE PUSH1 0x4 ADD PUSH2 0x5D9 SWAP1 PUSH2 0x2949 JUMP JUMPDEST PUSH1 0x1 PUSH1 0x1 PUSH1 0xA0 SHL SUB DUP1 DUP3 AND PUSH1 0x0 SWAP1 DUP2 MSTORE PUSH1 0x2 PUSH1 0x20 DUP2 DUP2 MSTORE PUSH1 0x40 SWAP3 DUP4 SWAP1 KECCAK256 DUP4 MLOAD PUSH1 0x60 DUP2 ADD DUP6 MSTORE DUP2 SLOAD SWAP1 SWAP6 AND DUP6 MSTORE PUSH1 0x1 DUP2 ADD SLOAD SWAP2 DUP6 ADD DUP3 SWAP1 MSTORE SWAP1 SWAP2 ADD SLOAD SWAP2 DUP4 ADD SWAP2 SWAP1 SWAP2 MSTORE PUSH2 0x11F8 SWAP1 DUP4 SWAP1 PUSH2 0x158C JUMP JUMPDEST PUSH2 0x1201 DUP3 PUSH2 0x1CEB JUMP JUMPDEST POP POP JUMP JUMPDEST PUSH1 0x8 PUSH1 0x20 MSTORE PUSH1 0x0 SWAP1 DUP2 MSTORE PUSH1 0x40 SWAP1 KECCAK256 DUP1 SLOAD PUSH1 0x1 DUP3 ADD SLOAD PUSH1 0x2 DUP4 ADD DUP1 SLOAD PUSH1 0x1 PUSH1 0x1 PUSH1 0xA0 SHL SUB SWAP4 DUP5 AND SWAP5 SWAP4 DUP4 AND SWAP4 PUSH1 0x1 PUSH1 0xA0 SHL SWAP1 SWAP4 DIV PUSH4 0xFFFFFFFF AND SWAP3 SWAP2 SWAP1 PUSH2 0x124A SWAP1 PUSH2 0x275B JUMP JUMPDEST DUP1 PUSH1 0x1F ADD PUSH1 0x20 DUP1 SWAP2 DIV MUL PUSH1 0x20 ADD PUSH1 0x40 MLOAD SWAP1 DUP2 ADD PUSH1 0x40 MSTORE DUP1 SWAP3 SWAP2 SWAP1 DUP2 DUP2 MSTORE PUSH1 0x20 ADD DUP3 DUP1 SLOAD PUSH2 0x1276 SWAP1 PUSH2 0x275B JUMP JUMPDEST DUP1 ISZERO PUSH2 0x12C3 JUMPI DUP1 PUSH1 0x1F LT PUSH2 0x1298 JUMPI PUSH2 0x100 DUP1 DUP4 SLOAD DIV MUL DUP4 MSTORE SWAP2 PUSH1 0x20 ADD SWAP2 PUSH2 0x12C3 JUMP JUMPDEST DUP3 ADD SWAP2 SWAP1 PUSH1 0x0 MSTORE PUSH1 0x20 PUSH1 0x0 KECCAK256 SWAP1 JUMPDEST DUP2 SLOAD DUP2 MSTORE SWAP1 PUSH1 0x1 ADD SWAP1 PUSH1 0x20 ADD DUP1 DUP4 GT PUSH2 0x12A6 JUMPI DUP3 SWAP1 SUB PUSH1 0x1F AND DUP3 ADD SWAP2 JUMPDEST POP POP POP POP POP SWAP1 DUP1 PUSH1 0x3 ADD DUP1 SLOAD PUSH2 0x12D8 SWAP1 PUSH2 0x275B JUMP JUMPDEST DUP1 PUSH1 0x1F ADD PUSH1 0x20 DUP1 SWAP2 DIV MUL PUSH1 0x20 ADD PUSH1 0x40 MLOAD SWAP1 DUP2 ADD PUSH1 0x40 MSTORE DUP1 SWAP3 SWAP2 SWAP1 DUP2 DUP2 MSTORE PUSH1 0x20 ADD DUP3 DUP1 SLOAD PUSH2 0x1304 SWAP1 PUSH2 0x275B JUMP JUMPDEST DUP1 ISZERO PUSH2 0x1351 JUMPI DUP1 PUSH1 0x1F LT PUSH2 0x1326 JUMPI PUSH2 0x100 DUP1 DUP4 SLOAD DIV MUL DUP4 MSTORE SWAP2 PUSH1 0x20 ADD SWAP2 PUSH2 0x1351 JUMP JUMPDEST DUP3 ADD SWAP2 SWAP1 PUSH1 0x0 MSTORE PUSH1 0x20 PUSH1 0x0 KECCAK256 SWAP1 JUMPDEST DUP2 SLOAD DUP2 MSTORE SWAP1 PUSH1 0x1 ADD SWAP1 PUSH1 0x20 ADD DUP1 DUP4 GT PUSH2 0x1334 JUMPI DUP3 SWAP1 SUB PUSH1 0x1F AND DUP3 ADD SWAP2 JUMPDEST POP POP POP PUSH1 0x4 DUP5 ADD SLOAD PUSH1 0x5 DUP6 ADD SLOAD PUSH1 0x6 DUP7 ADD SLOAD PUSH1 0x7 DUP8 ADD SLOAD PUSH1 0x8 SWAP1 SWAP8 ADD SLOAD SWAP6 SWAP7 PUSH4 0xFFFFFFFF SWAP1 SWAP4 AND SWAP6 SWAP2 SWAP5 POP SWAP3 POP DUP11 JUMP JUMPDEST PUSH1 0x9 SLOAD PUSH4 0xFFFFFFFF AND ISZERO DUP1 ISZERO SWAP1 PUSH2 0x13D2 JUMPI POP PUSH1 0x9 SLOAD CALLER SWAP1 PUSH1 0x8 SWAP1 PUSH1 0x0 SWAP1 PUSH2 0x13B0 SWAP1 PUSH1 0x1 SWAP1 PUSH4 0xFFFFFFFF AND PUSH2 0x2736 JUMP JUMPDEST PUSH4 0xFFFFFFFF AND DUP2 MSTORE PUSH1 0x20 DUP2 ADD SWAP2 SWAP1 SWAP2 MSTORE PUSH1 0x40 ADD PUSH1 0x0 KECCAK256 SLOAD PUSH1 0x1 PUSH1 0x1 PUSH1 0xA0 SHL SUB AND EQ JUMPDEST PUSH2 0x141E JUMPI PUSH1 0x40 MLOAD PUSH3 0x461BCD PUSH1 0xE5 SHL DUP2 MSTORE PUSH1 0x20 PUSH1 0x4 DUP3 ADD MSTORE PUSH1 0x1F PUSH1 0x24 DUP3 ADD MSTORE PUSH32 0x4F6E6C792063726561746F722063616E2061626F72742074686520706C616E00 PUSH1 0x44 DUP3 ADD MSTORE PUSH1 0x64 ADD PUSH2 0x5D9 JUMP JUMPDEST PUSH1 0x9 DUP1 SLOAD PUSH5 0xFF00000000 NOT AND SWAP1 SSTORE JUMP JUMPDEST CALLER PUSH1 0x0 SWAP1 DUP2 MSTORE PUSH1 0x20 DUP2 SWAP1 MSTORE PUSH1 0x40 SWAP1 KECCAK256 SLOAD PUSH1 0x1 PUSH1 0x1 PUSH1 0xA0 SHL SUB AND ISZERO PUSH2 0x148D JUMPI PUSH1 0x40 MLOAD PUSH3 0x461BCD PUSH1 0xE5 SHL DUP2 MSTORE PUSH1 0x20 PUSH1 0x4 DUP3 ADD MSTORE PUSH1 0x16 PUSH1 0x24 DUP3 ADD MSTORE PUSH22 0x4275696C64657220616C726561647920657869737473 PUSH1 0x50 SHL PUSH1 0x44 DUP3 ADD MSTORE PUSH1 0x64 ADD PUSH2 0x5D9 JUMP JUMPDEST CALLER PUSH1 0x0 SWAP1 DUP2 MSTORE PUSH1 0x2 PUSH1 0x20 MSTORE PUSH1 0x40 SWAP1 KECCAK256 SLOAD PUSH1 0x1 PUSH1 0x1 PUSH1 0xA0 SHL SUB AND ISZERO PUSH2 0x14F3 JUMPI PUSH1 0x40 MLOAD PUSH3 0x461BCD PUSH1 0xE5 SHL DUP2 MSTORE PUSH1 0x20 PUSH1 0x4 DUP3 ADD MSTORE PUSH1 0x1E PUSH1 0x24 DUP3 ADD MSTORE PUSH32 0x4275696C64657220616C726561647920726571756573746564206A6F696E0000 PUSH1 0x44 DUP3 ADD MSTORE PUSH1 0x64 ADD PUSH2 0x5D9 JUMP JUMPDEST PUSH1 0x40 DUP1 MLOAD PUSH1 0x60 DUP2 ADD DUP3 MSTORE CALLER DUP1 DUP3 MSTORE PUSH1 0x20 DUP1 DUP4 ADD SWAP5 DUP6 MSTORE PUSH1 0x3 DUP1 SLOAD DUP5 DUP7 ADD SWAP1 DUP2 MSTORE PUSH1 0x0 DUP5 DUP2 MSTORE PUSH1 0x2 SWAP4 DUP5 SWAP1 MSTORE SWAP6 DUP7 KECCAK256 SWAP5 MLOAD DUP6 SLOAD PUSH1 0x1 PUSH1 0x1 PUSH1 0xA0 SHL SUB SWAP2 SWAP1 SWAP2 AND PUSH1 0x1 PUSH1 0x1 PUSH1 0xA0 SHL SUB NOT SWAP2 DUP3 AND OR DUP7 SSTORE SWAP7 MLOAD PUSH1 0x1 DUP1 DUP8 ADD SWAP2 SWAP1 SWAP2 SSTORE SWAP1 MLOAD SWAP5 SWAP1 SWAP3 ADD SWAP4 SWAP1 SWAP4 SSTORE DUP3 SLOAD SWAP1 DUP2 ADD DUP4 SSTORE SWAP2 SWAP1 SWAP3 MSTORE PUSH32 0xC2575A0E9E593C00F959F8C92F12DB2869C3395A3B0502D05E2516446F71F85B ADD DUP1 SLOAD SWAP1 SWAP3 AND OR SWAP1 SSTORE JUMP JUMPDEST CALLER PUSH1 0x0 SWAP1 DUP2 MSTORE PUSH1 0x20 DUP2 SWAP1 MSTORE PUSH1 0x40 SWAP1 KECCAK256 SLOAD PUSH1 0x1 PUSH1 0x1 PUSH1 0xA0 SHL SUB AND PUSH2 0x15C1 JUMPI PUSH1 0x40 MLOAD PUSH3 0x461BCD PUSH1 0xE5 SHL DUP2 MSTORE PUSH1 0x4 ADD PUSH2 0x5D9 SWAP1 PUSH2 0x28FF JUMP JUMPDEST PUSH1 0x1 PUSH1 0x1 PUSH1 0xA0 SHL SUB DUP3 DUP2 AND PUSH1 0x0 SWAP1 DUP2 MSTORE PUSH1 0x20 DUP2 SWAP1 MSTORE PUSH1 0x40 SWAP1 KECCAK256 SLOAD AND ISZERO PUSH2 0x1622 JUMPI PUSH1 0x40 MLOAD PUSH3 0x461BCD PUSH1 0xE5 SHL DUP2 MSTORE PUSH1 0x20 PUSH1 0x4 DUP3 ADD MSTORE PUSH1 0x16 PUSH1 0x24 DUP3 ADD MSTORE PUSH22 0x4275696C64657220616C726561647920657869737473 PUSH1 0x50 SHL PUSH1 0x44 DUP3 ADD MSTORE PUSH1 0x64 ADD PUSH2 0x5D9 JUMP JUMPDEST PUSH1 0x40 DUP1 MLOAD DUP1 DUP3 ADD DUP3 MSTORE PUSH1 0x1 PUSH1 0x1 PUSH1 0xA0 SHL SUB SWAP4 DUP5 AND DUP1 DUP3 MSTORE PUSH1 0x20 DUP1 DUP4 ADD SWAP5 DUP6 MSTORE PUSH1 0x0 DUP3 DUP2 MSTORE SWAP1 DUP2 SWAP1 MSTORE SWAP3 DUP4 KECCAK256 SWAP2 MLOAD DUP3 SLOAD SWAP6 AND PUSH1 0x1 PUSH1 0x1 PUSH1 0xA0 SHL SUB NOT SWAP6 DUP7 AND OR DUP3 SSTORE SWAP3 MLOAD PUSH1 0x1 SWAP2 DUP3 ADD SSTORE DUP1 SLOAD DUP1 DUP3 ADD DUP3 SSTORE SWAP2 MSTORE PUSH32 0xB10E2D527612073B26EECDFD717E6A320CF44B4AFAC2B0732D9FCBE2B7FA0CF6 ADD DUP1 SLOAD SWAP1 SWAP3 AND OR SWAP1 SSTORE JUMP JUMPDEST CALLER PUSH1 0x0 DUP2 DUP2 MSTORE PUSH1 0x20 DUP2 SWAP1 MSTORE PUSH1 0x40 SWAP1 KECCAK256 SLOAD PUSH1 0x1 PUSH1 0x1 PUSH1 0xA0 SHL SUB AND EQ PUSH2 0x16FD JUMPI PUSH1 0x40 MLOAD PUSH3 0x461BCD PUSH1 0xE5 SHL DUP2 MSTORE PUSH1 0x20 PUSH1 0x4 DUP3 ADD MSTORE PUSH1 0x15 PUSH1 0x24 DUP3 ADD MSTORE PUSH21 0x29B2B73232B91034B9903737BA10313AB4B63232B9 PUSH1 0x59 SHL PUSH1 0x44 DUP3 ADD MSTORE PUSH1 0x64 ADD PUSH2 0x5D9 JUMP JUMPDEST CALLER PUSH1 0x0 SWAP1 DUP2 MSTORE PUSH1 0x20 DUP2 SWAP1 MSTORE PUSH1 0x40 SWAP1 KECCAK256 PUSH1 0x1 ADD SSTORE JUMP JUMPDEST PUSH1 0x5 DUP2 DUP2 SLOAD DUP2 LT PUSH2 0x1722 JUMPI PUSH1 0x0 DUP1 REVERT JUMPDEST PUSH1 0x0 SWAP2 DUP3 MSTORE PUSH1 0x20 SWAP1 SWAP2 KECCAK256 PUSH1 0x72 SWAP1 SWAP2 MUL ADD DUP1 SLOAD PUSH1 0x71 SWAP1 SWAP2 ADD SLOAD PUSH1 0x1 PUSH1 0x1 PUSH1 0xA0 SHL SUB DUP3 AND SWAP3 POP PUSH1 0x1 PUSH1 0xA0 SHL SWAP1 SWAP2 DIV PUSH1 0xFF AND SWAP1 DUP4 JUMP JUMPDEST PUSH2 0x175E CALLER PUSH2 0x595 JUMP JUMPDEST PUSH2 0x177A JUMPI PUSH1 0x40 MLOAD PUSH3 0x461BCD PUSH1 0xE5 SHL DUP2 MSTORE PUSH1 0x4 ADD PUSH2 0x5D9 SWAP1 PUSH2 0x26AC JUMP JUMPDEST PUSH1 0x7 SLOAD PUSH2 0x17C2 JUMPI PUSH1 0x40 MLOAD PUSH3 0x461BCD PUSH1 0xE5 SHL DUP2 MSTORE PUSH1 0x20 PUSH1 0x4 DUP3 ADD MSTORE PUSH1 0x16 PUSH1 0x24 DUP3 ADD MSTORE PUSH22 0x2737903932B8BAB2B9BA103A3790383937B1B2B9B997 PUSH1 0x51 SHL PUSH1 0x44 DUP3 ADD MSTORE PUSH1 0x64 ADD PUSH2 0x5D9 JUMP JUMPDEST PUSH1 0x5 SLOAD PUSH2 0x17D0 SWAP1 PUSH1 0x3 PUSH2 0x29B8 JUMP JUMPDEST PUSH1 0x7 DUP1 SLOAD PUSH1 0x4 SWAP2 PUSH1 0x0 SWAP2 PUSH2 0x17E6 SWAP1 PUSH1 0x1 SWAP1 PUSH2 0x2709 JUMP JUMPDEST DUP2 SLOAD DUP2 LT PUSH2 0x17F6 JUMPI PUSH2 0x17F6 PUSH2 0x2720 JUMP JUMPDEST PUSH1 0x0 SWAP2 DUP3 MSTORE PUSH1 0x20 DUP1 DUP4 KECCAK256 PUSH1 0x2 SWAP1 SWAP3 MUL SWAP1 SWAP2 ADD SLOAD PUSH1 0x1 PUSH1 0x1 PUSH1 0xA0 SHL SUB AND DUP4 MSTORE DUP3 ADD SWAP3 SWAP1 SWAP3 MSTORE PUSH1 0x40 ADD SWAP1 KECCAK256 SSTORE PUSH1 0x6 DUP1 SLOAD PUSH1 0x1 SWAP2 SWAP1 PUSH1 0x4 SWAP1 PUSH2 0x1844 SWAP1 DUP5 SWAP1 PUSH4 0xFFFFFFFF PUSH1 0x1 PUSH1 0x20 SHL SWAP1 SWAP2 DIV AND PUSH2 0x28D7 JUMP JUMPDEST SWAP3 POP PUSH2 0x100 EXP DUP2 SLOAD DUP2 PUSH4 0xFFFFFFFF MUL NOT AND SWAP1 DUP4 PUSH4 0xFFFFFFFF AND MUL OR SWAP1 SSTORE POP PUSH1 0x5 PUSH1 0x40 MLOAD DUP1 PUSH1 0x80 ADD PUSH1 0x40 MSTORE DUP1 PUSH1 0x7 PUSH1 0x1 PUSH1 0x7 DUP1 SLOAD SWAP1 POP PUSH2 0x1883 SWAP2 SWAP1 PUSH2 0x2709 JUMP JUMPDEST DUP2 SLOAD DUP2 LT PUSH2 0x1893 JUMPI PUSH2 0x1893 PUSH2 0x2720 JUMP JUMPDEST PUSH1 0x0 SWAP2 DUP3 MSTORE PUSH1 0x20 DUP1 DUP4 KECCAK256 PUSH1 0x2 SWAP1 SWAP3 MUL SWAP1 SWAP2 ADD SLOAD PUSH1 0x1 PUSH1 0x1 PUSH1 0xA0 SHL SUB SWAP1 DUP2 AND DUP5 MSTORE PUSH1 0x1 DUP5 DUP4 ADD DUP2 SWAP1 MSTORE PUSH1 0x40 DUP1 DUP7 ADD DUP10 SWAP1 MSTORE PUSH1 0x6 SLOAD PUSH4 0xFFFFFFFF PUSH1 0x1 PUSH1 0x20 SHL SWAP1 SWAP2 DIV AND PUSH1 0x60 SWAP1 SWAP7 ADD SWAP6 SWAP1 SWAP6 MSTORE DUP7 SLOAD DUP1 DUP3 ADD DUP9 SSTORE SWAP7 DUP5 MSTORE SWAP3 DUP3 SWAP1 KECCAK256 DUP6 MLOAD PUSH1 0x72 SWAP1 SWAP8 MUL ADD DUP1 SLOAD SWAP3 DUP7 ADD MLOAD ISZERO ISZERO PUSH1 0x1 PUSH1 0xA0 SHL MUL PUSH1 0x1 PUSH1 0x1 PUSH1 0xA8 SHL SUB NOT SWAP1 SWAP4 AND SWAP7 SWAP1 SWAP2 AND SWAP6 SWAP1 SWAP6 OR OR DUP5 SSTORE SWAP1 DUP3 ADD MLOAD SWAP2 SWAP3 SWAP2 PUSH2 0x192D SWAP2 DUP4 ADD SWAP1 PUSH1 0x70 PUSH2 0x21D9 JUMP JUMPDEST POP PUSH1 0x60 SWAP2 SWAP1 SWAP2 ADD MLOAD PUSH1 0x71 SWAP1 SWAP2 ADD SSTORE PUSH1 0x6 DUP1 SLOAD PUSH1 0x1 SWAP2 SWAP1 PUSH1 0x0 SWAP1 PUSH2 0x1957 SWAP1 DUP5 SWAP1 PUSH4 0xFFFFFFFF AND PUSH2 0x28D7 JUMP JUMPDEST SWAP3 POP PUSH2 0x100 EXP DUP2 SLOAD DUP2 PUSH4 0xFFFFFFFF MUL NOT AND SWAP1 DUP4 PUSH4 0xFFFFFFFF AND MUL OR SWAP1 SSTORE POP PUSH1 0x7 DUP1 SLOAD DUP1 PUSH2 0x1986 JUMPI PUSH2 0x1986 PUSH2 0x28A4 JUMP JUMPDEST PUSH1 0x0 DUP3 DUP2 MSTORE PUSH1 0x20 DUP2 KECCAK256 PUSH1 0x2 PUSH1 0x0 NOT SWAP1 SWAP4 ADD SWAP3 DUP4 MUL ADD DUP1 SLOAD PUSH1 0x1 PUSH1 0x1 PUSH1 0xA0 SHL SUB NOT AND DUP2 SSTORE PUSH1 0x1 ADD SSTORE SWAP1 SSTORE POP JUMP JUMPDEST PUSH2 0x19BB DUP2 PUSH2 0x595 JUMP JUMPDEST PUSH2 0x1A07 JUMPI PUSH1 0x40 MLOAD PUSH3 0x461BCD PUSH1 0xE5 SHL DUP2 MSTORE PUSH1 0x20 PUSH1 0x4 DUP3 ADD MSTORE PUSH1 0x1A PUSH1 0x24 DUP3 ADD MSTORE PUSH32 0x41646472657373206973206E6F742076616C6964206E6F64652E000000000000 PUSH1 0x44 DUP3 ADD MSTORE PUSH1 0x64 ADD PUSH2 0x5D9 JUMP JUMPDEST PUSH1 0x1 PUSH1 0x1 PUSH1 0xA0 SHL SUB DUP2 AND PUSH1 0x0 SWAP1 DUP2 MSTORE PUSH1 0x4 PUSH1 0x20 MSTORE PUSH1 0x40 SWAP1 KECCAK256 SLOAD PUSH1 0x5 SWAP1 PUSH2 0x1A2F SWAP1 PUSH1 0x3 SWAP1 PUSH2 0x2709 JUMP JUMPDEST DUP2 SLOAD DUP2 LT PUSH2 0x1A3F JUMPI PUSH2 0x1A3F PUSH2 0x2720 JUMP JUMPDEST PUSH1 0x0 SWAP2 DUP3 MSTORE PUSH1 0x20 SWAP1 SWAP2 KECCAK256 PUSH1 0x72 SWAP1 SWAP2 MUL ADD SLOAD PUSH1 0x1 PUSH1 0xA0 SHL SWAP1 DIV PUSH1 0xFF AND PUSH2 0x1AA6 JUMPI PUSH1 0x40 MLOAD PUSH3 0x461BCD PUSH1 0xE5 SHL DUP2 MSTORE PUSH1 0x20 PUSH1 0x4 DUP3 ADD MSTORE PUSH1 0x18 PUSH1 0x24 DUP3 ADD MSTORE PUSH32 0x4E6F646520697320616C726561647920696E6163746976650000000000000000 PUSH1 0x44 DUP3 ADD MSTORE PUSH1 0x64 ADD PUSH2 0x5D9 JUMP JUMPDEST PUSH1 0x1 PUSH1 0x1 PUSH1 0xA0 SHL SUB DUP2 AND PUSH1 0x0 SWAP1 DUP2 MSTORE PUSH1 0x4 PUSH1 0x20 MSTORE PUSH1 0x40 SWAP1 KECCAK256 SLOAD PUSH1 0x1 SWAP1 PUSH1 0x5 SWAP1 PUSH2 0xFF0 SWAP1 PUSH1 0x3 SWAP1 PUSH2 0x2709 JUMP JUMPDEST PUSH2 0x1ADA CALLER PUSH2 0x595 JUMP JUMPDEST PUSH2 0x1AF6 JUMPI PUSH1 0x40 MLOAD PUSH3 0x461BCD PUSH1 0xE5 SHL DUP2 MSTORE PUSH1 0x4 ADD PUSH2 0x5D9 SWAP1 PUSH2 0x26AC JUMP JUMPDEST PUSH1 0x9 SLOAD PUSH1 0x8 SWAP1 PUSH1 0x0 SWAP1 PUSH2 0x1B11 SWAP1 PUSH1 0x1 SWAP1 PUSH4 0xFFFFFFFF AND PUSH2 0x2736 JUMP JUMPDEST PUSH4 0xFFFFFFFF SWAP1 DUP2 AND DUP3 MSTORE PUSH1 0x20 DUP3 ADD SWAP3 SWAP1 SWAP3 MSTORE PUSH1 0x40 ADD PUSH1 0x0 KECCAK256 PUSH1 0x4 ADD SLOAD PUSH1 0x9 SLOAD SWAP1 DUP3 AND PUSH1 0x1 PUSH1 0x28 SHL SWAP1 SWAP2 DIV SWAP1 SWAP2 AND LT PUSH2 0x1B8B JUMPI PUSH1 0x40 MLOAD PUSH3 0x461BCD PUSH1 0xE5 SHL DUP2 MSTORE PUSH1 0x20 PUSH1 0x4 DUP3 ADD MSTORE PUSH1 0x1C PUSH1 0x24 DUP3 ADD MSTORE PUSH32 0x4E6F206D6F726520726F756E647320746F20706572666F726D2E2E2E00000000 PUSH1 0x44 DUP3 ADD MSTORE PUSH1 0x64 ADD PUSH2 0x5D9 JUMP JUMPDEST PUSH1 0x9 SLOAD PUSH1 0x0 SWAP1 PUSH1 0x8 SWAP1 DUP3 SWAP1 PUSH2 0x1BA8 SWAP1 PUSH1 0x1 SWAP1 PUSH4 0xFFFFFFFF AND PUSH2 0x2736 JUMP JUMPDEST PUSH4 0xFFFFFFFF SWAP1 DUP2 AND DUP3 MSTORE PUSH1 0x20 DUP1 DUP4 ADD SWAP4 SWAP1 SWAP4 MSTORE PUSH1 0x40 SWAP2 DUP3 ADD PUSH1 0x0 SWAP1 DUP2 KECCAK256 PUSH1 0x9 DUP1 SLOAD PUSH1 0x1 PUSH1 0x28 SHL SWAP1 DIV SWAP1 SWAP4 AND DUP3 MSTORE SWAP2 SWAP1 SWAP2 ADD DUP4 MSTORE DUP2 DUP2 KECCAK256 CALLER DUP3 MSTORE PUSH1 0x2 DUP2 ADD SWAP1 SWAP4 MSTORE KECCAK256 DUP1 SLOAD SWAP2 SWAP3 POP SWAP1 PUSH2 0x1BF8 SWAP1 PUSH2 0x275B JUMP JUMPDEST ISZERO SWAP1 POP PUSH2 0x1C51 JUMPI PUSH1 0x40 MLOAD PUSH3 0x461BCD PUSH1 0xE5 SHL DUP2 MSTORE PUSH1 0x20 PUSH1 0x4 DUP3 ADD MSTORE PUSH1 0x21 PUSH1 0x24 DUP3 ADD MSTORE PUSH32 0x4D6F64656C20616C72656164792073656E7420666F72207468697320726F756E PUSH1 0x44 DUP3 ADD MSTORE PUSH1 0x19 PUSH1 0xFA SHL PUSH1 0x64 DUP3 ADD MSTORE PUSH1 0x84 ADD PUSH2 0x5D9 JUMP JUMPDEST CALLER PUSH1 0x0 SWAP1 DUP2 MSTORE PUSH1 0x2 DUP3 ADD PUSH1 0x20 MSTORE PUSH1 0x40 SWAP1 KECCAK256 PUSH2 0x1C6C DUP4 DUP3 PUSH2 0x27E4 JUMP JUMPDEST POP PUSH1 0x1 DUP2 PUSH1 0x1 ADD PUSH1 0x0 DUP3 DUP3 SLOAD PUSH2 0x1C82 SWAP2 SWAP1 PUSH2 0x29B8 JUMP JUMPDEST SWAP1 SWAP2 SSTORE POP POP PUSH1 0x6 SLOAD PUSH1 0x1 DUP3 ADD SLOAD PUSH4 0xFFFFFFFF SWAP1 SWAP2 AND GT PUSH2 0x1201 JUMPI DUP1 SLOAD PUSH1 0xFF NOT AND PUSH1 0x1 SWAP1 DUP2 OR DUP3 SSTORE PUSH1 0x9 DUP1 SLOAD PUSH1 0x5 SWAP1 PUSH2 0x1CC9 SWAP1 DUP5 SWAP1 PUSH4 0xFFFFFFFF PUSH1 0x1 PUSH1 0x28 SHL SWAP1 SWAP2 DIV AND PUSH2 0x28D7 JUMP JUMPDEST SWAP3 POP PUSH2 0x100 EXP DUP2 SLOAD DUP2 PUSH4 0xFFFFFFFF MUL NOT AND SWAP1 DUP4 PUSH4 0xFFFFFFFF AND MUL OR SWAP1 SSTORE POP POP POP JUMP JUMPDEST CALLER PUSH1 0x0 SWAP1 DUP2 MSTORE PUSH1 0x20 DUP2 SWAP1 MSTORE PUSH1 0x40 SWAP1 KECCAK256 SLOAD PUSH1 0x1 PUSH1 0x1 PUSH1 0xA0 SHL SUB AND PUSH2 0x1D20 JUMPI PUSH1 0x40 MLOAD PUSH3 0x461BCD PUSH1 0xE5 SHL DUP2 MSTORE PUSH1 0x4 ADD PUSH2 0x5D9 SWAP1 PUSH2 0x28FF JUMP JUMPDEST PUSH1 0x1 PUSH1 0x1 PUSH1 0xA0 SHL SUB DUP2 AND PUSH1 0x0 SWAP1 DUP2 MSTORE PUSH1 0x2 PUSH1 0x20 DUP2 SWAP1 MSTORE PUSH1 0x40 SWAP1 SWAP2 KECCAK256 ADD SLOAD PUSH1 0x3 DUP1 SLOAD DUP3 SWAP1 DUP2 LT PUSH2 0x1D51 JUMPI PUSH2 0x1D51 PUSH2 0x2720 JUMP JUMPDEST PUSH1 0x0 SWAP2 DUP3 MSTORE PUSH1 0x20 DUP1 DUP4 KECCAK256 SWAP1 SWAP2 ADD DUP1 SLOAD PUSH1 0x1 PUSH1 0x1 PUSH1 0xA0 SHL SUB NOT SWAP1 DUP2 AND SWAP1 SWAP2 SSTORE PUSH1 0x1 PUSH1 0x1 PUSH1 0xA0 SHL SUB DUP6 AND DUP4 MSTORE PUSH1 0x2 SWAP2 DUP3 SWAP1 MSTORE PUSH1 0x40 DUP4 KECCAK256 DUP1 SLOAD SWAP1 SWAP2 AND DUP2 SSTORE PUSH1 0x1 DUP2 DUP2 ADD DUP5 SWAP1 SSTORE SWAP2 ADD DUP3 SWAP1 SSTORE PUSH1 0x3 DUP1 SLOAD SWAP1 SWAP2 PUSH2 0x1DA8 SWAP2 PUSH2 0x2709 JUMP JUMPDEST DUP2 SLOAD DUP2 LT PUSH2 0x1DB8 JUMPI PUSH2 0x1DB8 PUSH2 0x2720 JUMP JUMPDEST PUSH1 0x0 SWAP2 DUP3 MSTORE PUSH1 0x20 DUP1 DUP4 KECCAK256 SWAP1 SWAP2 ADD SLOAD PUSH1 0x1 PUSH1 0x1 PUSH1 0xA0 SHL SUB AND DUP1 DUP4 MSTORE PUSH1 0x2 SWAP2 DUP3 SWAP1 MSTORE PUSH1 0x40 SWAP1 SWAP3 KECCAK256 ADD DUP4 SWAP1 SSTORE PUSH1 0x3 DUP1 SLOAD SWAP2 SWAP3 POP DUP3 SWAP2 DUP5 SWAP1 DUP2 LT PUSH2 0x1DFA JUMPI PUSH2 0x1DFA PUSH2 0x2720 JUMP JUMPDEST SWAP1 PUSH1 0x0 MSTORE PUSH1 0x20 PUSH1 0x0 KECCAK256 ADD PUSH1 0x0 PUSH2 0x100 EXP DUP2 SLOAD DUP2 PUSH1 0x1 PUSH1 0x1 PUSH1 0xA0 SHL SUB MUL NOT AND SWAP1 DUP4 PUSH1 0x1 PUSH1 0x1 PUSH1 0xA0 SHL SUB AND MUL OR SWAP1 SSTORE POP PUSH1 0x3 DUP1 SLOAD DUP1 PUSH2 0x1E39 JUMPI PUSH2 0x1E39 PUSH2 0x28A4 JUMP JUMPDEST PUSH1 0x0 DUP3 DUP2 MSTORE PUSH1 0x20 SWAP1 KECCAK256 DUP2 ADD PUSH1 0x0 NOT SWAP1 DUP2 ADD DUP1 SLOAD PUSH1 0x1 PUSH1 0x1 PUSH1 0xA0 SHL SUB NOT AND SWAP1 SSTORE ADD SWAP1 SSTORE POP POP POP JUMP JUMPDEST CALLER PUSH1 0x0 SWAP1 DUP2 MSTORE PUSH1 0x20 DUP2 SWAP1 MSTORE PUSH1 0x40 SWAP1 KECCAK256 SLOAD PUSH1 0x1 PUSH1 0x1 PUSH1 0xA0 SHL SUB AND PUSH2 0x1E95 JUMPI PUSH1 0x40 MLOAD PUSH3 0x461BCD PUSH1 0xE5 SHL DUP2 MSTORE PUSH1 0x4 ADD PUSH2 0x5D9 SWAP1 PUSH2 0x28FF JUMP JUMPDEST PUSH1 0x9 SLOAD PUSH1 0x1 PUSH1 0x20 SHL SWAP1 DIV PUSH1 0xFF AND ISZERO PUSH2 0x1EFE JUMPI PUSH1 0x40 MLOAD PUSH3 0x461BCD PUSH1 0xE5 SHL DUP2 MSTORE PUSH1 0x20 PUSH1 0x4 DUP3 ADD MSTORE PUSH1 0x26 PUSH1 0x24 DUP3 ADD MSTORE PUSH32 0x416E6F7468657220706C616E20697320616C7265616479206265696E67206578 PUSH1 0x44 DUP3 ADD MSTORE PUSH6 0x1958DD5D1959 PUSH1 0xD2 SHL PUSH1 0x64 DUP3 ADD MSTORE PUSH1 0x84 ADD PUSH2 0x5D9 JUMP JUMPDEST PUSH1 0x6 SLOAD PUSH4 0xFFFFFFFF AND PUSH2 0x1F5F JUMPI PUSH1 0x40 MLOAD PUSH3 0x461BCD PUSH1 0xE5 SHL DUP2 MSTORE PUSH1 0x20 PUSH1 0x4 DUP3 ADD MSTORE PUSH1 0x23 PUSH1 0x24 DUP3 ADD MSTORE PUSH32 0x4E6F20616374697665206E6F64657320746F2065786563757465207468652070 PUSH1 0x44 DUP3 ADD MSTORE PUSH3 0x3630B7 PUSH1 0xE9 SHL PUSH1 0x64 DUP3 ADD MSTORE PUSH1 0x84 ADD PUSH2 0x5D9 JUMP JUMPDEST PUSH1 0x9 DUP1 SLOAD PUSH1 0x0 SWAP2 PUSH1 0x8 SWAP2 DUP4 SWAP2 PUSH4 0xFFFFFFFF SWAP1 SWAP2 AND SWAP1 DUP3 PUSH2 0x1F7E DUP4 PUSH2 0x29D0 JUMP JUMPDEST DUP3 SLOAD PUSH2 0x100 SWAP3 SWAP1 SWAP3 EXP PUSH4 0xFFFFFFFF DUP2 DUP2 MUL NOT SWAP1 SWAP4 AND SWAP2 DUP4 AND MUL OR SWAP1 SWAP2 SSTORE AND DUP2 MSTORE PUSH1 0x20 DUP2 ADD SWAP2 SWAP1 SWAP2 MSTORE PUSH1 0x40 ADD PUSH1 0x0 KECCAK256 DUP1 SLOAD CALLER PUSH1 0x1 PUSH1 0x1 PUSH1 0xA0 SHL SUB NOT SWAP1 SWAP2 AND OR DUP2 SSTORE SWAP1 POP PUSH1 0x2 DUP2 ADD PUSH2 0x1FCE DUP6 DUP3 PUSH2 0x27E4 JUMP JUMPDEST POP PUSH1 0x4 DUP2 ADD DUP1 SLOAD PUSH4 0xFFFFFFFF NOT AND PUSH4 0xFFFFFFFF DUP6 DUP2 AND SWAP2 SWAP1 SWAP2 OR SWAP1 SWAP2 SSTORE PUSH1 0x6 SLOAD AND PUSH1 0x5 DUP3 ADD SSTORE PUSH1 0x7 DUP2 ADD DUP3 SWAP1 SSTORE PUSH2 0x2005 DUP4 DUP4 PUSH2 0x2113 JUMP JUMPDEST PUSH1 0x6 DUP3 DUP2 ADD SWAP2 SWAP1 SWAP2 SSTORE SLOAD PUSH1 0x1 PUSH1 0x20 SHL SWAP1 DIV PUSH4 0xFFFFFFFF AND PUSH1 0x8 DUP3 ADD SSTORE PUSH1 0x0 PUSH2 0x202B PUSH2 0x2140 JUMP JUMPDEST PUSH1 0x5 SLOAD SWAP1 SWAP2 POP PUSH1 0x0 SWAP1 PUSH2 0x203E SWAP1 DUP4 PUSH2 0x29F3 JUMP JUMPDEST SWAP1 POP JUMPDEST PUSH1 0x5 DUP1 SLOAD PUSH2 0x204F SWAP1 DUP4 PUSH2 0x29F3 JUMP JUMPDEST DUP2 SLOAD DUP2 LT PUSH2 0x205F JUMPI PUSH2 0x205F PUSH2 0x2720 JUMP JUMPDEST PUSH1 0x0 SWAP2 DUP3 MSTORE PUSH1 0x20 SWAP1 SWAP2 KECCAK256 PUSH1 0x72 SWAP1 SWAP2 MUL ADD SLOAD PUSH1 0x1 PUSH1 0xA0 SHL SWAP1 DIV PUSH1 0xFF AND PUSH2 0x208E JUMPI PUSH2 0x2087 DUP2 PUSH2 0x2A15 JUMP JUMPDEST SWAP1 POP PUSH2 0x2041 JUMP JUMPDEST PUSH1 0x5 DUP1 SLOAD PUSH2 0x209C SWAP1 DUP4 PUSH2 0x29F3 JUMP JUMPDEST DUP2 SLOAD DUP2 LT PUSH2 0x20AC JUMPI PUSH2 0x20AC PUSH2 0x2720 JUMP JUMPDEST PUSH1 0x0 SWAP2 DUP3 MSTORE PUSH1 0x20 SWAP1 SWAP2 KECCAK256 PUSH1 0x72 SWAP1 SWAP2 MUL ADD SLOAD PUSH1 0x1 SWAP4 SWAP1 SWAP4 ADD DUP1 SLOAD PUSH4 0xFFFFFFFF SWAP1 SWAP4 AND PUSH1 0x1 PUSH1 0xA0 SHL MUL PUSH1 0x1 PUSH1 0x1 PUSH1 0xC0 SHL SUB NOT SWAP1 SWAP4 AND PUSH1 0x1 PUSH1 0x1 PUSH1 0xA0 SHL SUB SWAP1 SWAP5 AND SWAP4 SWAP1 SWAP4 OR SWAP2 SWAP1 SWAP2 OR SWAP1 SWAP2 SSTORE POP POP PUSH1 0x9 DUP1 SLOAD PUSH9 0xFFFFFFFFFF00000000 NOT AND PUSH1 0x1 PUSH1 0x20 SHL OR SWAP1 SSTORE POP POP JUMP JUMPDEST PUSH1 0x6 SLOAD PUSH1 0x0 SWAP1 PUSH4 0xFFFFFFFF SWAP1 DUP2 AND SWAP1 PUSH2 0x212F SWAP1 DUP5 SWAP1 DUP7 AND PUSH2 0x2A2E JUMP JUMPDEST PUSH2 0x2139 SWAP2 SWAP1 PUSH2 0x2A2E JUMP JUMPDEST SWAP4 SWAP3 POP POP POP JUMP JUMPDEST PUSH1 0xA SLOAD PUSH1 0x0 SWAP1 PUSH2 0x2151 PUSH1 0x1 NUMBER PUSH2 0x2709 JUMP JUMPDEST BLOCKHASH COINBASE DIFFICULTY PUSH1 0x40 MLOAD PUSH1 0x20 ADD PUSH2 0x218F SWAP5 SWAP4 SWAP3 SWAP2 SWAP1 SWAP4 DUP5 MSTORE PUSH1 0x20 DUP5 ADD SWAP3 SWAP1 SWAP3 MSTORE PUSH1 0x60 SHL PUSH12 0xFFFFFFFFFFFFFFFFFFFFFFFF NOT AND PUSH1 0x40 DUP4 ADD MSTORE PUSH1 0x54 DUP3 ADD MSTORE PUSH1 0x74 ADD SWAP1 JUMP JUMPDEST PUSH1 0x40 DUP1 MLOAD PUSH1 0x1F NOT DUP2 DUP5 SUB ADD DUP2 MSTORE SWAP2 SWAP1 MSTORE DUP1 MLOAD PUSH1 0x20 SWAP1 SWAP2 ADD KECCAK256 PUSH1 0xA DUP2 SWAP1 SSTORE SWAP2 SWAP1 POP JUMP JUMPDEST PUSH1 0x40 MLOAD DUP1 PUSH2 0xE00 ADD PUSH1 0x40 MSTORE DUP1 PUSH1 0x70 SWAP1 JUMPDEST PUSH1 0x60 DUP2 MSTORE PUSH1 0x20 ADD SWAP1 PUSH1 0x1 SWAP1 SUB SWAP1 DUP2 PUSH2 0x21C1 JUMPI SWAP1 POP POP SWAP1 JUMP JUMPDEST DUP3 PUSH1 0x70 DUP2 ADD SWAP3 DUP3 ISZERO PUSH2 0x2212 JUMPI SWAP2 PUSH1 0x20 MUL DUP3 ADD JUMPDEST DUP3 DUP2 GT ISZERO PUSH2 0x2212 JUMPI DUP3 MLOAD DUP3 SWAP1 PUSH2 0x2202 SWAP1 DUP3 PUSH2 0x27E4 JUMP JUMPDEST POP SWAP2 PUSH1 0x20 ADD SWAP2 SWAP1 PUSH1 0x1 ADD SWAP1 PUSH2 0x21EC JUMP JUMPDEST POP PUSH2 0x221E SWAP3 SWAP2 POP PUSH2 0x2222 JUMP JUMPDEST POP SWAP1 JUMP JUMPDEST DUP1 DUP3 GT ISZERO PUSH2 0x221E JUMPI PUSH1 0x0 PUSH2 0x2236 DUP3 DUP3 PUSH2 0x223F JUMP JUMPDEST POP PUSH1 0x1 ADD PUSH2 0x2222 JUMP JUMPDEST POP DUP1 SLOAD PUSH2 0x224B SWAP1 PUSH2 0x275B JUMP JUMPDEST PUSH1 0x0 DUP3 SSTORE DUP1 PUSH1 0x1F LT PUSH2 0x225B JUMPI POP POP JUMP JUMPDEST PUSH1 0x1F ADD PUSH1 0x20 SWAP1 DIV SWAP1 PUSH1 0x0 MSTORE PUSH1 0x20 PUSH1 0x0 KECCAK256 SWAP1 DUP2 ADD SWAP1 PUSH2 0x10A2 SWAP2 SWAP1 JUMPDEST DUP1 DUP3 GT ISZERO PUSH2 0x221E JUMPI PUSH1 0x0 DUP2 SSTORE PUSH1 0x1 ADD PUSH2 0x2275 JUMP JUMPDEST DUP1 CALLDATALOAD PUSH1 0x1 PUSH1 0x1 PUSH1 0xA0 SHL SUB DUP2 AND DUP2 EQ PUSH2 0x22A0 JUMPI PUSH1 0x0 DUP1 REVERT JUMPDEST SWAP2 SWAP1 POP JUMP JUMPDEST PUSH1 0x0 PUSH1 0x20 DUP3 DUP5 SUB SLT ISZERO PUSH2 0x22B7 JUMPI PUSH1 0x0 DUP1 REVERT JUMPDEST PUSH2 0x2139 DUP3 PUSH2 0x2289 JUMP JUMPDEST PUSH1 0x0 PUSH1 0x20 DUP3 DUP5 SUB SLT ISZERO PUSH2 0x22D2 JUMPI PUSH1 0x0 DUP1 REVERT JUMPDEST POP CALLDATALOAD SWAP2 SWAP1 POP JUMP JUMPDEST PUSH1 0x0 DUP1 PUSH1 0x40 DUP4 DUP6 SUB SLT ISZERO PUSH2 0x22EC JUMPI PUSH1 0x0 DUP1 REVERT JUMPDEST DUP3 CALLDATALOAD SWAP2 POP PUSH2 0x22FC PUSH1 0x20 DUP5 ADD PUSH2 0x2289 JUMP JUMPDEST SWAP1 POP SWAP3 POP SWAP3 SWAP1 POP JUMP JUMPDEST PUSH1 0x0 DUP2 MLOAD DUP1 DUP5 MSTORE PUSH1 0x0 JUMPDEST DUP2 DUP2 LT ISZERO PUSH2 0x232B JUMPI PUSH1 0x20 DUP2 DUP6 ADD DUP2 ADD MLOAD DUP7 DUP4 ADD DUP3 ADD MSTORE ADD PUSH2 0x230F JUMP JUMPDEST DUP2 DUP2 GT ISZERO PUSH2 0x233D JUMPI PUSH1 0x0 PUSH1 0x20 DUP4 DUP8 ADD ADD MSTORE JUMPDEST POP PUSH1 0x1F ADD PUSH1 0x1F NOT AND SWAP3 SWAP1 SWAP3 ADD PUSH1 0x20 ADD SWAP3 SWAP2 POP POP JUMP JUMPDEST PUSH1 0x20 DUP2 MSTORE PUSH1 0x0 PUSH2 0x2139 PUSH1 0x20 DUP4 ADD DUP5 PUSH2 0x2305 JUMP JUMPDEST PUSH1 0x20 DUP1 DUP3 MSTORE PUSH1 0x0 SWAP1 PUSH2 0xE20 DUP4 ADD DUP4 DUP3 ADD DUP6 DUP5 JUMPDEST PUSH1 0x70 DUP2 LT ISZERO PUSH2 0x23A7 JUMPI PUSH1 0x1F NOT DUP8 DUP6 SUB ADD DUP4 MSTORE PUSH2 0x2395 DUP5 DUP4 MLOAD PUSH2 0x2305 JUMP JUMPDEST SWAP4 POP SWAP2 DUP5 ADD SWAP2 SWAP1 DUP5 ADD SWAP1 PUSH1 0x1 ADD PUSH2 0x2378 JUMP JUMPDEST POP SWAP2 SWAP7 SWAP6 POP POP POP POP POP POP JUMP JUMPDEST PUSH4 0x4E487B71 PUSH1 0xE0 SHL PUSH1 0x0 MSTORE PUSH1 0x41 PUSH1 0x4 MSTORE PUSH1 0x24 PUSH1 0x0 REVERT JUMPDEST PUSH1 0x40 MLOAD PUSH2 0xE00 DUP2 ADD PUSH8 0xFFFFFFFFFFFFFFFF DUP2 GT DUP3 DUP3 LT OR ISZERO PUSH2 0x23ED JUMPI PUSH2 0x23ED PUSH2 0x23B3 JUMP JUMPDEST PUSH1 0x40 MSTORE SWAP1 JUMP JUMPDEST PUSH1 0x0 PUSH8 0xFFFFFFFFFFFFFFFF DUP1 DUP5 GT ISZERO PUSH2 0x240E JUMPI PUSH2 0x240E PUSH2 0x23B3 JUMP JUMPDEST PUSH1 0x40 MLOAD PUSH1 0x1F DUP6 ADD PUSH1 0x1F NOT SWAP1 DUP2 AND PUSH1 0x3F ADD AND DUP2 ADD SWAP1 DUP3 DUP3 GT DUP2 DUP4 LT OR ISZERO PUSH2 0x2436 JUMPI PUSH2 0x2436 PUSH2 0x23B3 JUMP JUMPDEST DUP2 PUSH1 0x40 MSTORE DUP1 SWAP4 POP DUP6 DUP2 MSTORE DUP7 DUP7 DUP7 ADD GT ISZERO PUSH2 0x244F JUMPI PUSH1 0x0 DUP1 REVERT JUMPDEST DUP6 DUP6 PUSH1 0x20 DUP4 ADD CALLDATACOPY PUSH1 0x0 PUSH1 0x20 DUP8 DUP4 ADD ADD MSTORE POP POP POP SWAP4 SWAP3 POP POP POP JUMP JUMPDEST PUSH1 0x0 DUP3 PUSH1 0x1F DUP4 ADD SLT PUSH2 0x247A JUMPI PUSH1 0x0 DUP1 REVERT JUMPDEST PUSH2 0x2139 DUP4 DUP4 CALLDATALOAD PUSH1 0x20 DUP6 ADD PUSH2 0x23F3 JUMP JUMPDEST PUSH1 0x0 PUSH1 0x20 DUP3 DUP5 SUB SLT ISZERO PUSH2 0x249B JUMPI PUSH1 0x0 DUP1 REVERT JUMPDEST DUP2 CALLDATALOAD PUSH8 0xFFFFFFFFFFFFFFFF DUP2 GT ISZERO PUSH2 0x24B2 JUMPI PUSH1 0x0 DUP1 REVERT JUMPDEST PUSH2 0x24BE DUP5 DUP3 DUP6 ADD PUSH2 0x2469 JUMP JUMPDEST SWAP5 SWAP4 POP POP POP POP JUMP JUMPDEST DUP1 ISZERO ISZERO DUP2 EQ PUSH2 0x10A2 JUMPI PUSH1 0x0 DUP1 REVERT JUMPDEST PUSH1 0x0 PUSH1 0x20 DUP3 DUP5 SUB SLT ISZERO PUSH2 0x24E6 JUMPI PUSH1 0x0 DUP1 REVERT JUMPDEST DUP2 CALLDATALOAD PUSH2 0x2139 DUP2 PUSH2 0x24C6 JUMP JUMPDEST PUSH1 0x0 DUP1 PUSH1 0x0 PUSH1 0x60 DUP5 DUP7 SUB SLT ISZERO PUSH2 0x2506 JUMPI PUSH1 0x0 DUP1 REVERT JUMPDEST DUP4 CALLDATALOAD PUSH8 0xFFFFFFFFFFFFFFFF DUP2 GT ISZERO PUSH2 0x251D JUMPI PUSH1 0x0 DUP1 REVERT JUMPDEST PUSH2 0x2529 DUP7 DUP3 DUP8 ADD PUSH2 0x2469 JUMP JUMPDEST SWAP4 POP POP PUSH1 0x20 DUP5 ADD CALLDATALOAD PUSH4 0xFFFFFFFF DUP2 AND DUP2 EQ PUSH2 0x2543 JUMPI PUSH1 0x0 DUP1 REVERT JUMPDEST SWAP3 SWAP6 SWAP3 SWAP5 POP POP POP PUSH1 0x40 SWAP2 SWAP1 SWAP2 ADD CALLDATALOAD SWAP1 JUMP JUMPDEST PUSH1 0x1 PUSH1 0x1 PUSH1 0xA0 SHL SUB DUP12 DUP2 AND DUP3 MSTORE DUP11 AND PUSH1 0x20 DUP3 ADD MSTORE PUSH4 0xFFFFFFFF DUP10 DUP2 AND PUSH1 0x40 DUP4 ADD MSTORE PUSH2 0x140 PUSH1 0x60 DUP4 ADD DUP2 SWAP1 MSTORE PUSH1 0x0 SWAP2 PUSH2 0x258E DUP5 DUP4 ADD DUP13 PUSH2 0x2305 JUMP JUMPDEST SWAP2 POP DUP4 DUP3 SUB PUSH1 0x80 DUP6 ADD MSTORE PUSH2 0x25A2 DUP3 DUP12 PUSH2 0x2305 JUMP JUMPDEST SWAP9 AND PUSH1 0xA0 DUP5 ADD MSTORE POP POP PUSH1 0xC0 DUP2 ADD SWAP5 SWAP1 SWAP5 MSTORE PUSH1 0xE0 DUP5 ADD SWAP3 SWAP1 SWAP3 MSTORE PUSH2 0x100 DUP4 ADD MSTORE PUSH2 0x120 SWAP1 SWAP2 ADD MSTORE SWAP6 SWAP5 POP POP POP POP POP JUMP JUMPDEST PUSH1 0x0 DUP1 PUSH1 0x40 DUP4 DUP6 SUB SLT ISZERO PUSH2 0x25E4 JUMPI PUSH1 0x0 DUP1 REVERT JUMPDEST PUSH2 0x25ED DUP4 PUSH2 0x2289 JUMP JUMPDEST SWAP5 PUSH1 0x20 SWAP4 SWAP1 SWAP4 ADD CALLDATALOAD SWAP4 POP POP POP JUMP JUMPDEST PUSH1 0x0 PUSH1 0x20 DUP1 DUP4 DUP6 SUB SLT ISZERO PUSH2 0x260E JUMPI PUSH1 0x0 DUP1 REVERT JUMPDEST DUP3 CALLDATALOAD PUSH8 0xFFFFFFFFFFFFFFFF DUP1 DUP3 GT ISZERO PUSH2 0x2626 JUMPI PUSH1 0x0 DUP1 REVERT JUMPDEST DUP2 DUP6 ADD SWAP2 POP PUSH1 0x1F DUP7 DUP2 DUP5 ADD SLT PUSH2 0x263B JUMPI PUSH1 0x0 DUP1 REVERT JUMPDEST PUSH2 0x2643 PUSH2 0x23C9 JUMP JUMPDEST DUP1 PUSH2 0xE00 DUP6 ADD DUP10 DUP2 GT ISZERO PUSH2 0x2656 JUMPI PUSH1 0x0 DUP1 REVERT JUMPDEST DUP6 JUMPDEST DUP2 DUP2 LT ISZERO PUSH2 0x269D JUMPI DUP1 CALLDATALOAD DUP7 DUP2 GT ISZERO PUSH2 0x2670 JUMPI PUSH1 0x0 DUP1 DUP2 REVERT JUMPDEST DUP8 ADD DUP6 DUP2 ADD DUP13 SGT PUSH2 0x2681 JUMPI PUSH1 0x0 DUP1 DUP2 REVERT JUMPDEST PUSH2 0x268F DUP13 DUP3 CALLDATALOAD DUP12 DUP5 ADD PUSH2 0x23F3 JUMP JUMPDEST DUP6 MSTORE POP SWAP3 DUP8 ADD SWAP3 DUP8 ADD PUSH2 0x2658 JUMP JUMPDEST POP SWAP1 SWAP10 SWAP9 POP POP POP POP POP POP POP POP POP JUMP JUMPDEST PUSH1 0x20 DUP1 DUP3 MSTORE PUSH1 0x27 SWAP1 DUP3 ADD MSTORE PUSH32 0x4F6E6C79206E6F6465732061726520616C6C6F77656420746F20657865637574 PUSH1 0x40 DUP3 ADD MSTORE PUSH7 0x32903A3434B997 PUSH1 0xC9 SHL PUSH1 0x60 DUP3 ADD MSTORE PUSH1 0x80 ADD SWAP1 JUMP JUMPDEST PUSH4 0x4E487B71 PUSH1 0xE0 SHL PUSH1 0x0 MSTORE PUSH1 0x11 PUSH1 0x4 MSTORE PUSH1 0x24 PUSH1 0x0 REVERT JUMPDEST PUSH1 0x0 DUP3 DUP3 LT ISZERO PUSH2 0x271B JUMPI PUSH2 0x271B PUSH2 0x26F3 JUMP JUMPDEST POP SUB SWAP1 JUMP JUMPDEST PUSH4 0x4E487B71 PUSH1 0xE0 SHL PUSH1 0x0 MSTORE PUSH1 0x32 PUSH1 0x4 MSTORE PUSH1 0x24 PUSH1 0x0 REVERT JUMPDEST PUSH1 0x0 PUSH4 0xFFFFFFFF DUP4 DUP2 AND SWAP1 DUP4 AND DUP2 DUP2 LT ISZERO PUSH2 0x2753 JUMPI PUSH2 0x2753 PUSH2 0x26F3 JUMP JUMPDEST SUB SWAP4 SWAP3 POP POP POP JUMP JUMPDEST PUSH1 0x1 DUP2 DUP2 SHR SWAP1 DUP3 AND DUP1 PUSH2 0x276F JUMPI PUSH1 0x7F DUP3 AND SWAP2 POP JUMPDEST PUSH1 0x20 DUP3 LT DUP2 SUB PUSH2 0x278F JUMPI PUSH4 0x4E487B71 PUSH1 0xE0 SHL PUSH1 0x0 MSTORE PUSH1 0x22 PUSH1 0x4 MSTORE PUSH1 0x24 PUSH1 0x0 REVERT JUMPDEST POP SWAP2 SWAP1 POP JUMP JUMPDEST PUSH1 0x1F DUP3 GT ISZERO PUSH2 0x27DF JUMPI PUSH1 0x0 DUP2 DUP2 MSTORE PUSH1 0x20 DUP2 KECCAK256 PUSH1 0x1F DUP6 ADD PUSH1 0x5 SHR DUP2 ADD PUSH1 0x20 DUP7 LT ISZERO PUSH2 0x27BC JUMPI POP DUP1 JUMPDEST PUSH1 0x1F DUP6 ADD PUSH1 0x5 SHR DUP3 ADD SWAP2 POP JUMPDEST DUP2 DUP2 LT ISZERO PUSH2 0x27DB JUMPI DUP3 DUP2 SSTORE PUSH1 0x1 ADD PUSH2 0x27C8 JUMP JUMPDEST POP POP POP JUMPDEST POP POP POP JUMP JUMPDEST DUP2 MLOAD PUSH8 0xFFFFFFFFFFFFFFFF DUP2 GT ISZERO PUSH2 0x27FE JUMPI PUSH2 0x27FE PUSH2 0x23B3 JUMP JUMPDEST PUSH2 0x2812 DUP2 PUSH2 0x280C DUP5 SLOAD PUSH2 0x275B JUMP JUMPDEST DUP5 PUSH2 0x2795 JUMP JUMPDEST PUSH1 0x20 DUP1 PUSH1 0x1F DUP4 GT PUSH1 0x1 DUP2 EQ PUSH2 0x2847 JUMPI PUSH1 0x0 DUP5 ISZERO PUSH2 0x282F JUMPI POP DUP6 DUP4 ADD MLOAD JUMPDEST PUSH1 0x0 NOT PUSH1 0x3 DUP7 SWAP1 SHL SHR NOT AND PUSH1 0x1 DUP6 SWAP1 SHL OR DUP6 SSTORE PUSH2 0x27DB JUMP JUMPDEST PUSH1 0x0 DUP6 DUP2 MSTORE PUSH1 0x20 DUP2 KECCAK256 PUSH1 0x1F NOT DUP7 AND SWAP2 JUMPDEST DUP3 DUP2 LT ISZERO PUSH2 0x2876 JUMPI DUP9 DUP7 ADD MLOAD DUP3 SSTORE SWAP5 DUP5 ADD SWAP5 PUSH1 0x1 SWAP1 SWAP2 ADD SWAP1 DUP5 ADD PUSH2 0x2857 JUMP JUMPDEST POP DUP6 DUP3 LT ISZERO PUSH2 0x2894 JUMPI DUP8 DUP6 ADD MLOAD PUSH1 0x0 NOT PUSH1 0x3 DUP9 SWAP1 SHL PUSH1 0xF8 AND SHR NOT AND DUP2 SSTORE JUMPDEST POP POP POP POP POP PUSH1 0x1 SWAP1 DUP2 SHL ADD SWAP1 SSTORE POP JUMP JUMPDEST PUSH4 0x4E487B71 PUSH1 0xE0 SHL PUSH1 0x0 MSTORE PUSH1 0x31 PUSH1 0x4 MSTORE PUSH1 0x24 PUSH1 0x0 REVERT JUMPDEST PUSH1 0x0 PUSH1 0x20 DUP3 DUP5 SUB SLT ISZERO PUSH2 0x28CC JUMPI PUSH1 0x0 DUP1 REVERT JUMPDEST DUP2 MLOAD PUSH2 0x2139 DUP2 PUSH2 0x24C6 JUMP JUMPDEST PUSH1 0x0 PUSH4 0xFFFFFFFF DUP1 DUP4 AND DUP2 DUP6 AND DUP1 DUP4 SUB DUP3 GT ISZERO PUSH2 0x28F6 JUMPI PUSH2 0x28F6 PUSH2 0x26F3 JUMP JUMPDEST ADD SWAP5 SWAP4 POP POP POP POP JUMP JUMPDEST PUSH1 0x20 DUP1 DUP3 MSTORE PUSH1 0x2A SWAP1 DUP3 ADD MSTORE PUSH32 0x4F6E6C79206275696C646572732061726520616C6C6F77656420746F20657865 PUSH1 0x40 DUP3 ADD MSTORE PUSH10 0x31BABA32903A3434B997 PUSH1 0xB1 SHL PUSH1 0x60 DUP3 ADD MSTORE PUSH1 0x80 ADD SWAP1 JUMP JUMPDEST PUSH1 0x20 DUP1 DUP3 MSTORE PUSH1 0x49 SWAP1 DUP3 ADD MSTORE PUSH32 0x41646472657373206F66206E6577206275696C646572206861736E2774206372 PUSH1 0x40 DUP3 ADD MSTORE PUSH32 0x656174656420726571756573742E20436F6E7369646572207573696E67206164 PUSH1 0x60 DUP3 ADD MSTORE PUSH9 0x32213AB4B63232B917 PUSH1 0xB9 SHL PUSH1 0x80 DUP3 ADD MSTORE PUSH1 0xA0 ADD SWAP1 JUMP JUMPDEST PUSH1 0x0 DUP3 NOT DUP3 GT ISZERO PUSH2 0x29CB JUMPI PUSH2 0x29CB PUSH2 0x26F3 JUMP JUMPDEST POP ADD SWAP1 JUMP JUMPDEST PUSH1 0x0 PUSH4 0xFFFFFFFF DUP1 DUP4 AND DUP2 DUP2 SUB PUSH2 0x29E9 JUMPI PUSH2 0x29E9 PUSH2 0x26F3 JUMP JUMPDEST PUSH1 0x1 ADD SWAP4 SWAP3 POP POP POP JUMP JUMPDEST PUSH1 0x0 DUP3 PUSH2 0x2A10 JUMPI PUSH4 0x4E487B71 PUSH1 0xE0 SHL PUSH1 0x0 MSTORE PUSH1 0x12 PUSH1 0x4 MSTORE PUSH1 0x24 PUSH1 0x0 REVERT JUMPDEST POP MOD SWAP1 JUMP JUMPDEST PUSH1 0x0 PUSH1 0x1 DUP3 ADD PUSH2 0x2A27 JUMPI PUSH2 0x2A27 PUSH2 0x26F3 JUMP JUMPDEST POP PUSH1 0x1 ADD SWAP1 JUMP JUMPDEST PUSH1 0x0 DUP2 PUSH1 0x0 NOT DIV DUP4 GT DUP3 ISZERO ISZERO AND ISZERO PUSH2 0x2A48 JUMPI PUSH2 0x2A48 PUSH2 0x26F3 JUMP JUMPDEST POP MUL SWAP1 JUMP INVALID LOG2 PUSH5 0x6970667358 0x22 SLT KECCAK256 0xE7 0xD8 SHR REVERT PUSH22 0xEAFB789016ED27002E9304A08AA3D829594A09FD7EC INVALID BYTE LT 0xC0 PUSH23 0x64736F6C634300080F0033000000000000000000000000 ",
  "sha1": "c6d90a8f11357ad8c4fb5f78c6d110a64c9cecaa",
  "source": "// SPDX-License-Identifier: GPL3\npragma solidity ^0.8.0;\n\nimport \"./Token.sol\";\nimport \"./project/TrainingPlans.sol\";\n\n// TODO: Make interface/abstract project contract\n\n/**\n * @title Project Contract\n * @notice Project Contract manages references to Data Providers (nodes) and\n * Builders (scientists). Data providers must watch this contract and execute\n * new plans. Builders creat training plans.\n * @dev This contract is instantiated for each project and can be edited for individual needs.\n */\ncontract ProjectContract is TrainingPlans {\n    FELToken private token;\n\n    /**\n     * @dev Initializes the project. Creator becomes both builder and data provider, might be changed in future\n     * @param _token address of the FELToken\n     * @param publicKey - Builder setup\n     * @param secret - Encrypted secret for the owner (owner encrypts for himself)\n     */\n    constructor(FELToken _token, bytes32 publicKey, bytes[112] memory secret) {\n        token = _token;\n\n        builders[msg.sender] = Builder({\n            _address: msg.sender,\n            publicKey: publicKey\n        });\n        buildersArray.push(msg.sender);\n\n        nodeState[msg.sender] = 3;\n        nodesArray.push(Node({\n            _address: msg.sender,\n            activated: false,\n            secret: secret,\n            entryKeyTurn: 0\n        }));\n    }\n\n    /**\n     * @notice Builder creates training plan\n     * @param modelCID - ipfs CID\n     * @param rounds - number of training rounds\n     * @param reward - reward for data providers for each model submitted\n     */\n    function createPlan(string memory modelCID, uint32 rounds, uint reward) public {\n        _addPlan(modelCID, rounds, reward);\n\n        // Builder has to provide the reward\n        uint totalReward = _calculateTotalReward(rounds, reward);\n        token.transferFrom(msg.sender, address(this), totalReward);\n    }\n\n    /**\n     * @notice Data provider submits model\n     * @param modelCID - ipfs CID\n     */\n    function submitModel(string memory modelCID) public {\n        _saveModel(modelCID);\n\n        // Send reward to node\n        token.transfer(msg.sender, plans[numPlans - 1].nodeReward);\n        plans[numPlans - 1].totalReward -= plans[numPlans - 1].nodeReward;\n    }\n\n\n    /** TODO:\n     *    - Sponsor projects\n     *    - Request/Buy model\n     *    - Validation\n     *    - Settings public/private\n     *        - possible to join for new nodes/builders\n     */\n\n\n    // Vote for removing fake node\n    //   - Also must reestablish the secret\n    // function voteNodeRemove(address _address) public onlyNode {\n    //    // TODO: check if already voted\n    //    // Increment vote count of node, kick if vote count above half\n    // }\n}\n",
  "sourcePath": "contracts/ProjectContract.sol",
  "type": "contract"
}